{
  "transactions": [
    {
      "hash": "0x53cfec8c0b8ffe32eeb5198c15840036294e9585a81e820d834a6a0f553d8cc7",
      "transactionType": "CALL",
      "contractName": null,
      "contractAddress": "0x6fc712dde9f89a11bc3764b014100d5969c8601d",
      "function": "upgradeAndCall(address,address,bytes)",
      "arguments": [
        "0x0fBEb5dC06CF945aEa317799520baFB939Eca191",
        "0xe996AD9579C0EBbDE916A37F2381BB2099f5467E",
        "0x"
      ],
      "transaction": {
        "from": "0x2aa76c12368bc8aef4190400ef4af19fd0b4247c",
        "to": "0x6fc712dde9f89a11bc3764b014100d5969c8601d",
        "gas": "0xd4fc",
        "value": "0x0",
        "input": "0x9623609d0000000000000000000000000fbeb5dc06cf945aea317799520bafb939eca191000000000000000000000000e996ad9579c0ebbde916a37f2381bb2099f5467e00000000000000000000000000000000000000000000000000000000000000600000000000000000000000000000000000000000000000000000000000000000",
        "nonce": "0x496",
        "chainId": "0x5f0"
      },
      "additionalContracts": [],
      "isFixedGasLimit": false
    },
    {
      "hash": "0xaf85520e8f5e1fe0155820968a7c835165e9fef202f418469e449a18f0a5ddcd",
      "transactionType": "CALL",
      "contractName": null,
      "contractAddress": "0x94262fb36f2f41c13c718651ecc9121877d80316",
      "function": "upgradeAndCall(address,address,bytes)",
      "arguments": [
        "0x2fa5E870d2a8f35fF04b253C4580115cA5849634",
        "0xe996AD9579C0EBbDE916A37F2381BB2099f5467E",
        "0x"
      ],
      "transaction": {
        "from": "0xfdaa58e9465bba04001b507074febb2c917c6eaf",
        "to": "0x94262fb36f2f41c13c718651ecc9121877d80316",
        "gas": "0xd4fc",
        "value": "0x0",
        "input": "0x9623609d0000000000000000000000002fa5e870d2a8f35ff04b253c4580115ca5849634000000000000000000000000e996ad9579c0ebbde916a37f2381bb2099f5467e00000000000000000000000000000000000000000000000000000000000000600000000000000000000000000000000000000000000000000000000000000000",
        "nonce": "0x68",
        "chainId": "0x5f0"
      },
      "additionalContracts": [],
      "isFixedGasLimit": false
    },
    {
      "hash": "0x60e7b9eb2200ccfad91cc534d6e5cc0cd82a2b59fad6ba7f2f3e4720c687a789",
      "transactionType": "CALL",
      "contractName": null,
      "contractAddress": "0xf6b623505e5ae2e38eb476ca9261aa6e25b5a077",
      "function": "upgradeAndCall(address,address,bytes)",
      "arguments": [
        "0x322628AA283D2fEA7763365dD3DcBc4F76B21918",
        "0xe996AD9579C0EBbDE916A37F2381BB2099f5467E",
        "0x"
      ],
      "transaction": {
        "from": "0x2162d8b4662d73ca296bee28bfe02f6e2527f6b4",
        "to": "0xf6b623505e5ae2e38eb476ca9261aa6e25b5a077",
        "gas": "0xd4fc",
        "value": "0x0",
        "input": "0x9623609d000000000000000000000000322628aa283d2fea7763365dd3dcbc4f76b21918000000000000000000000000e996ad9579c0ebbde916a37f2381bb2099f5467e00000000000000000000000000000000000000000000000000000000000000600000000000000000000000000000000000000000000000000000000000000000",
        "nonce": "0x1be18",
        "chainId": "0x5f0"
      },
      "additionalContracts": [],
      "isFixedGasLimit": false
    },
    {
      "hash": "0xbeebed55aceb4e4c14e65a847b95f89809b6e6f372c3cc7be84edf77904ed66e",
      "transactionType": "CALL",
      "contractName": null,
      "contractAddress": "0x2ea726070ed3677fe9e85d907887757cb5bea2e6",
      "function": "upgradeAndCall(address,address,bytes)",
      "arguments": [
        "0x332D717949FA0008F6c3538C48394B9d3E2cD69a",
        "0xe996AD9579C0EBbDE916A37F2381BB2099f5467E",
        "0x"
      ],
      "transaction": {
        "from": "0x2162d8b4662d73ca296bee28bfe02f6e2527f6b4",
        "to": "0x2ea726070ed3677fe9e85d907887757cb5bea2e6",
        "gas": "0xc916",
        "value": "0x0",
        "input": "0x9623609d000000000000000000000000332d717949fa0008f6c3538c48394b9d3e2cd69a000000000000000000000000e996ad9579c0ebbde916a37f2381bb2099f5467e00000000000000000000000000000000000000000000000000000000000000600000000000000000000000000000000000000000000000000000000000000000",
        "nonce": "0x1be19",
        "chainId": "0x5f0"
      },
      "additionalContracts": [],
      "isFixedGasLimit": false
    },
    {
      "hash": "0x7fac64aba16b5156af5183d47297ad721dfd155d40cda36570474cd4a4b3dc74",
      "transactionType": "CALL",
      "contractName": null,
      "contractAddress": "0x4d6c0ed08e296e85a10db6693fbc07cc3282828e",
      "function": "upgradeAndCall(address,address,bytes)",
      "arguments": [
        "0x36794b6C28234257D0787E8F4774822b75DCBcd9",
        "0xe996AD9579C0EBbDE916A37F2381BB2099f5467E",
        "0x"
      ],
      "transaction": {
        "from": "0xfdaa58e9465bba04001b507074febb2c917c6eaf",
        "to": "0x4d6c0ed08e296e85a10db6693fbc07cc3282828e",
        "gas": "0xd4fc",
        "value": "0x0",
        "input": "0x9623609d00000000000000000000000036794b6c28234257d0787e8f4774822b75dcbcd9000000000000000000000000e996ad9579c0ebbde916a37f2381bb2099f5467e00000000000000000000000000000000000000000000000000000000000000600000000000000000000000000000000000000000000000000000000000000000",
        "nonce": "0x69",
        "chainId": "0x5f0"
      },
      "additionalContracts": [],
      "isFixedGasLimit": false
    },
    {
      "hash": "0xd3b90c040a11a7479e49e0d5b8645070d853dca3effdd2ee59315c180f2a91e0",
      "transactionType": "CALL",
      "contractName": null,
      "contractAddress": "0x01d08076979cbb7c77d21769a42c12888b2bea07",
      "function": "upgradeAndCall(address,address,bytes)",
      "arguments": [
        "0x36F38f8E14099967d97e9fe44014924A8B6B680C",
        "0xe996AD9579C0EBbDE916A37F2381BB2099f5467E",
        "0x"
      ],
      "transaction": {
        "from": "0x2aa76c12368bc8aef4190400ef4af19fd0b4247c",
        "to": "0x01d08076979cbb7c77d21769a42c12888b2bea07",
        "gas": "0xd4fc",
        "value": "0x0",
        "input": "0x9623609d00000000000000000000000036f38f8e14099967d97e9fe44014924a8b6b680c000000000000000000000000e996ad9579c0ebbde916a37f2381bb2099f5467e00000000000000000000000000000000000000000000000000000000000000600000000000000000000000000000000000000000000000000000000000000000",
        "nonce": "0x497",
        "chainId": "0x5f0"
      },
      "additionalContracts": [],
      "isFixedGasLimit": false
    },
    {
      "hash": "0x07539f282b6d0c2d7b63b950747e09f35fa8b4c22fd0b838c4fc487d16126abe",
      "transactionType": "CALL",
      "contractName": null,
      "contractAddress": "0x7376888549fccd252a6b1183f2e3a39d3e5f7959",
      "function": "upgradeAndCall(address,address,bytes)",
      "arguments": [
        "0x378b494FC06B031B02b3c7D9211BB75d2d2c0bBe",
        "0xe996AD9579C0EBbDE916A37F2381BB2099f5467E",
        "0x"
      ],
      "transaction": {
        "from": "0x2162d8b4662d73ca296bee28bfe02f6e2527f6b4",
        "to": "0x7376888549fccd252a6b1183f2e3a39d3e5f7959",
        "gas": "0xd4fc",
        "value": "0x0",
        "input": "0x9623609d000000000000000000000000378b494fc06b031b02b3c7d9211bb75d2d2c0bbe000000000000000000000000e996ad9579c0ebbde916a37f2381bb2099f5467e00000000000000000000000000000000000000000000000000000000000000600000000000000000000000000000000000000000000000000000000000000000",
        "nonce": "0x1be1a",
        "chainId": "0x5f0"
      },
      "additionalContracts": [],
      "isFixedGasLimit": false
    },
    {
      "hash": "0xd385897021a97871052a4b1995dbff6ba3d4cd44af93d2ee9f36988c76315a31",
      "transactionType": "CALL",
      "contractName": null,
      "contractAddress": "0xd1db93a30a7e7012dd422af2d920cdbe2a166a5f",
      "function": "upgradeAndCall(address,address,bytes)",
      "arguments": [
        "0x37f48E36422DC7B507c4bD34ac3Ea8c4474b0B7f",
        "0xe996AD9579C0EBbDE916A37F2381BB2099f5467E",
        "0x"
      ],
      "transaction": {
        "from": "0xfdaa58e9465bba04001b507074febb2c917c6eaf",
        "to": "0xd1db93a30a7e7012dd422af2d920cdbe2a166a5f",
        "gas": "0xd4fc",
        "value": "0x0",
        "input": "0x9623609d00000000000000000000000037f48e36422dc7b507c4bd34ac3ea8c4474b0b7f000000000000000000000000e996ad9579c0ebbde916a37f2381bb2099f5467e00000000000000000000000000000000000000000000000000000000000000600000000000000000000000000000000000000000000000000000000000000000",
        "nonce": "0x6a",
        "chainId": "0x5f0"
      },
      "additionalContracts": [],
      "isFixedGasLimit": false
    },
    {
      "hash": "0x94fde3a8bbcee869274719df865abdc1375ec81363087720962035d6cf7fe1b2",
      "transactionType": "CALL",
      "contractName": null,
      "contractAddress": "0xf2f34a26d8980641d9d22f477afd328d14789eb3",
      "function": "upgradeAndCall(address,address,bytes)",
      "arguments": [
        "0x395E20247663a32fE177aDB4119d3998D0004abC",
        "0xe996AD9579C0EBbDE916A37F2381BB2099f5467E",
        "0x"
      ],
      "transaction": {
        "from": "0xfdaa58e9465bba04001b507074febb2c917c6eaf",
        "to": "0xf2f34a26d8980641d9d22f477afd328d14789eb3",
        "gas": "0xc916",
        "value": "0x0",
        "input": "0x9623609d000000000000000000000000395e20247663a32fe177adb4119d3998d0004abc000000000000000000000000e996ad9579c0ebbde916a37f2381bb2099f5467e00000000000000000000000000000000000000000000000000000000000000600000000000000000000000000000000000000000000000000000000000000000",
        "nonce": "0x6b",
        "chainId": "0x5f0"
      },
      "additionalContracts": [],
      "isFixedGasLimit": false
    },
    {
      "hash": "0x494d4aed1ea91a888a16e640e94fb1c7a400172d3fb4d3b205b1fe037ddf297d",
      "transactionType": "CALL",
      "contractName": null,
      "contractAddress": "0x83bc484df9707c84608f5c026281995cdfff7957",
      "function": "upgradeAndCall(address,address,bytes)",
      "arguments": [
        "0x39A43052dE5E15f4b7A08D0f8CDa209FdF239bf1",
        "0xe996AD9579C0EBbDE916A37F2381BB2099f5467E",
        "0x"
      ],
      "transaction": {
        "from": "0x2aa76c12368bc8aef4190400ef4af19fd0b4247c",
        "to": "0x83bc484df9707c84608f5c026281995cdfff7957",
        "gas": "0xd4fc",
        "value": "0x0",
        "input": "0x9623609d00000000000000000000000039a43052de5e15f4b7a08d0f8cda209fdf239bf1000000000000000000000000e996ad9579c0ebbde916a37f2381bb2099f5467e00000000000000000000000000000000000000000000000000000000000000600000000000000000000000000000000000000000000000000000000000000000",
        "nonce": "0x498",
        "chainId": "0x5f0"
      },
      "additionalContracts": [],
      "isFixedGasLimit": false
    },
    {
      "hash": "0x9d9dc12c7348d8a418a406afba5687c711fa631d8a310423c6197deadfb42c5e",
      "transactionType": "CALL",
      "contractName": null,
      "contractAddress": "0x86cf76c8f252649a0ddd124c788570bc8a811c93",
      "function": "upgradeAndCall(address,address,bytes)",
      "arguments": [
        "0x41A00D28b99508E67c15a289601bD47fB90d3b7A",
        "0xe996AD9579C0EBbDE916A37F2381BB2099f5467E",
        "0x"
      ],
      "transaction": {
        "from": "0x2aa76c12368bc8aef4190400ef4af19fd0b4247c",
        "to": "0x86cf76c8f252649a0ddd124c788570bc8a811c93",
        "gas": "0xd4fc",
        "value": "0x0",
        "input": "0x9623609d00000000000000000000000041a00d28b99508e67c15a289601bd47fb90d3b7a000000000000000000000000e996ad9579c0ebbde916a37f2381bb2099f5467e00000000000000000000000000000000000000000000000000000000000000600000000000000000000000000000000000000000000000000000000000000000",
        "nonce": "0x499",
        "chainId": "0x5f0"
      },
      "additionalContracts": [],
      "isFixedGasLimit": false
    },
    {
      "hash": "0x268ffefcd125fb57ac4fc61892b083441a38e71ab3992438893763816a2fec8e",
      "transactionType": "CALL",
      "contractName": null,
      "contractAddress": "0xfc56d99531cbc85d4726c4d35aec79a2ba6cc967",
      "function": "upgradeAndCall(address,address,bytes)",
      "arguments": [
        "0x4c0d82FcD7dFD8eC6F89Be4180d16e2FE47E8ab8",
        "0xe996AD9579C0EBbDE916A37F2381BB2099f5467E",
        "0x"
      ],
      "transaction": {
        "from": "0x2aa76c12368bc8aef4190400ef4af19fd0b4247c",
        "to": "0xfc56d99531cbc85d4726c4d35aec79a2ba6cc967",
        "gas": "0xd4fc",
        "value": "0x0",
        "input": "0x9623609d0000000000000000000000004c0d82fcd7dfd8ec6f89be4180d16e2fe47e8ab8000000000000000000000000e996ad9579c0ebbde916a37f2381bb2099f5467e00000000000000000000000000000000000000000000000000000000000000600000000000000000000000000000000000000000000000000000000000000000",
        "nonce": "0x49a",
        "chainId": "0x5f0"
      },
      "additionalContracts": [],
      "isFixedGasLimit": false
    },
    {
      "hash": "0xde671e769bcd151941389cd9a816f7092881a8a1e1ac0ee330a51bbe202f6475",
      "transactionType": "CALL",
      "contractName": null,
      "contractAddress": "0x96328d15063c502d88fc4ece48280b9f023b0c61",
      "function": "upgradeAndCall(address,address,bytes)",
      "arguments": [
        "0x4dcdA9E6A873163Da348156850201123A23F0200",
        "0xe996AD9579C0EBbDE916A37F2381BB2099f5467E",
        "0x"
      ],
      "transaction": {
        "from": "0x2aa76c12368bc8aef4190400ef4af19fd0b4247c",
        "to": "0x96328d15063c502d88fc4ece48280b9f023b0c61",
        "gas": "0xc916",
        "value": "0x0",
        "input": "0x9623609d0000000000000000000000004dcda9e6a873163da348156850201123a23f0200000000000000000000000000e996ad9579c0ebbde916a37f2381bb2099f5467e00000000000000000000000000000000000000000000000000000000000000600000000000000000000000000000000000000000000000000000000000000000",
        "nonce": "0x49b",
        "chainId": "0x5f0"
      },
      "additionalContracts": [],
      "isFixedGasLimit": false
    },
    {
      "hash": "0xdc1d6a9281f1adcf7324fe9d01ed847c7e17649163217cfc979911e99b4346e2",
      "transactionType": "CALL",
      "contractName": null,
      "contractAddress": "0x1425d717fd2d890b642ab44c75ecf795bdc5a3b9",
      "function": "upgradeAndCall(address,address,bytes)",
      "arguments": [
        "0x54AC5950e3C814dd46EdA2AB79Ee1d058C40B5bE",
        "0xe996AD9579C0EBbDE916A37F2381BB2099f5467E",
        "0x"
      ],
      "transaction": {
        "from": "0x2162d8b4662d73ca296bee28bfe02f6e2527f6b4",
        "to": "0x1425d717fd2d890b642ab44c75ecf795bdc5a3b9",
        "gas": "0xd4fc",
        "value": "0x0",
        "input": "0x9623609d00000000000000000000000054ac5950e3c814dd46eda2ab79ee1d058c40b5be000000000000000000000000e996ad9579c0ebbde916a37f2381bb2099f5467e00000000000000000000000000000000000000000000000000000000000000600000000000000000000000000000000000000000000000000000000000000000",
        "nonce": "0x1be1b",
        "chainId": "0x5f0"
      },
      "additionalContracts": [],
      "isFixedGasLimit": false
    },
    {
      "hash": "0x1ec145cfe0e2fe743e68ff1e91feb52ee185746a49bb1d78b0928a83e5aa930b",
      "transactionType": "CALL",
      "contractName": null,
      "contractAddress": "0x96ad692deb46f380ed3bca517e0655d1d9bf31e1",
      "function": "upgradeAndCall(address,address,bytes)",
      "arguments": [
        "0x5e13237887F04F48d1b0EA2b6c88aBb1ddA1bc55",
        "0xe996AD9579C0EBbDE916A37F2381BB2099f5467E",
        "0x"
      ],
      "transaction": {
        "from": "0x2162d8b4662d73ca296bee28bfe02f6e2527f6b4",
        "to": "0x96ad692deb46f380ed3bca517e0655d1d9bf31e1",
        "gas": "0xd4fc",
        "value": "0x0",
        "input": "0x9623609d0000000000000000000000005e13237887f04f48d1b0ea2b6c88abb1dda1bc55000000000000000000000000e996ad9579c0ebbde916a37f2381bb2099f5467e00000000000000000000000000000000000000000000000000000000000000600000000000000000000000000000000000000000000000000000000000000000",
        "nonce": "0x1be1c",
        "chainId": "0x5f0"
      },
      "additionalContracts": [],
      "isFixedGasLimit": false
    },
    {
      "hash": "0xdaf63d8916068cff2368cb1097c47a567ef033ece3a12639dc5dd108be4bee1d",
      "transactionType": "CALL",
      "contractName": null,
      "contractAddress": "0x36f40f88013aa750893437f70788daf5206b97fb",
      "function": "upgradeAndCall(address,address,bytes)",
      "arguments": [
        "0x7355939d127b3000a25d51147906401621C5b896",
        "0xe996AD9579C0EBbDE916A37F2381BB2099f5467E",
        "0x"
      ],
      "transaction": {
        "from": "0xfdaa58e9465bba04001b507074febb2c917c6eaf",
        "to": "0x36f40f88013aa750893437f70788daf5206b97fb",
        "gas": "0xc916",
        "value": "0x0",
        "input": "0x9623609d0000000000000000000000007355939d127b3000a25d51147906401621c5b896000000000000000000000000e996ad9579c0ebbde916a37f2381bb2099f5467e00000000000000000000000000000000000000000000000000000000000000600000000000000000000000000000000000000000000000000000000000000000",
        "nonce": "0x6c",
        "chainId": "0x5f0"
      },
      "additionalContracts": [],
      "isFixedGasLimit": false
    },
    {
      "hash": "0x9b23d780ce0a5e937fc2baeef554eabb9b615cfb1f9ee383d3d2d4903d6edb91",
      "transactionType": "CALL",
      "contractName": null,
      "contractAddress": "0x0d8b595376f7b1123117266c54eadadc3a9537a1",
      "function": "upgradeAndCall(address,address,bytes)",
      "arguments": [
        "0x833505612A179A9D3bDAba7e32eA81d1018e5696",
        "0xe996AD9579C0EBbDE916A37F2381BB2099f5467E",
        "0x"
      ],
      "transaction": {
        "from": "0x2aa76c12368bc8aef4190400ef4af19fd0b4247c",
        "to": "0x0d8b595376f7b1123117266c54eadadc3a9537a1",
        "gas": "0xd4fc",
        "value": "0x0",
        "input": "0x9623609d000000000000000000000000833505612a179a9d3bdaba7e32ea81d1018e5696000000000000000000000000e996ad9579c0ebbde916a37f2381bb2099f5467e00000000000000000000000000000000000000000000000000000000000000600000000000000000000000000000000000000000000000000000000000000000",
        "nonce": "0x49c",
        "chainId": "0x5f0"
      },
      "additionalContracts": [],
      "isFixedGasLimit": false
    },
    {
      "hash": "0xd2952714e39fd173b5782115ee4bb0f35430b59974d0b19d1877b21f212fb927",
      "transactionType": "CALL",
      "contractName": null,
      "contractAddress": "0x233b3708d53494772ca8d8cdae9e08d67c0c21bf",
      "function": "upgradeAndCall(address,address,bytes)",
      "arguments": [
        "0x84cC168d0C682085951451c9E5b8dA987c4A23ba",
        "0xe996AD9579C0EBbDE916A37F2381BB2099f5467E",
        "0x"
      ],
      "transaction": {
        "from": "0x2162d8b4662d73ca296bee28bfe02f6e2527f6b4",
        "to": "0x233b3708d53494772ca8d8cdae9e08d67c0c21bf",
        "gas": "0xd4fc",
        "value": "0x0",
        "input": "0x9623609d00000000000000000000000084cc168d0c682085951451c9e5b8da987c4a23ba000000000000000000000000e996ad9579c0ebbde916a37f2381bb2099f5467e00000000000000000000000000000000000000000000000000000000000000600000000000000000000000000000000000000000000000000000000000000000",
        "nonce": "0x1be1d",
        "chainId": "0x5f0"
      },
      "additionalContracts": [],
      "isFixedGasLimit": false
    },
    {
      "hash": "0xf333651988acc55e22e3f2f8dc2ac926a58db6365b9d9a2bb9496edec768921c",
      "transactionType": "CALL",
      "contractName": null,
      "contractAddress": "0x01254709d24acf4e026a2584e169e118ee4784fa",
      "function": "upgradeAndCall(address,address,bytes)",
      "arguments": [
        "0x907Cd078Bdf8434de15F57eE5cC703142367d8f5",
        "0xe996AD9579C0EBbDE916A37F2381BB2099f5467E",
        "0x"
      ],
      "transaction": {
        "from": "0x2aa76c12368bc8aef4190400ef4af19fd0b4247c",
        "to": "0x01254709d24acf4e026a2584e169e118ee4784fa",
        "gas": "0xd4fc",
        "value": "0x0",
        "input": "0x9623609d000000000000000000000000907cd078bdf8434de15f57ee5cc703142367d8f5000000000000000000000000e996ad9579c0ebbde916a37f2381bb2099f5467e00000000000000000000000000000000000000000000000000000000000000600000000000000000000000000000000000000000000000000000000000000000",
        "nonce": "0x49d",
        "chainId": "0x5f0"
      },
      "additionalContracts": [],
      "isFixedGasLimit": false
    },
    {
      "hash": "0xc77f27600cca0f9e4eba120f8822857ddf6571741ff22b8b6edd4c585e0e8a7e",
      "transactionType": "CALL",
      "contractName": null,
      "contractAddress": "0x68b6158f6edc534da9d8017553655c05c0df8715",
      "function": "upgradeAndCall(address,address,bytes)",
      "arguments": [
        "0x9a055C017836361351DcbD6a1f40cfc361e8497A",
        "0xe996AD9579C0EBbDE916A37F2381BB2099f5467E",
        "0x"
      ],
      "transaction": {
        "from": "0x2aa76c12368bc8aef4190400ef4af19fd0b4247c",
        "to": "0x68b6158f6edc534da9d8017553655c05c0df8715",
        "gas": "0xd4fc",
        "value": "0x0",
        "input": "0x9623609d0000000000000000000000009a055c017836361351dcbd6a1f40cfc361e8497a000000000000000000000000e996ad9579c0ebbde916a37f2381bb2099f5467e00000000000000000000000000000000000000000000000000000000000000600000000000000000000000000000000000000000000000000000000000000000",
        "nonce": "0x49e",
        "chainId": "0x5f0"
      },
      "additionalContracts": [],
      "isFixedGasLimit": false
    },
    {
      "hash": "0xaf80b6665c6faf20f18c91609711d160d36c94918073c570307ee3de09eef4e6",
      "transactionType": "CALL",
      "contractName": null,
      "contractAddress": "0xe43a4ffb7c3b0ca6faeaba0128e0a78260b5cc41",
      "function": "upgradeAndCall(address,address,bytes)",
      "arguments": [
        "0x9c17373c6990281E707Ea82DeC26093129747d33",
        "0xe996AD9579C0EBbDE916A37F2381BB2099f5467E",
        "0x"
      ],
      "transaction": {
        "from": "0x2aa76c12368bc8aef4190400ef4af19fd0b4247c",
        "to": "0xe43a4ffb7c3b0ca6faeaba0128e0a78260b5cc41",
        "gas": "0xd4fc",
        "value": "0x0",
        "input": "0x9623609d0000000000000000000000009c17373c6990281e707ea82dec26093129747d33000000000000000000000000e996ad9579c0ebbde916a37f2381bb2099f5467e00000000000000000000000000000000000000000000000000000000000000600000000000000000000000000000000000000000000000000000000000000000",
        "nonce": "0x49f",
        "chainId": "0x5f0"
      },
      "additionalContracts": [],
      "isFixedGasLimit": false
    },
    {
      "hash": "0x14669540661b952a6615b55ccc23e551997bfc17b676f1a836a9575533f136b6",
      "transactionType": "CALL",
      "contractName": null,
      "contractAddress": "0x2cd4e3cfda7f2dd479757a633dc7168bac3ad990",
      "function": "upgradeAndCall(address,address,bytes)",
      "arguments": [
        "0xAAa1bAB87801Cb6f0A12a85b39ba2a9f32cA93dE",
        "0xe996AD9579C0EBbDE916A37F2381BB2099f5467E",
        "0x"
      ],
      "transaction": {
        "from": "0x2aa76c12368bc8aef4190400ef4af19fd0b4247c",
        "to": "0x2cd4e3cfda7f2dd479757a633dc7168bac3ad990",
        "gas": "0xd4fc",
        "value": "0x0",
        "input": "0x9623609d000000000000000000000000aaa1bab87801cb6f0a12a85b39ba2a9f32ca93de000000000000000000000000e996ad9579c0ebbde916a37f2381bb2099f5467e00000000000000000000000000000000000000000000000000000000000000600000000000000000000000000000000000000000000000000000000000000000",
        "nonce": "0x4a0",
        "chainId": "0x5f0"
      },
      "additionalContracts": [],
      "isFixedGasLimit": false
    },
    {
      "hash": "0x729f3513121151e3d035120c032b7f33fd8cdd311b9c2d406dad61972dc39b01",
      "transactionType": "CALL",
      "contractName": null,
      "contractAddress": "0x1b97a19bb59d97728a245753e582feeee300c97f",
      "function": "upgradeAndCall(address,address,bytes)",
      "arguments": [
        "0xB13781B90cdA335C9E074ab5176fEB84228bED03",
        "0xe996AD9579C0EBbDE916A37F2381BB2099f5467E",
        "0x"
      ],
      "transaction": {
        "from": "0x2aa76c12368bc8aef4190400ef4af19fd0b4247c",
        "to": "0x1b97a19bb59d97728a245753e582feeee300c97f",
        "gas": "0xd4fc",
        "value": "0x0",
        "input": "0x9623609d000000000000000000000000b13781b90cda335c9e074ab5176feb84228bed03000000000000000000000000e996ad9579c0ebbde916a37f2381bb2099f5467e00000000000000000000000000000000000000000000000000000000000000600000000000000000000000000000000000000000000000000000000000000000",
        "nonce": "0x4a1",
        "chainId": "0x5f0"
      },
      "additionalContracts": [],
      "isFixedGasLimit": false
    },
    {
      "hash": "0x9e088a94f59dee52cf8cfdcb7f93d369fbc22a5cc9b79564eecb9387d7d52ad0",
      "transactionType": "CALL",
      "contractName": null,
      "contractAddress": "0x7b8da6cd14b171b5205a174650163facd1552553",
      "function": "upgradeAndCall(address,address,bytes)",
      "arguments": [
        "0xba6EE3916aCb840edF91C9f4240fCbc828335aA6",
        "0xe996AD9579C0EBbDE916A37F2381BB2099f5467E",
        "0x"
      ],
      "transaction": {
        "from": "0x2aa76c12368bc8aef4190400ef4af19fd0b4247c",
        "to": "0x7b8da6cd14b171b5205a174650163facd1552553",
        "gas": "0xd4fc",
        "value": "0x0",
        "input": "0x9623609d000000000000000000000000ba6ee3916acb840edf91c9f4240fcbc828335aa6000000000000000000000000e996ad9579c0ebbde916a37f2381bb2099f5467e00000000000000000000000000000000000000000000000000000000000000600000000000000000000000000000000000000000000000000000000000000000",
        "nonce": "0x4a2",
        "chainId": "0x5f0"
      },
      "additionalContracts": [],
      "isFixedGasLimit": false
    },
    {
      "hash": "0x3b5c28e44bb62497e46235d11304bf8eb8a53044ae8a2834e96abc0825a07744",
      "transactionType": "CALL",
      "contractName": null,
      "contractAddress": "0x5b7d3b4a7753d61d467d8cbb330f12a534d7e7c9",
      "function": "upgradeAndCall(address,address,bytes)",
      "arguments": [
        "0xbB06e3A4816bDf1D63B9437d6D7E929e7042a119",
        "0xe996AD9579C0EBbDE916A37F2381BB2099f5467E",
        "0x"
      ],
      "transaction": {
        "from": "0x2aa76c12368bc8aef4190400ef4af19fd0b4247c",
        "to": "0x5b7d3b4a7753d61d467d8cbb330f12a534d7e7c9",
        "gas": "0xd4fc",
        "value": "0x0",
        "input": "0x9623609d000000000000000000000000bb06e3a4816bdf1d63b9437d6d7e929e7042a119000000000000000000000000e996ad9579c0ebbde916a37f2381bb2099f5467e00000000000000000000000000000000000000000000000000000000000000600000000000000000000000000000000000000000000000000000000000000000",
        "nonce": "0x4a3",
        "chainId": "0x5f0"
      },
      "additionalContracts": [],
      "isFixedGasLimit": false
    },
    {
      "hash": "0xbf65690dca4380eaa337179ddeabaa0e23792e980fa5474daf32fa0ed51a6328",
      "transactionType": "CALL",
      "contractName": null,
      "contractAddress": "0xc4fcc1c1612fa24311c18bb1823b81deb72b4cee",
      "function": "upgradeAndCall(address,address,bytes)",
      "arguments": [
        "0xc71C1337eFc2F495327f21F093Aad49dCF81a2ec",
        "0xe996AD9579C0EBbDE916A37F2381BB2099f5467E",
        "0x"
      ],
      "transaction": {
        "from": "0xfdaa58e9465bba04001b507074febb2c917c6eaf",
        "to": "0xc4fcc1c1612fa24311c18bb1823b81deb72b4cee",
        "gas": "0xd4fc",
        "value": "0x0",
        "input": "0x9623609d000000000000000000000000c71c1337efc2f495327f21f093aad49dcf81a2ec000000000000000000000000e996ad9579c0ebbde916a37f2381bb2099f5467e00000000000000000000000000000000000000000000000000000000000000600000000000000000000000000000000000000000000000000000000000000000",
        "nonce": "0x6d",
        "chainId": "0x5f0"
      },
      "additionalContracts": [],
      "isFixedGasLimit": false
    },
    {
      "hash": "0x237ac27e83b497fc0b5cd8fa86b38e8dfac0e43d1ebc584db94aeb98db51e7ac",
      "transactionType": "CALL",
      "contractName": null,
      "contractAddress": "0xd1ca1ecf4621d0634e35b6ad6b1a41343ee8c58c",
      "function": "upgradeAndCall(address,address,bytes)",
      "arguments": [
        "0xdb3646C6642C535E60AD6BF6059a50467484F5A3",
        "0xe996AD9579C0EBbDE916A37F2381BB2099f5467E",
        "0x"
      ],
      "transaction": {
        "from": "0x2aa76c12368bc8aef4190400ef4af19fd0b4247c",
        "to": "0xd1ca1ecf4621d0634e35b6ad6b1a41343ee8c58c",
        "gas": "0xd4fc",
        "value": "0x0",
        "input": "0x9623609d000000000000000000000000db3646c6642c535e60ad6bf6059a50467484f5a3000000000000000000000000e996ad9579c0ebbde916a37f2381bb2099f5467e00000000000000000000000000000000000000000000000000000000000000600000000000000000000000000000000000000000000000000000000000000000",
        "nonce": "0x4a4",
        "chainId": "0x5f0"
      },
      "additionalContracts": [],
      "isFixedGasLimit": false
    },
    {
      "hash": "0x0641689198324d41efedf2a106499bca596b5d06db41b766ab42a60bfc224473",
      "transactionType": "CALL",
      "contractName": null,
      "contractAddress": "0x248cbe908e49471ab2278782f7d5adaf5d470df8",
      "function": "upgradeAndCall(address,address,bytes)",
      "arguments": [
        "0xe30C5d32feBf7846Ff9ed4A4f21E44dEA6Ee7A59",
        "0xe996AD9579C0EBbDE916A37F2381BB2099f5467E",
        "0x"
      ],
      "transaction": {
        "from": "0x2162d8b4662d73ca296bee28bfe02f6e2527f6b4",
        "to": "0x248cbe908e49471ab2278782f7d5adaf5d470df8",
        "gas": "0xd4fc",
        "value": "0x0",
        "input": "0x9623609d000000000000000000000000e30c5d32febf7846ff9ed4a4f21e44dea6ee7a59000000000000000000000000e996ad9579c0ebbde916a37f2381bb2099f5467e00000000000000000000000000000000000000000000000000000000000000600000000000000000000000000000000000000000000000000000000000000000",
        "nonce": "0x1be1e",
        "chainId": "0x5f0"
      },
      "additionalContracts": [],
      "isFixedGasLimit": false
    },
    {
      "hash": "0x26c8579e4035e00a3c34a27148ed78fb44377dc079fd4e9a325cbe1ce8905b88",
      "transactionType": "CALL",
      "contractName": null,
      "contractAddress": "0xbf8afe891610b62eeb9c8e1b8975f7441beb4f60",
      "function": "upgradeAndCall(address,address,bytes)",
      "arguments": [
        "0xE81712057e4751c6A039ff7e4845850F7B51F8BD",
        "0xe996AD9579C0EBbDE916A37F2381BB2099f5467E",
        "0x"
      ],
      "transaction": {
        "from": "0x2aa76c12368bc8aef4190400ef4af19fd0b4247c",
        "to": "0xbf8afe891610b62eeb9c8e1b8975f7441beb4f60",
        "gas": "0xd4fc",
        "value": "0x0",
        "input": "0x9623609d000000000000000000000000e81712057e4751c6a039ff7e4845850f7b51f8bd000000000000000000000000e996ad9579c0ebbde916a37f2381bb2099f5467e00000000000000000000000000000000000000000000000000000000000000600000000000000000000000000000000000000000000000000000000000000000",
        "nonce": "0x4a5",
        "chainId": "0x5f0"
      },
      "additionalContracts": [],
      "isFixedGasLimit": false
    },
    {
      "hash": "0x9572f5e8c9537f10305bf316034ea691db26b25beacc0593181c9379bf8e8ce7",
      "transactionType": "CALL",
      "contractName": null,
      "contractAddress": "0x011b11ed060815e937fde0afc522ab84f98c1ff5",
      "function": "upgradeAndCall(address,address,bytes)",
      "arguments": [
        "0xF637E481a25620B229E7991DF2E2d6A308aa8D2B",
        "0xe996AD9579C0EBbDE916A37F2381BB2099f5467E",
        "0x"
      ],
      "transaction": {
        "from": "0xfdaa58e9465bba04001b507074febb2c917c6eaf",
        "to": "0x011b11ed060815e937fde0afc522ab84f98c1ff5",
        "gas": "0xd4fc",
        "value": "0x0",
        "input": "0x9623609d000000000000000000000000f637e481a25620b229e7991df2e2d6a308aa8d2b000000000000000000000000e996ad9579c0ebbde916a37f2381bb2099f5467e00000000000000000000000000000000000000000000000000000000000000600000000000000000000000000000000000000000000000000000000000000000",
        "nonce": "0x6e",
        "chainId": "0x5f0"
      },
      "additionalContracts": [],
      "isFixedGasLimit": false
    },
    {
      "hash": "0x8d766108db77037729e8543c9161bfc33bb09a5ee57407b651e8126cac4be037",
      "transactionType": "CALL",
      "contractName": null,
      "contractAddress": "0x3c95625240ef744f5c272f74540f83ea1e48f229",
      "function": "upgradeAndCall(address,address,bytes)",
      "arguments": [
        "0xf7CbB2aB23a118257f050835b8D1380Ac2A0154E",
        "0xe996AD9579C0EBbDE916A37F2381BB2099f5467E",
        "0x"
      ],
      "transaction": {
        "from": "0x2aa76c12368bc8aef4190400ef4af19fd0b4247c",
        "to": "0x3c95625240ef744f5c272f74540f83ea1e48f229",
        "gas": "0xd4fc",
        "value": "0x0",
        "input": "0x9623609d000000000000000000000000f7cbb2ab23a118257f050835b8d1380ac2a0154e000000000000000000000000e996ad9579c0ebbde916a37f2381bb2099f5467e00000000000000000000000000000000000000000000000000000000000000600000000000000000000000000000000000000000000000000000000000000000",
        "nonce": "0x4a6",
        "chainId": "0x5f0"
      },
      "additionalContracts": [],
      "isFixedGasLimit": false
    },
    {
      "hash": "0x9cc0c286671dde7745e0afe402975ef60bad0abd0b05330530a8fb1dfea65046",
      "transactionType": "CALL",
      "contractName": null,
      "contractAddress": "0x0fbeb5dc06cf945aea317799520bafb939eca191",
      "function": "setPetSystem(address)",
      "arguments": [
        "0xFf66ebBEB2dA357b8f21E36c89340b5914dc7984"
      ],
      "transaction": {
        "from": "0x2162d8b4662d73ca296bee28bfe02f6e2527f6b4",
        "to": "0x0fbeb5dc06cf945aea317799520bafb939eca191",
        "gas": "0x11b9b",
        "value": "0x0",
        "input": "0x1e823bb7000000000000000000000000ff66ebbeb2da357b8f21e36c89340b5914dc7984",
        "nonce": "0x1be1f",
        "chainId": "0x5f0"
      },
      "additionalContracts": [],
      "isFixedGasLimit": false
    },
    {
      "hash": "0x1d4e461d014c80588e83de8e30adcf36af8b43fac73078184909a6fd78020e15",
      "transactionType": "CALL",
      "contractName": null,
      "contractAddress": "0x2fa5e870d2a8f35ff04b253c4580115ca5849634",
      "function": "setPetSystem(address)",
      "arguments": [
        "0xFf66ebBEB2dA357b8f21E36c89340b5914dc7984"
      ],
      "transaction": {
        "from": "0x2162d8b4662d73ca296bee28bfe02f6e2527f6b4",
        "to": "0x2fa5e870d2a8f35ff04b253c4580115ca5849634",
        "gas": "0x11b9b",
        "value": "0x0",
        "input": "0x1e823bb7000000000000000000000000ff66ebbeb2da357b8f21e36c89340b5914dc7984",
        "nonce": "0x1be20",
        "chainId": "0x5f0"
      },
      "additionalContracts": [],
      "isFixedGasLimit": false
    },
    {
      "hash": "0x55da3cd2d5f10b05974d454fa026b9bb01bfc6d70684557fec124a86cd5056c7",
      "transactionType": "CALL",
      "contractName": null,
      "contractAddress": "0x322628aa283d2fea7763365dd3dcbc4f76b21918",
      "function": "setPetSystem(address)",
      "arguments": [
        "0xFf66ebBEB2dA357b8f21E36c89340b5914dc7984"
      ],
      "transaction": {
        "from": "0x2162d8b4662d73ca296bee28bfe02f6e2527f6b4",
        "to": "0x322628aa283d2fea7763365dd3dcbc4f76b21918",
        "gas": "0x11b9b",
        "value": "0x0",
        "input": "0x1e823bb7000000000000000000000000ff66ebbeb2da357b8f21e36c89340b5914dc7984",
        "nonce": "0x1be21",
        "chainId": "0x5f0"
      },
      "additionalContracts": [],
      "isFixedGasLimit": false
    },
    {
      "hash": "0x18e1e13f1a383375c7697677996be13449a589aa441628091069f57e3757bcfe",
      "transactionType": "CALL",
      "contractName": null,
      "contractAddress": "0x332d717949fa0008f6c3538c48394b9d3e2cd69a",
      "function": "setPetSystem(address)",
      "arguments": [
        "0xFf66ebBEB2dA357b8f21E36c89340b5914dc7984"
      ],
      "transaction": {
        "from": "0x2162d8b4662d73ca296bee28bfe02f6e2527f6b4",
        "to": "0x332d717949fa0008f6c3538c48394b9d3e2cd69a",
        "gas": "0x11b9b",
        "value": "0x0",
        "input": "0x1e823bb7000000000000000000000000ff66ebbeb2da357b8f21e36c89340b5914dc7984",
        "nonce": "0x1be22",
        "chainId": "0x5f0"
      },
      "additionalContracts": [],
      "isFixedGasLimit": false
    },
    {
      "hash": "0xb24059fdbb5a789f57bfd2fde7db953a98ffea223702d17311e630632df29892",
      "transactionType": "CALL",
      "contractName": null,
      "contractAddress": "0x36794b6c28234257d0787e8f4774822b75dcbcd9",
      "function": "setPetSystem(address)",
      "arguments": [
        "0xFf66ebBEB2dA357b8f21E36c89340b5914dc7984"
      ],
      "transaction": {
        "from": "0x2162d8b4662d73ca296bee28bfe02f6e2527f6b4",
        "to": "0x36794b6c28234257d0787e8f4774822b75dcbcd9",
        "gas": "0x11b9b",
        "value": "0x0",
        "input": "0x1e823bb7000000000000000000000000ff66ebbeb2da357b8f21e36c89340b5914dc7984",
        "nonce": "0x1be23",
        "chainId": "0x5f0"
      },
      "additionalContracts": [],
      "isFixedGasLimit": false
    },
    {
      "hash": "0x99cf3967cb768f41465b0dab45175d26b7846091a1bae5ec1af1061318c44183",
      "transactionType": "CALL",
      "contractName": null,
      "contractAddress": "0x36f38f8e14099967d97e9fe44014924a8b6b680c",
      "function": "setPetSystem(address)",
      "arguments": [
        "0xFf66ebBEB2dA357b8f21E36c89340b5914dc7984"
      ],
      "transaction": {
        "from": "0x2162d8b4662d73ca296bee28bfe02f6e2527f6b4",
        "to": "0x36f38f8e14099967d97e9fe44014924a8b6b680c",
        "gas": "0x11b9b",
        "value": "0x0",
        "input": "0x1e823bb7000000000000000000000000ff66ebbeb2da357b8f21e36c89340b5914dc7984",
        "nonce": "0x1be24",
        "chainId": "0x5f0"
      },
      "additionalContracts": [],
      "isFixedGasLimit": false
    },
    {
      "hash": "0x185730515ef8ff9c29f367949dea473e857ac1a5cf4aded5f9de20bc3278d091",
      "transactionType": "CALL",
      "contractName": null,
      "contractAddress": "0x378b494fc06b031b02b3c7d9211bb75d2d2c0bbe",
      "function": "setPetSystem(address)",
      "arguments": [
        "0xFf66ebBEB2dA357b8f21E36c89340b5914dc7984"
      ],
      "transaction": {
        "from": "0x2162d8b4662d73ca296bee28bfe02f6e2527f6b4",
        "to": "0x378b494fc06b031b02b3c7d9211bb75d2d2c0bbe",
        "gas": "0x11b9b",
        "value": "0x0",
        "input": "0x1e823bb7000000000000000000000000ff66ebbeb2da357b8f21e36c89340b5914dc7984",
        "nonce": "0x1be25",
        "chainId": "0x5f0"
      },
      "additionalContracts": [],
      "isFixedGasLimit": false
    },
    {
      "hash": "0x4bfc4373d7156b180cf0585487b181494cb54f226f1d91266dc800e2e920cf32",
      "transactionType": "CALL",
      "contractName": null,
      "contractAddress": "0x37f48e36422dc7b507c4bd34ac3ea8c4474b0b7f",
      "function": "setPetSystem(address)",
      "arguments": [
        "0xFf66ebBEB2dA357b8f21E36c89340b5914dc7984"
      ],
      "transaction": {
        "from": "0x2162d8b4662d73ca296bee28bfe02f6e2527f6b4",
        "to": "0x37f48e36422dc7b507c4bd34ac3ea8c4474b0b7f",
        "gas": "0x11b9b",
        "value": "0x0",
        "input": "0x1e823bb7000000000000000000000000ff66ebbeb2da357b8f21e36c89340b5914dc7984",
        "nonce": "0x1be26",
        "chainId": "0x5f0"
      },
      "additionalContracts": [],
      "isFixedGasLimit": false
    },
    {
      "hash": "0xee8af49523285dc12fd96597873df0ad9d9fd6bfc9f3b48d0b9a0af2bc2359fc",
      "transactionType": "CALL",
      "contractName": null,
      "contractAddress": "0x395e20247663a32fe177adb4119d3998d0004abc",
      "function": "setPetSystem(address)",
      "arguments": [
        "0xFf66ebBEB2dA357b8f21E36c89340b5914dc7984"
      ],
      "transaction": {
        "from": "0x2162d8b4662d73ca296bee28bfe02f6e2527f6b4",
        "to": "0x395e20247663a32fe177adb4119d3998d0004abc",
        "gas": "0x11b9b",
        "value": "0x0",
        "input": "0x1e823bb7000000000000000000000000ff66ebbeb2da357b8f21e36c89340b5914dc7984",
        "nonce": "0x1be27",
        "chainId": "0x5f0"
      },
      "additionalContracts": [],
      "isFixedGasLimit": false
    },
    {
      "hash": "0xfe260886397f2ee9e8de5716069c1e8b184b4f17f127b6d2fe3a76e44a429fa8",
      "transactionType": "CALL",
      "contractName": null,
      "contractAddress": "0x39a43052de5e15f4b7a08d0f8cda209fdf239bf1",
      "function": "setPetSystem(address)",
      "arguments": [
        "0xFf66ebBEB2dA357b8f21E36c89340b5914dc7984"
      ],
      "transaction": {
        "from": "0x2162d8b4662d73ca296bee28bfe02f6e2527f6b4",
        "to": "0x39a43052de5e15f4b7a08d0f8cda209fdf239bf1",
        "gas": "0x11b9b",
        "value": "0x0",
        "input": "0x1e823bb7000000000000000000000000ff66ebbeb2da357b8f21e36c89340b5914dc7984",
        "nonce": "0x1be28",
        "chainId": "0x5f0"
      },
      "additionalContracts": [],
      "isFixedGasLimit": false
    },
    {
      "hash": "0xc1d86b2ed00f68e39507b606560bb1039fe41c88dc6167f950805e5463ca3ebe",
      "transactionType": "CALL",
      "contractName": null,
      "contractAddress": "0x41a00d28b99508e67c15a289601bd47fb90d3b7a",
      "function": "setPetSystem(address)",
      "arguments": [
        "0xFf66ebBEB2dA357b8f21E36c89340b5914dc7984"
      ],
      "transaction": {
        "from": "0x2162d8b4662d73ca296bee28bfe02f6e2527f6b4",
        "to": "0x41a00d28b99508e67c15a289601bd47fb90d3b7a",
        "gas": "0x11b9b",
        "value": "0x0",
        "input": "0x1e823bb7000000000000000000000000ff66ebbeb2da357b8f21e36c89340b5914dc7984",
        "nonce": "0x1be29",
        "chainId": "0x5f0"
      },
      "additionalContracts": [],
      "isFixedGasLimit": false
    },
    {
      "hash": "0x07e0d875e2f8f7402cdac192c81b6834029d87170ce62a641846efd1e7d032c0",
      "transactionType": "CALL",
      "contractName": null,
      "contractAddress": "0x4c0d82fcd7dfd8ec6f89be4180d16e2fe47e8ab8",
      "function": "setPetSystem(address)",
      "arguments": [
        "0xFf66ebBEB2dA357b8f21E36c89340b5914dc7984"
      ],
      "transaction": {
        "from": "0x2162d8b4662d73ca296bee28bfe02f6e2527f6b4",
        "to": "0x4c0d82fcd7dfd8ec6f89be4180d16e2fe47e8ab8",
        "gas": "0x11b9b",
        "value": "0x0",
        "input": "0x1e823bb7000000000000000000000000ff66ebbeb2da357b8f21e36c89340b5914dc7984",
        "nonce": "0x1be2a",
        "chainId": "0x5f0"
      },
      "additionalContracts": [],
      "isFixedGasLimit": false
    },
    {
      "hash": "0x0b047438d7412cb6ef66e523085aef4da1df988e224a19de4de44ee72df7f4af",
      "transactionType": "CALL",
      "contractName": null,
      "contractAddress": "0x4dcda9e6a873163da348156850201123a23f0200",
      "function": "setPetSystem(address)",
      "arguments": [
        "0xFf66ebBEB2dA357b8f21E36c89340b5914dc7984"
      ],
      "transaction": {
        "from": "0x2162d8b4662d73ca296bee28bfe02f6e2527f6b4",
        "to": "0x4dcda9e6a873163da348156850201123a23f0200",
        "gas": "0x11b9b",
        "value": "0x0",
        "input": "0x1e823bb7000000000000000000000000ff66ebbeb2da357b8f21e36c89340b5914dc7984",
        "nonce": "0x1be2b",
        "chainId": "0x5f0"
      },
      "additionalContracts": [],
      "isFixedGasLimit": false
    },
    {
      "hash": "0xebc1e4925a7a0867db9f33d6d32a2904ae6c39cb1cb28402b3b2b86894204430",
      "transactionType": "CALL",
      "contractName": null,
      "contractAddress": "0x54ac5950e3c814dd46eda2ab79ee1d058c40b5be",
      "function": "setPetSystem(address)",
      "arguments": [
        "0xFf66ebBEB2dA357b8f21E36c89340b5914dc7984"
      ],
      "transaction": {
        "from": "0x2162d8b4662d73ca296bee28bfe02f6e2527f6b4",
        "to": "0x54ac5950e3c814dd46eda2ab79ee1d058c40b5be",
        "gas": "0x11b9b",
        "value": "0x0",
        "input": "0x1e823bb7000000000000000000000000ff66ebbeb2da357b8f21e36c89340b5914dc7984",
        "nonce": "0x1be2c",
        "chainId": "0x5f0"
      },
      "additionalContracts": [],
      "isFixedGasLimit": false
    },
    {
      "hash": "0xc32ba75815331eb1b9281bd8c04f50f54a574a0c7438c5435160ce28963ef199",
      "transactionType": "CALL",
      "contractName": null,
      "contractAddress": "0x5e13237887f04f48d1b0ea2b6c88abb1dda1bc55",
      "function": "setPetSystem(address)",
      "arguments": [
        "0xFf66ebBEB2dA357b8f21E36c89340b5914dc7984"
      ],
      "transaction": {
        "from": "0x2162d8b4662d73ca296bee28bfe02f6e2527f6b4",
        "to": "0x5e13237887f04f48d1b0ea2b6c88abb1dda1bc55",
        "gas": "0x11b9b",
        "value": "0x0",
        "input": "0x1e823bb7000000000000000000000000ff66ebbeb2da357b8f21e36c89340b5914dc7984",
        "nonce": "0x1be2d",
        "chainId": "0x5f0"
      },
      "additionalContracts": [],
      "isFixedGasLimit": false
    },
    {
      "hash": "0xb4ee53becbdf524dd965af6f9037d7ee39f63ff367613787b54c92cef3aeaee4",
      "transactionType": "CALL",
      "contractName": null,
      "contractAddress": "0x7355939d127b3000a25d51147906401621c5b896",
      "function": "setPetSystem(address)",
      "arguments": [
        "0xFf66ebBEB2dA357b8f21E36c89340b5914dc7984"
      ],
      "transaction": {
        "from": "0x2162d8b4662d73ca296bee28bfe02f6e2527f6b4",
        "to": "0x7355939d127b3000a25d51147906401621c5b896",
        "gas": "0x11b9b",
        "value": "0x0",
        "input": "0x1e823bb7000000000000000000000000ff66ebbeb2da357b8f21e36c89340b5914dc7984",
        "nonce": "0x1be2e",
        "chainId": "0x5f0"
      },
      "additionalContracts": [],
      "isFixedGasLimit": false
    },
    {
      "hash": "0xf9fe37dabde91dc3a0f96193cdf9f079c6b0362aadb44b26cf05e472f28d13cf",
      "transactionType": "CALL",
      "contractName": null,
      "contractAddress": "0x833505612a179a9d3bdaba7e32ea81d1018e5696",
      "function": "setPetSystem(address)",
      "arguments": [
        "0xFf66ebBEB2dA357b8f21E36c89340b5914dc7984"
      ],
      "transaction": {
        "from": "0x2162d8b4662d73ca296bee28bfe02f6e2527f6b4",
        "to": "0x833505612a179a9d3bdaba7e32ea81d1018e5696",
        "gas": "0x11b9b",
        "value": "0x0",
        "input": "0x1e823bb7000000000000000000000000ff66ebbeb2da357b8f21e36c89340b5914dc7984",
        "nonce": "0x1be2f",
        "chainId": "0x5f0"
      },
      "additionalContracts": [],
      "isFixedGasLimit": false
    },
    {
      "hash": "0xe54f6d7a604b6209dc7666c85a739d95361968e04811391804921395cf4c5e93",
      "transactionType": "CALL",
      "contractName": null,
      "contractAddress": "0x84cc168d0c682085951451c9e5b8da987c4a23ba",
      "function": "setPetSystem(address)",
      "arguments": [
        "0xFf66ebBEB2dA357b8f21E36c89340b5914dc7984"
      ],
      "transaction": {
        "from": "0x2162d8b4662d73ca296bee28bfe02f6e2527f6b4",
        "to": "0x84cc168d0c682085951451c9e5b8da987c4a23ba",
        "gas": "0x11b9b",
        "value": "0x0",
        "input": "0x1e823bb7000000000000000000000000ff66ebbeb2da357b8f21e36c89340b5914dc7984",
        "nonce": "0x1be30",
        "chainId": "0x5f0"
      },
      "additionalContracts": [],
      "isFixedGasLimit": false
    },
    {
      "hash": "0xd666d92b6822a5dfad79c5a6e955bc317dd877742a67343e676060ba4f99c1f2",
      "transactionType": "CALL",
      "contractName": null,
      "contractAddress": "0x907cd078bdf8434de15f57ee5cc703142367d8f5",
      "function": "setPetSystem(address)",
      "arguments": [
        "0xFf66ebBEB2dA357b8f21E36c89340b5914dc7984"
      ],
      "transaction": {
        "from": "0x2162d8b4662d73ca296bee28bfe02f6e2527f6b4",
        "to": "0x907cd078bdf8434de15f57ee5cc703142367d8f5",
        "gas": "0x11b9b",
        "value": "0x0",
        "input": "0x1e823bb7000000000000000000000000ff66ebbeb2da357b8f21e36c89340b5914dc7984",
        "nonce": "0x1be31",
        "chainId": "0x5f0"
      },
      "additionalContracts": [],
      "isFixedGasLimit": false
    },
    {
      "hash": "0xfd226fbbdb1da7581cbc486b3384010d60f03a0431d1386681ec1f6065b685f7",
      "transactionType": "CALL",
      "contractName": null,
      "contractAddress": "0x9a055c017836361351dcbd6a1f40cfc361e8497a",
      "function": "setPetSystem(address)",
      "arguments": [
        "0xFf66ebBEB2dA357b8f21E36c89340b5914dc7984"
      ],
      "transaction": {
        "from": "0x2162d8b4662d73ca296bee28bfe02f6e2527f6b4",
        "to": "0x9a055c017836361351dcbd6a1f40cfc361e8497a",
        "gas": "0x11b9b",
        "value": "0x0",
        "input": "0x1e823bb7000000000000000000000000ff66ebbeb2da357b8f21e36c89340b5914dc7984",
        "nonce": "0x1be32",
        "chainId": "0x5f0"
      },
      "additionalContracts": [],
      "isFixedGasLimit": false
    },
    {
      "hash": "0x50336f8497d8e974501b457fecbf38a0785e59aebaa0bce8daebbed509f8f82a",
      "transactionType": "CALL",
      "contractName": null,
      "contractAddress": "0x9c17373c6990281e707ea82dec26093129747d33",
      "function": "setPetSystem(address)",
      "arguments": [
        "0xFf66ebBEB2dA357b8f21E36c89340b5914dc7984"
      ],
      "transaction": {
        "from": "0x2162d8b4662d73ca296bee28bfe02f6e2527f6b4",
        "to": "0x9c17373c6990281e707ea82dec26093129747d33",
        "gas": "0x11b9b",
        "value": "0x0",
        "input": "0x1e823bb7000000000000000000000000ff66ebbeb2da357b8f21e36c89340b5914dc7984",
        "nonce": "0x1be33",
        "chainId": "0x5f0"
      },
      "additionalContracts": [],
      "isFixedGasLimit": false
    },
    {
      "hash": "0x8cf84cf8492106f800ce69d1d06b8ae01b721fccdfd79968f098219fc8d59566",
      "transactionType": "CALL",
      "contractName": null,
      "contractAddress": "0xaaa1bab87801cb6f0a12a85b39ba2a9f32ca93de",
      "function": "setPetSystem(address)",
      "arguments": [
        "0xFf66ebBEB2dA357b8f21E36c89340b5914dc7984"
      ],
      "transaction": {
        "from": "0x2162d8b4662d73ca296bee28bfe02f6e2527f6b4",
        "to": "0xaaa1bab87801cb6f0a12a85b39ba2a9f32ca93de",
        "gas": "0x11b9b",
        "value": "0x0",
        "input": "0x1e823bb7000000000000000000000000ff66ebbeb2da357b8f21e36c89340b5914dc7984",
        "nonce": "0x1be34",
        "chainId": "0x5f0"
      },
      "additionalContracts": [],
      "isFixedGasLimit": false
    },
    {
      "hash": "0xe5ce10e46d9bc19ccd121440dd24c1fdd338f09b0c5f723269af7df9ce35509f",
      "transactionType": "CALL",
      "contractName": null,
      "contractAddress": "0xb13781b90cda335c9e074ab5176feb84228bed03",
      "function": "setPetSystem(address)",
      "arguments": [
        "0xFf66ebBEB2dA357b8f21E36c89340b5914dc7984"
      ],
      "transaction": {
        "from": "0x2162d8b4662d73ca296bee28bfe02f6e2527f6b4",
        "to": "0xb13781b90cda335c9e074ab5176feb84228bed03",
        "gas": "0x11b9b",
        "value": "0x0",
        "input": "0x1e823bb7000000000000000000000000ff66ebbeb2da357b8f21e36c89340b5914dc7984",
        "nonce": "0x1be35",
        "chainId": "0x5f0"
      },
      "additionalContracts": [],
      "isFixedGasLimit": false
    },
    {
      "hash": "0xf41c3fd2cbdad707427ef9ed55e828cb3da9dff5a283b9fd96934b285cb8d2b1",
      "transactionType": "CALL",
      "contractName": null,
      "contractAddress": "0xba6ee3916acb840edf91c9f4240fcbc828335aa6",
      "function": "setPetSystem(address)",
      "arguments": [
        "0xFf66ebBEB2dA357b8f21E36c89340b5914dc7984"
      ],
      "transaction": {
        "from": "0x2162d8b4662d73ca296bee28bfe02f6e2527f6b4",
        "to": "0xba6ee3916acb840edf91c9f4240fcbc828335aa6",
        "gas": "0x11b9b",
        "value": "0x0",
        "input": "0x1e823bb7000000000000000000000000ff66ebbeb2da357b8f21e36c89340b5914dc7984",
        "nonce": "0x1be36",
        "chainId": "0x5f0"
      },
      "additionalContracts": [],
      "isFixedGasLimit": false
    },
    {
      "hash": "0x3ba7f2067f9b07a75434e3d5703a34f3c58536388fb86000d87b480172b4c058",
      "transactionType": "CALL",
      "contractName": null,
      "contractAddress": "0xbb06e3a4816bdf1d63b9437d6d7e929e7042a119",
      "function": "setPetSystem(address)",
      "arguments": [
        "0xFf66ebBEB2dA357b8f21E36c89340b5914dc7984"
      ],
      "transaction": {
        "from": "0x2162d8b4662d73ca296bee28bfe02f6e2527f6b4",
        "to": "0xbb06e3a4816bdf1d63b9437d6d7e929e7042a119",
        "gas": "0x11b9b",
        "value": "0x0",
        "input": "0x1e823bb7000000000000000000000000ff66ebbeb2da357b8f21e36c89340b5914dc7984",
        "nonce": "0x1be37",
        "chainId": "0x5f0"
      },
      "additionalContracts": [],
      "isFixedGasLimit": false
    },
    {
      "hash": "0x6fef0fafbd4738c0653e13e2f4cd809f8423ad0bdc6e854658417abaa199b498",
      "transactionType": "CALL",
      "contractName": null,
      "contractAddress": "0xc71c1337efc2f495327f21f093aad49dcf81a2ec",
      "function": "setPetSystem(address)",
      "arguments": [
        "0xFf66ebBEB2dA357b8f21E36c89340b5914dc7984"
      ],
      "transaction": {
        "from": "0x2162d8b4662d73ca296bee28bfe02f6e2527f6b4",
        "to": "0xc71c1337efc2f495327f21f093aad49dcf81a2ec",
        "gas": "0x11b9b",
        "value": "0x0",
        "input": "0x1e823bb7000000000000000000000000ff66ebbeb2da357b8f21e36c89340b5914dc7984",
        "nonce": "0x1be38",
        "chainId": "0x5f0"
      },
      "additionalContracts": [],
      "isFixedGasLimit": false
    },
    {
      "hash": "0x65c7f539647b43df37e47184c7bac990b21f005991a23fdf361c9152a2fc0401",
      "transactionType": "CALL",
      "contractName": null,
      "contractAddress": "0xdb3646c6642c535e60ad6bf6059a50467484f5a3",
      "function": "setPetSystem(address)",
      "arguments": [
        "0xFf66ebBEB2dA357b8f21E36c89340b5914dc7984"
      ],
      "transaction": {
        "from": "0x2162d8b4662d73ca296bee28bfe02f6e2527f6b4",
        "to": "0xdb3646c6642c535e60ad6bf6059a50467484f5a3",
        "gas": "0x11b9b",
        "value": "0x0",
        "input": "0x1e823bb7000000000000000000000000ff66ebbeb2da357b8f21e36c89340b5914dc7984",
        "nonce": "0x1be39",
        "chainId": "0x5f0"
      },
      "additionalContracts": [],
      "isFixedGasLimit": false
    },
    {
      "hash": "0x047feb281ceb65ad5e95a4493c9efda3d4a99ab0fccad9bf3a282ed58a8bc1c5",
      "transactionType": "CALL",
      "contractName": null,
      "contractAddress": "0xe30c5d32febf7846ff9ed4a4f21e44dea6ee7a59",
      "function": "setPetSystem(address)",
      "arguments": [
        "0xFf66ebBEB2dA357b8f21E36c89340b5914dc7984"
      ],
      "transaction": {
        "from": "0x2162d8b4662d73ca296bee28bfe02f6e2527f6b4",
        "to": "0xe30c5d32febf7846ff9ed4a4f21e44dea6ee7a59",
        "gas": "0x11b9b",
        "value": "0x0",
        "input": "0x1e823bb7000000000000000000000000ff66ebbeb2da357b8f21e36c89340b5914dc7984",
        "nonce": "0x1be3a",
        "chainId": "0x5f0"
      },
      "additionalContracts": [],
      "isFixedGasLimit": false
    },
    {
      "hash": "0x005073c50a2ef04339a0458aea97cde0730ebe99558dc58463cfd7d50f8be932",
      "transactionType": "CALL",
      "contractName": null,
      "contractAddress": "0xe81712057e4751c6a039ff7e4845850f7b51f8bd",
      "function": "setPetSystem(address)",
      "arguments": [
        "0xFf66ebBEB2dA357b8f21E36c89340b5914dc7984"
      ],
      "transaction": {
        "from": "0x2162d8b4662d73ca296bee28bfe02f6e2527f6b4",
        "to": "0xe81712057e4751c6a039ff7e4845850f7b51f8bd",
        "gas": "0x11b9b",
        "value": "0x0",
        "input": "0x1e823bb7000000000000000000000000ff66ebbeb2da357b8f21e36c89340b5914dc7984",
        "nonce": "0x1be3b",
        "chainId": "0x5f0"
      },
      "additionalContracts": [],
      "isFixedGasLimit": false
    },
    {
      "hash": "0x52161a0cd86965d8503930fa33bbc3ed0e2701d036bec91a3eff6eea3c1562ae",
      "transactionType": "CALL",
      "contractName": null,
      "contractAddress": "0xf637e481a25620b229e7991df2e2d6a308aa8d2b",
      "function": "setPetSystem(address)",
      "arguments": [
        "0xFf66ebBEB2dA357b8f21E36c89340b5914dc7984"
      ],
      "transaction": {
        "from": "0x2162d8b4662d73ca296bee28bfe02f6e2527f6b4",
        "to": "0xf637e481a25620b229e7991df2e2d6a308aa8d2b",
        "gas": "0x11b9b",
        "value": "0x0",
        "input": "0x1e823bb7000000000000000000000000ff66ebbeb2da357b8f21e36c89340b5914dc7984",
        "nonce": "0x1be3c",
        "chainId": "0x5f0"
      },
      "additionalContracts": [],
      "isFixedGasLimit": false
    },
    {
      "hash": "0xbca9a9f28e2bad4433cb4120fd1bd37d90b295cb87d347177051791efc3e3bc9",
      "transactionType": "CALL",
      "contractName": null,
      "contractAddress": "0xf7cbb2ab23a118257f050835b8d1380ac2a0154e",
      "function": "setPetSystem(address)",
      "arguments": [
        "0xFf66ebBEB2dA357b8f21E36c89340b5914dc7984"
      ],
      "transaction": {
        "from": "0x2162d8b4662d73ca296bee28bfe02f6e2527f6b4",
        "to": "0xf7cbb2ab23a118257f050835b8d1380ac2a0154e",
        "gas": "0x11b9b",
        "value": "0x0",
        "input": "0x1e823bb7000000000000000000000000ff66ebbeb2da357b8f21e36c89340b5914dc7984",
        "nonce": "0x1be3d",
        "chainId": "0x5f0"
      },
      "additionalContracts": [],
      "isFixedGasLimit": false
    }
  ],
  "receipts": [
    {
      "status": "0x1",
      "cumulativeGasUsed": "0x91a2",
      "logs": [
        {
          "address": "0x0fbeb5dc06cf945aea317799520bafb939eca191",
          "topics": [
            "0xbc7cd75a20ee27fd9adebab32041f755214dbc6bffa90cc0225b39da2e5c2d3b",
            "0x000000000000000000000000e996ad9579c0ebbde916a37f2381bb2099f5467e"
          ],
          "data": "0x",
          "blockHash": "0xc5aca777e2c52a689e5e4e08cb636fd42ea1b7dc73c339883bf937329fe3ee7e",
          "blockNumber": "0x920ab3",
          "transactionHash": "0x53cfec8c0b8ffe32eeb5198c15840036294e9585a81e820d834a6a0f553d8cc7",
          "transactionIndex": "0x0",
          "logIndex": "0x0",
          "removed": false
        }
      ],
      "logsBloom": "0x00000000000000000000000000000000400000000000000000000000000000000000000000000000000000000000000010000000000000000000000000000000000400000000000000000000000002000000000000020000000000000000000000000000000000000000000000000000000100000000000000000000000000000000000000000000000000000000000000000000000000000010000000000000000000000000000000000000000000000000000000000000000000000000000000000020000000000000000000000000000000000000000000000000000000000008000000000000000000000000000000000000000000000000000000000000",
      "type": "0x2",
      "transactionHash": "0x53cfec8c0b8ffe32eeb5198c15840036294e9585a81e820d834a6a0f553d8cc7",
      "transactionIndex": "0x0",
      "blockHash": "0xc5aca777e2c52a689e5e4e08cb636fd42ea1b7dc73c339883bf937329fe3ee7e",
      "blockNumber": "0x920ab3",
      "gasUsed": "0x91a2",
      "effectiveGasPrice": "0x37e11d6f9",
      "from": "0x2aa76c12368bc8aef4190400ef4af19fd0b4247c",
      "to": "0x6fc712dde9f89a11bc3764b014100d5969c8601d",
      "contractAddress": null
    },
    {
      "status": "0x1",
      "cumulativeGasUsed": "0x91a2",
      "logs": [
        {
          "address": "0x2fa5e870d2a8f35ff04b253c4580115ca5849634",
          "topics": [
            "0xbc7cd75a20ee27fd9adebab32041f755214dbc6bffa90cc0225b39da2e5c2d3b",
            "0x000000000000000000000000e996ad9579c0ebbde916a37f2381bb2099f5467e"
          ],
          "data": "0x",
          "blockHash": "0xec2e117a04338174cf0d929c61fef065c2bd68f0656d8447c71b56838aedd0fb",
          "blockNumber": "0x920ab5",
          "transactionHash": "0xaf85520e8f5e1fe0155820968a7c835165e9fef202f418469e449a18f0a5ddcd",
          "transactionIndex": "0x0",
          "logIndex": "0x0",
          "removed": false
        }
      ],
      "logsBloom": "0x00000000000000000000000000000000400000000000000000000000000000000000000000000000000000000000000010000000000000000000000000000000000000000000000000000000000002000000000000020000000000000000000000000000000010000000001000000000000000000000000000000000000000000000000000000000000000000000000000000000000000000000000000000000000000000000000000000000000000000000000000000000000000000000000000000020002000000000000000000000000000000000000000000000000000000008000000000000000000000000000000000000000000000000000000000000",
      "type": "0x2",
      "transactionHash": "0xaf85520e8f5e1fe0155820968a7c835165e9fef202f418469e449a18f0a5ddcd",
      "transactionIndex": "0x0",
      "blockHash": "0xec2e117a04338174cf0d929c61fef065c2bd68f0656d8447c71b56838aedd0fb",
      "blockNumber": "0x920ab5",
      "gasUsed": "0x91a2",
      "effectiveGasPrice": "0x37e11d6f9",
      "from": "0xfdaa58e9465bba04001b507074febb2c917c6eaf",
      "to": "0x94262fb36f2f41c13c718651ecc9121877d80316",
      "contractAddress": null
    },
    {
      "status": "0x1",
      "cumulativeGasUsed": "0x91a2",
      "logs": [
        {
          "address": "0x322628aa283d2fea7763365dd3dcbc4f76b21918",
          "topics": [
            "0xbc7cd75a20ee27fd9adebab32041f755214dbc6bffa90cc0225b39da2e5c2d3b",
            "0x000000000000000000000000e996ad9579c0ebbde916a37f2381bb2099f5467e"
          ],
          "data": "0x",
          "blockHash": "0xf64b791690ec77c921ce7d5165721f1640c09f82a7f85e215561d1e337cbc3c8",
          "blockNumber": "0x920ab7",
          "transactionHash": "0x60e7b9eb2200ccfad91cc534d6e5cc0cd82a2b59fad6ba7f2f3e4720c687a789",
          "transactionIndex": "0x0",
          "logIndex": "0x0",
          "removed": false
        }
      ],
      "logsBloom": "0x00000000000000000001000000000000400000000000000000000000000000000000000000000000000000000000000010000000000000000000000000000000000000040000000000000000000002000000000000020000000000000000000000000000000000000000000000000000000000000000000000000000000000000000000000000000000000000000000000000000000000000000000000000000000000000000000000000000000000000000000000000000000000000000000000000020000000000000000000000000000000000000000000000000000000000008000000000000000000000000000000000000000000000000000200000000",
      "type": "0x2",
      "transactionHash": "0x60e7b9eb2200ccfad91cc534d6e5cc0cd82a2b59fad6ba7f2f3e4720c687a789",
      "transactionIndex": "0x0",
      "blockHash": "0xf64b791690ec77c921ce7d5165721f1640c09f82a7f85e215561d1e337cbc3c8",
      "blockNumber": "0x920ab7",
      "gasUsed": "0x91a2",
      "effectiveGasPrice": "0x37e11d6f9",
      "from": "0x2162d8b4662d73ca296bee28bfe02f6e2527f6b4",
      "to": "0xf6b623505e5ae2e38eb476ca9261aa6e25b5a077",
      "contractAddress": null
    },
    {
      "status": "0x1",
      "cumulativeGasUsed": "0x9196",
      "logs": [
        {
          "address": "0x332d717949fa0008f6c3538c48394b9d3e2cd69a",
          "topics": [
            "0xbc7cd75a20ee27fd9adebab32041f755214dbc6bffa90cc0225b39da2e5c2d3b",
            "0x000000000000000000000000e996ad9579c0ebbde916a37f2381bb2099f5467e"
          ],
          "data": "0x",
          "blockHash": "0x1224f374b584c3891335d07a016f25ecf447b7bee4ae904b9f8314485f7b80ee",
          "blockNumber": "0x920ab9",
          "transactionHash": "0xbeebed55aceb4e4c14e65a847b95f89809b6e6f372c3cc7be84edf77904ed66e",
          "transactionIndex": "0x0",
          "logIndex": "0x0",
          "removed": false
        }
      ],
      "logsBloom": "0x00000000000000000000000000000000400000000000000000000000000000000000000000000000000000000000000010000000000000000000000000000000000000000000000000000000000002000000000000020000000000000000000000000000000000000000000000000000000000000000000000000000000000000000000000000000000000000000000000000000000040000000000000000000000000000000000000000000000000000000000080000000000000000000000000000020000000000000000000000000000000000000000000000000000000000008000000000000000400000000000000000000000000000000000000000000",
      "type": "0x2",
      "transactionHash": "0xbeebed55aceb4e4c14e65a847b95f89809b6e6f372c3cc7be84edf77904ed66e",
      "transactionIndex": "0x0",
      "blockHash": "0x1224f374b584c3891335d07a016f25ecf447b7bee4ae904b9f8314485f7b80ee",
      "blockNumber": "0x920ab9",
      "gasUsed": "0x9196",
      "effectiveGasPrice": "0x37e11d6f9",
      "from": "0x2162d8b4662d73ca296bee28bfe02f6e2527f6b4",
      "to": "0x2ea726070ed3677fe9e85d907887757cb5bea2e6",
      "contractAddress": null
    },
    {
      "status": "0x1",
      "cumulativeGasUsed": "0x91a2",
      "logs": [
        {
          "address": "0x36794b6c28234257d0787e8f4774822b75dcbcd9",
          "topics": [
            "0xbc7cd75a20ee27fd9adebab32041f755214dbc6bffa90cc0225b39da2e5c2d3b",
            "0x000000000000000000000000e996ad9579c0ebbde916a37f2381bb2099f5467e"
          ],
          "data": "0x",
          "blockHash": "0x7d3864182a085bafef88b20842ccfcab2eabc3cc0c06d612db0fe7ea15ecf43a",
          "blockNumber": "0x920abb",
          "transactionHash": "0x7fac64aba16b5156af5183d47297ad721dfd155d40cda36570474cd4a4b3dc74",
          "transactionIndex": "0x0",
          "logIndex": "0x0",
          "removed": false
        }
      ],
      "logsBloom": "0x00000000000000000000000000000000400000000000000000000000000000000000000000000000000000000000000010000000000000000000000000000000000000000000000000000000000002000000000000020000000000000000000000000000000000000000000000000000000000000000000000000000000000000000000000000000000000000000000000000000000000000000000000000000000000000000000000000004000000000000000000000000000000000000000000000020000000000000000010000000000000000040000000000000000000000008000000000000000000000000000000000000000000000000000000000000",
      "type": "0x2",
      "transactionHash": "0x7fac64aba16b5156af5183d47297ad721dfd155d40cda36570474cd4a4b3dc74",
      "transactionIndex": "0x0",
      "blockHash": "0x7d3864182a085bafef88b20842ccfcab2eabc3cc0c06d612db0fe7ea15ecf43a",
      "blockNumber": "0x920abb",
      "gasUsed": "0x91a2",
      "effectiveGasPrice": "0x37e11d6f9",
      "from": "0xfdaa58e9465bba04001b507074febb2c917c6eaf",
      "to": "0x4d6c0ed08e296e85a10db6693fbc07cc3282828e",
      "contractAddress": null
    },
    {
      "status": "0x1",
      "cumulativeGasUsed": "0x91a2",
      "logs": [
        {
          "address": "0x36f38f8e14099967d97e9fe44014924a8b6b680c",
          "topics": [
            "0xbc7cd75a20ee27fd9adebab32041f755214dbc6bffa90cc0225b39da2e5c2d3b",
            "0x000000000000000000000000e996ad9579c0ebbde916a37f2381bb2099f5467e"
          ],
          "data": "0x",
          "blockHash": "0x805db4b1eb693d228667308acffdfb237929abb238827acac16e3ef803cca214",
          "blockNumber": "0x920abd",
          "transactionHash": "0xd3b90c040a11a7479e49e0d5b8645070d853dca3effdd2ee59315c180f2a91e0",
          "transactionIndex": "0x0",
          "logIndex": "0x0",
          "removed": false
        }
      ],
      "logsBloom": "0x00000000000000000000000000000000400000000000000000000000000000000000000000000000000000000000000010000000000000000000000000000000000000000800000000000000000002000000000000020000000000200000000000000000000000000000000000000000000000000000000000000000000000000000000000000000000000000200000000000000000000000000000000000000000000000000000000000000000000000000000000000000000000000000000000000020000000000000000000000000000000000000000000000000000000000008000000000000000000000000000000000000000000000000000000000000",
      "type": "0x2",
      "transactionHash": "0xd3b90c040a11a7479e49e0d5b8645070d853dca3effdd2ee59315c180f2a91e0",
      "transactionIndex": "0x0",
      "blockHash": "0x805db4b1eb693d228667308acffdfb237929abb238827acac16e3ef803cca214",
      "blockNumber": "0x920abd",
      "gasUsed": "0x91a2",
      "effectiveGasPrice": "0x37e11d6f9",
      "from": "0x2aa76c12368bc8aef4190400ef4af19fd0b4247c",
      "to": "0x01d08076979cbb7c77d21769a42c12888b2bea07",
      "contractAddress": null
    },
    {
      "status": "0x1",
      "cumulativeGasUsed": "0x91a2",
      "logs": [
        {
          "address": "0x378b494fc06b031b02b3c7d9211bb75d2d2c0bbe",
          "topics": [
            "0xbc7cd75a20ee27fd9adebab32041f755214dbc6bffa90cc0225b39da2e5c2d3b",
            "0x000000000000000000000000e996ad9579c0ebbde916a37f2381bb2099f5467e"
          ],
          "data": "0x",
          "blockHash": "0x9bd33362aa55a0b643cf720de0604c2857e1824fc418c2dd834a0f4f5b366956",
          "blockNumber": "0x920abe",
          "transactionHash": "0x07539f282b6d0c2d7b63b950747e09f35fa8b4c22fd0b838c4fc487d16126abe",
          "transactionIndex": "0x0",
          "logIndex": "0x0",
          "removed": false
        }
      ],
      "logsBloom": "0x00000000000000000000000000000000400000000000000000000000000000000000000000000000200000000000000010000000000000000000000000000000000000000000000000000000020002000000000000020000000000000000000000000000000000000000000000000000000000000000000000000000000000000000000000000000000000000000000000000000000000000000000000000000000000000000000000000000000000000000000000000000000000004000000000000020000000000000000000000000000000000000000000000000000000000008000000000000000000000000000000000000000000000000000000000000",
      "type": "0x2",
      "transactionHash": "0x07539f282b6d0c2d7b63b950747e09f35fa8b4c22fd0b838c4fc487d16126abe",
      "transactionIndex": "0x0",
      "blockHash": "0x9bd33362aa55a0b643cf720de0604c2857e1824fc418c2dd834a0f4f5b366956",
      "blockNumber": "0x920abe",
      "gasUsed": "0x91a2",
      "effectiveGasPrice": "0x37e11d6f9",
      "from": "0x2162d8b4662d73ca296bee28bfe02f6e2527f6b4",
      "to": "0x7376888549fccd252a6b1183f2e3a39d3e5f7959",
      "contractAddress": null
    },
    {
      "status": "0x1",
      "cumulativeGasUsed": "0x91a2",
      "logs": [
        {
          "address": "0x37f48e36422dc7b507c4bd34ac3ea8c4474b0b7f",
          "topics": [
            "0xbc7cd75a20ee27fd9adebab32041f755214dbc6bffa90cc0225b39da2e5c2d3b",
            "0x000000000000000000000000e996ad9579c0ebbde916a37f2381bb2099f5467e"
          ],
          "data": "0x",
          "blockHash": "0x9fb2f40613ae0403198eaef8390f1ddcaa0dc82278ace88ae673efbbf41cab6c",
          "blockNumber": "0x920abf",
          "transactionHash": "0xd385897021a97871052a4b1995dbff6ba3d4cd44af93d2ee9f36988c76315a31",
          "transactionIndex": "0x0",
          "logIndex": "0x0",
          "removed": false
        }
      ],
      "logsBloom": "0x00000000000000000000000000000000400000000000000000000000000000000000000000000000000000000000000010000000000000000000000000000000000000000000000000000000000002000000000000020000000000000000000100000000000000000002000000000000000000000000000000000000000000000000000000000000000000000010000000000000000000000000000000000000000000000000000000000000000000000000000000000000000000000000000000000020000000000000000000000000000000000000000000000000000000000008000000000000000000000000000000000000000000000000000000000000",
      "type": "0x2",
      "transactionHash": "0xd385897021a97871052a4b1995dbff6ba3d4cd44af93d2ee9f36988c76315a31",
      "transactionIndex": "0x0",
      "blockHash": "0x9fb2f40613ae0403198eaef8390f1ddcaa0dc82278ace88ae673efbbf41cab6c",
      "blockNumber": "0x920abf",
      "gasUsed": "0x91a2",
      "effectiveGasPrice": "0x37e11d6f9",
      "from": "0xfdaa58e9465bba04001b507074febb2c917c6eaf",
      "to": "0xd1db93a30a7e7012dd422af2d920cdbe2a166a5f",
      "contractAddress": null
    },
    {
      "status": "0x1",
      "cumulativeGasUsed": "0x9196",
      "logs": [
        {
          "address": "0x395e20247663a32fe177adb4119d3998d0004abc",
          "topics": [
            "0xbc7cd75a20ee27fd9adebab32041f755214dbc6bffa90cc0225b39da2e5c2d3b",
            "0x000000000000000000000000e996ad9579c0ebbde916a37f2381bb2099f5467e"
          ],
          "data": "0x",
          "blockHash": "0x01f6d53c992c665cdf7db99d630185634f5be519d91034a4f1a0985552912edc",
          "blockNumber": "0x920ac0",
          "transactionHash": "0x94fde3a8bbcee869274719df865abdc1375ec81363087720962035d6cf7fe1b2",
          "transactionIndex": "0x0",
          "logIndex": "0x0",
          "removed": false
        }
      ],
      "logsBloom": "0x01000000000000000000000000000000400000000000000000000000000000000000000000000000000000000000000010000000000000008000000000000000000000000000000000000000000002000000000000020000000000000000000000000000000200000000000000000000000000000000000000000000000000000000000000000000000000000000000000000000000000000000000000000000000000000000000000000000000000000000000000000000000000000000000000000020000000000000000000000000000000000000000000000000000000000008000000000000000000000000000000000000000000000000000000000000",
      "type": "0x2",
      "transactionHash": "0x94fde3a8bbcee869274719df865abdc1375ec81363087720962035d6cf7fe1b2",
      "transactionIndex": "0x0",
      "blockHash": "0x01f6d53c992c665cdf7db99d630185634f5be519d91034a4f1a0985552912edc",
      "blockNumber": "0x920ac0",
      "gasUsed": "0x9196",
      "effectiveGasPrice": "0x37e11d6f9",
      "from": "0xfdaa58e9465bba04001b507074febb2c917c6eaf",
      "to": "0xf2f34a26d8980641d9d22f477afd328d14789eb3",
      "contractAddress": null
    },
    {
      "status": "0x1",
      "cumulativeGasUsed": "0x91a2",
      "logs": [
        {
          "address": "0x39a43052de5e15f4b7a08d0f8cda209fdf239bf1",
          "topics": [
            "0xbc7cd75a20ee27fd9adebab32041f755214dbc6bffa90cc0225b39da2e5c2d3b",
            "0x000000000000000000000000e996ad9579c0ebbde916a37f2381bb2099f5467e"
          ],
          "data": "0x",
          "blockHash": "0x6ace319b3c2e085aae3124cdda2092e72474223e967cba3e0abc69a0d883b818",
          "blockNumber": "0x920ac1",
          "transactionHash": "0x494d4aed1ea91a888a16e640e94fb1c7a400172d3fb4d3b205b1fe037ddf297d",
          "transactionIndex": "0x0",
          "logIndex": "0x0",
          "removed": false
        }
      ],
      "logsBloom": "0x00000000000000000000000000000000400000000000000000000000000000000000000000000000000800000000000010000000000000000000000000000000000000000000000000000000000002000000000000020000000000000000000000000000000000000000000000000000000000000000000000020000000000000040000000000000000000000000000000000000000000000000000000000000000000000000000000000000000000000000000000000000000000000000000000000020000000000000000000000000000000000000000000000000000000000008000000000000000000000000000000000000000000000000000000000000",
      "type": "0x2",
      "transactionHash": "0x494d4aed1ea91a888a16e640e94fb1c7a400172d3fb4d3b205b1fe037ddf297d",
      "transactionIndex": "0x0",
      "blockHash": "0x6ace319b3c2e085aae3124cdda2092e72474223e967cba3e0abc69a0d883b818",
      "blockNumber": "0x920ac1",
      "gasUsed": "0x91a2",
      "effectiveGasPrice": "0x37e11d6f9",
      "from": "0x2aa76c12368bc8aef4190400ef4af19fd0b4247c",
      "to": "0x83bc484df9707c84608f5c026281995cdfff7957",
      "contractAddress": null
    },
    {
      "status": "0x1",
      "cumulativeGasUsed": "0x91a2",
      "logs": [
        {
          "address": "0x41a00d28b99508e67c15a289601bd47fb90d3b7a",
          "topics": [
            "0xbc7cd75a20ee27fd9adebab32041f755214dbc6bffa90cc0225b39da2e5c2d3b",
            "0x000000000000000000000000e996ad9579c0ebbde916a37f2381bb2099f5467e"
          ],
          "data": "0x",
          "blockHash": "0x08a2356567cb620cda32e7ad11f5c84c437941393abf369a22459ea14c95f0f5",
          "blockNumber": "0x920ac3",
          "transactionHash": "0x9d9dc12c7348d8a418a406afba5687c711fa631d8a310423c6197deadfb42c5e",
          "transactionIndex": "0x0",
          "logIndex": "0x0",
          "removed": false
        }
      ],
      "logsBloom": "0x00000000000000000000000000000000400000000000000000000000000000000000000000000000000000000000000010000000000000000000000000000000000000000040000000000000000002000000000000020000000000000000000000000000000000000000000000000000000000000000000000000000000000000000000000000000000000000000000000000000000000000000000000000000000000000000000000000000000000000000000000000000000000000000000000000020000000000000200000000000000000000000000000000000000000000008000000000000000000000000000000000000000000000000000000004000",
      "type": "0x2",
      "transactionHash": "0x9d9dc12c7348d8a418a406afba5687c711fa631d8a310423c6197deadfb42c5e",
      "transactionIndex": "0x0",
      "blockHash": "0x08a2356567cb620cda32e7ad11f5c84c437941393abf369a22459ea14c95f0f5",
      "blockNumber": "0x920ac3",
      "gasUsed": "0x91a2",
      "effectiveGasPrice": "0x37e11d6f9",
      "from": "0x2aa76c12368bc8aef4190400ef4af19fd0b4247c",
      "to": "0x86cf76c8f252649a0ddd124c788570bc8a811c93",
      "contractAddress": null
    },
    {
      "status": "0x1",
      "cumulativeGasUsed": "0x91a2",
      "logs": [
        {
          "address": "0x4c0d82fcd7dfd8ec6f89be4180d16e2fe47e8ab8",
          "topics": [
            "0xbc7cd75a20ee27fd9adebab32041f755214dbc6bffa90cc0225b39da2e5c2d3b",
            "0x000000000000000000000000e996ad9579c0ebbde916a37f2381bb2099f5467e"
          ],
          "data": "0x",
          "blockHash": "0xb7b1bfd5dfc50a869ba9afa2dba231fe24cc6a036c7ff1bf8a8b82e1a128878a",
          "blockNumber": "0x920ac4",
          "transactionHash": "0x268ffefcd125fb57ac4fc61892b083441a38e71ab3992438893763816a2fec8e",
          "transactionIndex": "0x0",
          "logIndex": "0x0",
          "removed": false
        }
      ],
      "logsBloom": "0x00000000000000000000000000000000400000000000000000000000000000000000000000000000000000000000000010000000000000000000000000000000000000000000002000000000000002000000000000020000000000000000000000000000800000000000000000000000000000000000000000000000000000000000000000000000000000000000000000000000000000000000000000000000000000000000000000000000000000000000000000000000000000000000000000000021000000000000000000000000000000000000000000000000000000000008000000000000000000000000000000000000000000000000000000000000",
      "type": "0x2",
      "transactionHash": "0x268ffefcd125fb57ac4fc61892b083441a38e71ab3992438893763816a2fec8e",
      "transactionIndex": "0x0",
      "blockHash": "0xb7b1bfd5dfc50a869ba9afa2dba231fe24cc6a036c7ff1bf8a8b82e1a128878a",
      "blockNumber": "0x920ac4",
      "gasUsed": "0x91a2",
      "effectiveGasPrice": "0x37e11d6f9",
      "from": "0x2aa76c12368bc8aef4190400ef4af19fd0b4247c",
      "to": "0xfc56d99531cbc85d4726c4d35aec79a2ba6cc967",
      "contractAddress": null
    },
    {
      "status": "0x1",
      "cumulativeGasUsed": "0x9196",
      "logs": [
        {
          "address": "0x4dcda9e6a873163da348156850201123a23f0200",
          "topics": [
            "0xbc7cd75a20ee27fd9adebab32041f755214dbc6bffa90cc0225b39da2e5c2d3b",
            "0x000000000000000000000000e996ad9579c0ebbde916a37f2381bb2099f5467e"
          ],
          "data": "0x",
          "blockHash": "0xc7e0be8e9fd7ddc092d05e160dbceb5e5ea320ed5765d3bc99ac5adf858d8aab",
          "blockNumber": "0x920ac5",
          "transactionHash": "0xde671e769bcd151941389cd9a816f7092881a8a1e1ac0ee330a51bbe202f6475",
          "transactionIndex": "0x0",
          "logIndex": "0x0",
          "removed": false
        }
      ],
      "logsBloom": "0x00000000000000000000000000000000400000000000000000010000000000800000000000000000000000000000000010000000000000000000000000000000000000000000000000000000000002000000000000020000000000000000000000000000000000000000000000000000000000000000000000000000000000000000000000000000000000000000000000000000000000000000000000000000000000000000000000000000000000000000000000000000000000000000000000000020000000000000000000000000000000000000000000000000000000000008000000000008000000000000000000000000000000000000000000000000",
      "type": "0x2",
      "transactionHash": "0xde671e769bcd151941389cd9a816f7092881a8a1e1ac0ee330a51bbe202f6475",
      "transactionIndex": "0x0",
      "blockHash": "0xc7e0be8e9fd7ddc092d05e160dbceb5e5ea320ed5765d3bc99ac5adf858d8aab",
      "blockNumber": "0x920ac5",
      "gasUsed": "0x9196",
      "effectiveGasPrice": "0x37e11d6f9",
      "from": "0x2aa76c12368bc8aef4190400ef4af19fd0b4247c",
      "to": "0x96328d15063c502d88fc4ece48280b9f023b0c61",
      "contractAddress": null
    },
    {
      "status": "0x1",
      "cumulativeGasUsed": "0x91a2",
      "logs": [
        {
          "address": "0x54ac5950e3c814dd46eda2ab79ee1d058c40b5be",
          "topics": [
            "0xbc7cd75a20ee27fd9adebab32041f755214dbc6bffa90cc0225b39da2e5c2d3b",
            "0x000000000000000000000000e996ad9579c0ebbde916a37f2381bb2099f5467e"
          ],
          "data": "0x",
          "blockHash": "0xf5d3b500afc852c54390c7b784cf60dcf272c248aaf7c66e0abb972866f152c4",
          "blockNumber": "0x920ac7",
          "transactionHash": "0xdc1d6a9281f1adcf7324fe9d01ed847c7e17649163217cfc979911e99b4346e2",
          "transactionIndex": "0x0",
          "logIndex": "0x0",
          "removed": false
        }
      ],
      "logsBloom": "0x00000000000000000000000080000000400000000000000000000000000000000000000000000000000000000000000010000000000000000000000000000000000000000000000000000000000002000000000000020000000000000000000000000000000000000000000000000000004000000000000000000000000000000000000000000000000000000000000000000000000000000000000000000000000000000000000000000000000000000000000000000000000000000000000000000020000000000000000000000000000000000040000000000000000000000008000000000000000000000000000000000000000000000000000000000000",
      "type": "0x2",
      "transactionHash": "0xdc1d6a9281f1adcf7324fe9d01ed847c7e17649163217cfc979911e99b4346e2",
      "transactionIndex": "0x0",
      "blockHash": "0xf5d3b500afc852c54390c7b784cf60dcf272c248aaf7c66e0abb972866f152c4",
      "blockNumber": "0x920ac7",
      "gasUsed": "0x91a2",
      "effectiveGasPrice": "0x37e11d6f9",
      "from": "0x2162d8b4662d73ca296bee28bfe02f6e2527f6b4",
      "to": "0x1425d717fd2d890b642ab44c75ecf795bdc5a3b9",
      "contractAddress": null
    },
    {
      "status": "0x1",
      "cumulativeGasUsed": "0x91a2",
      "logs": [
        {
          "address": "0x5e13237887f04f48d1b0ea2b6c88abb1dda1bc55",
          "topics": [
            "0xbc7cd75a20ee27fd9adebab32041f755214dbc6bffa90cc0225b39da2e5c2d3b",
            "0x000000000000000000000000e996ad9579c0ebbde916a37f2381bb2099f5467e"
          ],
          "data": "0x",
          "blockHash": "0xfb062bef0e697da0807a96ee473e8c7c5a6e73fcba7533d4b021d724b8903409",
          "blockNumber": "0x920ac9",
          "transactionHash": "0x1ec145cfe0e2fe743e68ff1e91feb52ee185746a49bb1d78b0928a83e5aa930b",
          "transactionIndex": "0x0",
          "logIndex": "0x0",
          "removed": false
        }
      ],
      "logsBloom": "0x00000000000000000000000000000000400000000000000000000000000000000000000000000000020000000000000012000000000000100000000000000000000000000000000000000000000002000000000000020000000000000000000000000000000000000000000000000000000000000000000000000000000000000000000000000000000000000000000000000000000000000000000000000000000000000000000000000000000000000000000000000000000000000000000000000020000000000000000000000000000000000000000000000000000000000008000000000000000000000000000000000000000000000000000000000000",
      "type": "0x2",
      "transactionHash": "0x1ec145cfe0e2fe743e68ff1e91feb52ee185746a49bb1d78b0928a83e5aa930b",
      "transactionIndex": "0x0",
      "blockHash": "0xfb062bef0e697da0807a96ee473e8c7c5a6e73fcba7533d4b021d724b8903409",
      "blockNumber": "0x920ac9",
      "gasUsed": "0x91a2",
      "effectiveGasPrice": "0x37e11d6f9",
      "from": "0x2162d8b4662d73ca296bee28bfe02f6e2527f6b4",
      "to": "0x96ad692deb46f380ed3bca517e0655d1d9bf31e1",
      "contractAddress": null
    },
    {
      "status": "0x1",
      "cumulativeGasUsed": "0x9196",
      "logs": [
        {
          "address": "0x7355939d127b3000a25d51147906401621c5b896",
          "topics": [
            "0xbc7cd75a20ee27fd9adebab32041f755214dbc6bffa90cc0225b39da2e5c2d3b",
            "0x000000000000000000000000e996ad9579c0ebbde916a37f2381bb2099f5467e"
          ],
          "data": "0x",
          "blockHash": "0xa0540dcd01abd11e088edd626e13402f60faa749a6e582847b38b7997203a438",
          "blockNumber": "0x920aca",
          "transactionHash": "0xdaf63d8916068cff2368cb1097c47a567ef033ece3a12639dc5dd108be4bee1d",
          "transactionIndex": "0x0",
          "logIndex": "0x0",
          "removed": false
        }
      ],
      "logsBloom": "0x00000000000000000000000000000000400000000000000000000000000000000000000000000000000000000000000010000000000000000000000000000000000000000000100000000000000002000000000000020000000000000000000000000000000000000000000000000000000000000000000000000000000000000000000000000000000000000000000000000000000000000000000000000000000000000000000000000000000000000000000000000000000000000000000000000020000000000000000000000000000000000000000000000000000000000008000000000000000000000000000000000000000000000002000000200000",
      "type": "0x2",
      "transactionHash": "0xdaf63d8916068cff2368cb1097c47a567ef033ece3a12639dc5dd108be4bee1d",
      "transactionIndex": "0x0",
      "blockHash": "0xa0540dcd01abd11e088edd626e13402f60faa749a6e582847b38b7997203a438",
      "blockNumber": "0x920aca",
      "gasUsed": "0x9196",
      "effectiveGasPrice": "0x37e11d6f9",
      "from": "0xfdaa58e9465bba04001b507074febb2c917c6eaf",
      "to": "0x36f40f88013aa750893437f70788daf5206b97fb",
      "contractAddress": null
    },
    {
      "status": "0x1",
      "cumulativeGasUsed": "0x91a2",
      "logs": [
        {
          "address": "0x833505612a179a9d3bdaba7e32ea81d1018e5696",
          "topics": [
            "0xbc7cd75a20ee27fd9adebab32041f755214dbc6bffa90cc0225b39da2e5c2d3b",
            "0x000000000000000000000000e996ad9579c0ebbde916a37f2381bb2099f5467e"
          ],
          "data": "0x",
          "blockHash": "0x15cae341fd3185a2f2dfdaeecc9a84066bb49430b0865fd5c65fa09d81eaea2a",
          "blockNumber": "0x920acc",
          "transactionHash": "0x9b23d780ce0a5e937fc2baeef554eabb9b615cfb1f9ee383d3d2d4903d6edb91",
          "transactionIndex": "0x0",
          "logIndex": "0x0",
          "removed": false
        }
      ],
      "logsBloom": "0x00000001000000000000000000000000400000000000000000000000000000000000000000000000000000000000000010000000000000000000000000000000000000000004000000000000000002000000000000020000000000000000000000000000000000000000000000000000000000000000000000000000000000000000000000000000000000000000000000000000000000000000000000000000000000000040000000000000000000000000000000000000000000000000000000000020000000000000000000000000000000000000000000000000000000000008000000000000000000000000000000000000000000000000000000000000",
      "type": "0x2",
      "transactionHash": "0x9b23d780ce0a5e937fc2baeef554eabb9b615cfb1f9ee383d3d2d4903d6edb91",
      "transactionIndex": "0x0",
      "blockHash": "0x15cae341fd3185a2f2dfdaeecc9a84066bb49430b0865fd5c65fa09d81eaea2a",
      "blockNumber": "0x920acc",
      "gasUsed": "0x91a2",
      "effectiveGasPrice": "0x37e11d6f9",
      "from": "0x2aa76c12368bc8aef4190400ef4af19fd0b4247c",
      "to": "0x0d8b595376f7b1123117266c54eadadc3a9537a1",
      "contractAddress": null
    },
    {
      "status": "0x1",
      "cumulativeGasUsed": "0x91a2",
      "logs": [
        {
          "address": "0x84cc168d0c682085951451c9e5b8da987c4a23ba",
          "topics": [
            "0xbc7cd75a20ee27fd9adebab32041f755214dbc6bffa90cc0225b39da2e5c2d3b",
            "0x000000000000000000000000e996ad9579c0ebbde916a37f2381bb2099f5467e"
          ],
          "data": "0x",
          "blockHash": "0xdf50229047a026d63d048e220a31c48ee2882c3ad7b1023e7c78fd9d8ad33df8",
          "blockNumber": "0x920acd",
          "transactionHash": "0xd2952714e39fd173b5782115ee4bb0f35430b59974d0b19d1877b21f212fb927",
          "transactionIndex": "0x0",
          "logIndex": "0x0",
          "removed": false
        }
      ],
      "logsBloom": "0x00000000000000000000000000000000400000000000000000000000000000000000000400000000000000040000000010000000000000000000000000000000000000000000000000000000000002000000000000020000000000000000000000000000000000000000000000000000000000000000000000000000000000000000000000000000000000000000000000000000000000000400000000000000000000000000000000000000000000000000000000000000000000000000000000000020000000000000000000000000000000000000000000000000000000000008000000000000000000000000000000000000000000000000000000000000",
      "type": "0x2",
      "transactionHash": "0xd2952714e39fd173b5782115ee4bb0f35430b59974d0b19d1877b21f212fb927",
      "transactionIndex": "0x0",
      "blockHash": "0xdf50229047a026d63d048e220a31c48ee2882c3ad7b1023e7c78fd9d8ad33df8",
      "blockNumber": "0x920acd",
      "gasUsed": "0x91a2",
      "effectiveGasPrice": "0x37e11d6f9",
      "from": "0x2162d8b4662d73ca296bee28bfe02f6e2527f6b4",
      "to": "0x233b3708d53494772ca8d8cdae9e08d67c0c21bf",
      "contractAddress": null
    },
    {
      "status": "0x1",
      "cumulativeGasUsed": "0x91a2",
      "logs": [
        {
          "address": "0x907cd078bdf8434de15f57ee5cc703142367d8f5",
          "topics": [
            "0xbc7cd75a20ee27fd9adebab32041f755214dbc6bffa90cc0225b39da2e5c2d3b",
            "0x000000000000000000000000e996ad9579c0ebbde916a37f2381bb2099f5467e"
          ],
          "data": "0x",
          "blockHash": "0x374135627b090c76ea1ac6e328528f1bd406c33d57fbb332222228bc5ac870f6",
          "blockNumber": "0x920acf",
          "transactionHash": "0xf333651988acc55e22e3f2f8dc2ac926a58db6365b9d9a2bb9496edec768921c",
          "transactionIndex": "0x0",
          "logIndex": "0x0",
          "removed": false
        }
      ],
      "logsBloom": "0x00000000000000000000000000000000400000000000000000000000000000000000000000000000000000000000000010000000000000000000000000000000000000000000000000004000000002000000000000020000000000000000000000000000000000000000000000000000000000000000000000000000000000000000000000000000000000400000000000000000000000000000000000000000000000000000000000000000000000000000000000000000000000000000000000000020000000000000000000000000000000000000000000000000000000000008000000000000000000000000000000000000000010000000000000000000",
      "type": "0x2",
      "transactionHash": "0xf333651988acc55e22e3f2f8dc2ac926a58db6365b9d9a2bb9496edec768921c",
      "transactionIndex": "0x0",
      "blockHash": "0x374135627b090c76ea1ac6e328528f1bd406c33d57fbb332222228bc5ac870f6",
      "blockNumber": "0x920acf",
      "gasUsed": "0x91a2",
      "effectiveGasPrice": "0x37e11d6f9",
      "from": "0x2aa76c12368bc8aef4190400ef4af19fd0b4247c",
      "to": "0x01254709d24acf4e026a2584e169e118ee4784fa",
      "contractAddress": null
    },
    {
      "status": "0x1",
      "cumulativeGasUsed": "0x91a2",
      "logs": [
        {
          "address": "0x9a055c017836361351dcbd6a1f40cfc361e8497a",
          "topics": [
            "0xbc7cd75a20ee27fd9adebab32041f755214dbc6bffa90cc0225b39da2e5c2d3b",
            "0x000000000000000000000000e996ad9579c0ebbde916a37f2381bb2099f5467e"
          ],
          "data": "0x",
          "blockHash": "0x3fe1e66d5d854f5600793dff9381a44652515141a374925578931aeec3bc2cc8",
          "blockNumber": "0x920ad1",
          "transactionHash": "0xc77f27600cca0f9e4eba120f8822857ddf6571741ff22b8b6edd4c585e0e8a7e",
          "transactionIndex": "0x0",
          "logIndex": "0x0",
          "removed": false
        }
      ],
      "logsBloom": "0x00000000000000000000000000000400400000000000000000000000000000000000000000000000000000000000000010000000000000000000000000000000000000000000000000000000000002000000000000020000000000000000000000000000000000000000000000000000000000000000000000000000000000000000000000000000000000000000000000000000000000000000000000000000000000200000000000000000000000040000000000000000000000000000000000000020000000000000000000000000000000000000000000000000000000000008000000000000000000000000000000000000000000000000000000000000",
      "type": "0x2",
      "transactionHash": "0xc77f27600cca0f9e4eba120f8822857ddf6571741ff22b8b6edd4c585e0e8a7e",
      "transactionIndex": "0x0",
      "blockHash": "0x3fe1e66d5d854f5600793dff9381a44652515141a374925578931aeec3bc2cc8",
      "blockNumber": "0x920ad1",
      "gasUsed": "0x91a2",
      "effectiveGasPrice": "0x37e11d6f9",
      "from": "0x2aa76c12368bc8aef4190400ef4af19fd0b4247c",
      "to": "0x68b6158f6edc534da9d8017553655c05c0df8715",
      "contractAddress": null
    },
    {
      "status": "0x1",
      "cumulativeGasUsed": "0x91a2",
      "logs": [
        {
          "address": "0x9c17373c6990281e707ea82dec26093129747d33",
          "topics": [
            "0xbc7cd75a20ee27fd9adebab32041f755214dbc6bffa90cc0225b39da2e5c2d3b",
            "0x000000000000000000000000e996ad9579c0ebbde916a37f2381bb2099f5467e"
          ],
          "data": "0x",
          "blockHash": "0x792717b5a2ed26bb8fb5a5a88ecc442baa236d4545825ee9cb7d81b7c0154a60",
          "blockNumber": "0x920ad2",
          "transactionHash": "0xaf80b6665c6faf20f18c91609711d160d36c94918073c570307ee3de09eef4e6",
          "transactionIndex": "0x0",
          "logIndex": "0x0",
          "removed": false
        }
      ],
      "logsBloom": "0x00000000000000000000000000000000400000000000000000000000000000000000000000000000000000000000000010000000000000000000000000000000000000000000000080000000000002000000000000020000000000000000000000000000000000000000000000000000000000000000000000000000000000000000000000000000000000000000000000000000000000000200000000000000000000000000000000000000000000000000000000000000000000000000000000000020000000000000000000000000000000000000000000000000000000000008000000000000000080000000000000000000000000000000000000000000",
      "type": "0x2",
      "transactionHash": "0xaf80b6665c6faf20f18c91609711d160d36c94918073c570307ee3de09eef4e6",
      "transactionIndex": "0x0",
      "blockHash": "0x792717b5a2ed26bb8fb5a5a88ecc442baa236d4545825ee9cb7d81b7c0154a60",
      "blockNumber": "0x920ad2",
      "gasUsed": "0x91a2",
      "effectiveGasPrice": "0x37e11d6f9",
      "from": "0x2aa76c12368bc8aef4190400ef4af19fd0b4247c",
      "to": "0xe43a4ffb7c3b0ca6faeaba0128e0a78260b5cc41",
      "contractAddress": null
    },
    {
      "status": "0x1",
      "cumulativeGasUsed": "0x91a2",
      "logs": [
        {
          "address": "0xaaa1bab87801cb6f0a12a85b39ba2a9f32ca93de",
          "topics": [
            "0xbc7cd75a20ee27fd9adebab32041f755214dbc6bffa90cc0225b39da2e5c2d3b",
            "0x000000000000000000000000e996ad9579c0ebbde916a37f2381bb2099f5467e"
          ],
          "data": "0x",
          "blockHash": "0x10d80f57dca29fc3893e2170c344a22babcaca480e87781956dc284615a71289",
          "blockNumber": "0x920ad3",
          "transactionHash": "0x14669540661b952a6615b55ccc23e551997bfc17b676f1a836a9575533f136b6",
          "transactionIndex": "0x0",
          "logIndex": "0x0",
          "removed": false
        }
      ],
      "logsBloom": "0x00000000000000000000000000000000400000000000000000000000000000000000000000000000000040000000000010000000000000000000000000000000000000000000000000000000000002000000000000020000000000000000000000000000000000000000000000000000000000000000000000000000000000000000000000000000000000000000000000000000000000000000000000000000000000000000000000000000000000000000000000000000000000000000000000000020000000000000000000000000000000000000000000000080000000000008004000000000000000000000000000000000000000000000000000000000",
      "type": "0x2",
      "transactionHash": "0x14669540661b952a6615b55ccc23e551997bfc17b676f1a836a9575533f136b6",
      "transactionIndex": "0x0",
      "blockHash": "0x10d80f57dca29fc3893e2170c344a22babcaca480e87781956dc284615a71289",
      "blockNumber": "0x920ad3",
      "gasUsed": "0x91a2",
      "effectiveGasPrice": "0x37e11d6f9",
      "from": "0x2aa76c12368bc8aef4190400ef4af19fd0b4247c",
      "to": "0x2cd4e3cfda7f2dd479757a633dc7168bac3ad990",
      "contractAddress": null
    },
    {
      "status": "0x1",
      "cumulativeGasUsed": "0x91a2",
      "logs": [
        {
          "address": "0xb13781b90cda335c9e074ab5176feb84228bed03",
          "topics": [
            "0xbc7cd75a20ee27fd9adebab32041f755214dbc6bffa90cc0225b39da2e5c2d3b",
            "0x000000000000000000000000e996ad9579c0ebbde916a37f2381bb2099f5467e"
          ],
          "data": "0x",
          "blockHash": "0x0d368a2eaf574eefd5830c3cb65e649f6d885fd5f4607569b4beed997d14b936",
          "blockNumber": "0x920ad5",
          "transactionHash": "0x729f3513121151e3d035120c032b7f33fd8cdd311b9c2d406dad61972dc39b01",
          "transactionIndex": "0x0",
          "logIndex": "0x0",
          "removed": false
        }
      ],
      "logsBloom": "0x00000000000000000000000000000000400000000000000000000000000000000000000000000000000000000000000010000000000000000000000000000000000000000000000000000000000002000000000000020000000000000000000000000000000001000000000000000000000000000000000000000000000000000000000000000000000000000000000000000000000000000000000000000000000000000000000000000000000000000000000000000000000000000000000000000020000000000000000000000000000000000000000000000000000000000008000100000000000000000000000000000000000000000000002000000000",
      "type": "0x2",
      "transactionHash": "0x729f3513121151e3d035120c032b7f33fd8cdd311b9c2d406dad61972dc39b01",
      "transactionIndex": "0x0",
      "blockHash": "0x0d368a2eaf574eefd5830c3cb65e649f6d885fd5f4607569b4beed997d14b936",
      "blockNumber": "0x920ad5",
      "gasUsed": "0x91a2",
      "effectiveGasPrice": "0x37e11d6f9",
      "from": "0x2aa76c12368bc8aef4190400ef4af19fd0b4247c",
      "to": "0x1b97a19bb59d97728a245753e582feeee300c97f",
      "contractAddress": null
    },
    {
      "status": "0x1",
      "cumulativeGasUsed": "0x91a2",
      "logs": [
        {
          "address": "0xba6ee3916acb840edf91c9f4240fcbc828335aa6",
          "topics": [
            "0xbc7cd75a20ee27fd9adebab32041f755214dbc6bffa90cc0225b39da2e5c2d3b",
            "0x000000000000000000000000e996ad9579c0ebbde916a37f2381bb2099f5467e"
          ],
          "data": "0x",
          "blockHash": "0x8851fbad5a92b5c8c842be94357db25e82f72ff35c9f791b57b0f5022bb59454",
          "blockNumber": "0x920ad6",
          "transactionHash": "0x9e088a94f59dee52cf8cfdcb7f93d369fbc22a5cc9b79564eecb9387d7d52ad0",
          "transactionIndex": "0x0",
          "logIndex": "0x0",
          "removed": false
        }
      ],
      "logsBloom": "0x00000000000000000000000002000000400000000000000000000000000000000000000000000000000000000000000010000000000000000000000000000000000000000000000000000000000002000000000000020000000000000000000000000000000000000000000000000000000000000000000000000000000000000000000000000000000000000000000000000000000000000000000000000000000001000000000000000000000000000000000000000000000000000000000000000020000000000000000000000000000000000000000000000000000000000008000000000000000000000000000000000002000000000000000000000000",
      "type": "0x2",
      "transactionHash": "0x9e088a94f59dee52cf8cfdcb7f93d369fbc22a5cc9b79564eecb9387d7d52ad0",
      "transactionIndex": "0x0",
      "blockHash": "0x8851fbad5a92b5c8c842be94357db25e82f72ff35c9f791b57b0f5022bb59454",
      "blockNumber": "0x920ad6",
      "gasUsed": "0x91a2",
      "effectiveGasPrice": "0x37e11d6f9",
      "from": "0x2aa76c12368bc8aef4190400ef4af19fd0b4247c",
      "to": "0x7b8da6cd14b171b5205a174650163facd1552553",
      "contractAddress": null
    },
    {
      "status": "0x1",
      "cumulativeGasUsed": "0x91a2",
      "logs": [
        {
          "address": "0xbb06e3a4816bdf1d63b9437d6d7e929e7042a119",
          "topics": [
            "0xbc7cd75a20ee27fd9adebab32041f755214dbc6bffa90cc0225b39da2e5c2d3b",
            "0x000000000000000000000000e996ad9579c0ebbde916a37f2381bb2099f5467e"
          ],
          "data": "0x",
          "blockHash": "0xd96f3da91ade0a90fddb875ab25e2ac17c864ad8a292b5b9a2a07e68faa84f77",
          "blockNumber": "0x920ad9",
          "transactionHash": "0x3b5c28e44bb62497e46235d11304bf8eb8a53044ae8a2834e96abc0825a07744",
          "transactionIndex": "0x0",
          "logIndex": "0x0",
          "removed": false
        }
      ],
      "logsBloom": "0x00010000000000080000000000000000400000000000000000000000000000000000000000000000000000000000000010000000000000000000000000000000000000000000000000000000000002000000000000020000000000000000000000000000000000000000000000000000000000000000000000000000000000000000000000000000000000000000000000000000000000000000000000000000000000000000000000000000000000000000000000000000000000000000000000000020000000000000000000000000004000000000000000000000000000000008000000000000000000000000000000000000000000000000000000000000",
      "type": "0x2",
      "transactionHash": "0x3b5c28e44bb62497e46235d11304bf8eb8a53044ae8a2834e96abc0825a07744",
      "transactionIndex": "0x0",
      "blockHash": "0xd96f3da91ade0a90fddb875ab25e2ac17c864ad8a292b5b9a2a07e68faa84f77",
      "blockNumber": "0x920ad9",
      "gasUsed": "0x91a2",
      "effectiveGasPrice": "0x37e11d6f9",
      "from": "0x2aa76c12368bc8aef4190400ef4af19fd0b4247c",
      "to": "0x5b7d3b4a7753d61d467d8cbb330f12a534d7e7c9",
      "contractAddress": null
    },
    {
      "status": "0x1",
      "cumulativeGasUsed": "0x91a2",
      "logs": [
        {
          "address": "0xc71c1337efc2f495327f21f093aad49dcf81a2ec",
          "topics": [
            "0xbc7cd75a20ee27fd9adebab32041f755214dbc6bffa90cc0225b39da2e5c2d3b",
            "0x000000000000000000000000e996ad9579c0ebbde916a37f2381bb2099f5467e"
          ],
          "data": "0x",
          "blockHash": "0x396321542e7ee9509860ad8ae3c4aa5640fc2120747cc983aa69741de96074e3",
          "blockNumber": "0x920ada",
          "transactionHash": "0xbf65690dca4380eaa337179ddeabaa0e23792e980fa5474daf32fa0ed51a6328",
          "transactionIndex": "0x0",
          "logIndex": "0x0",
          "removed": false
        }
      ],
      "logsBloom": "0x00000000000000000000000000000000400000000000000000000000000000000000000000000000000000000000000010000000000000000000000000000000000000000000000000000000000002000004000000020000000000000000000000000000000000000000000000400000000000000000000000000000000000000000000000000000000000000000000000000000000000000000000000000000000000000000000000000000000000000000000000000000000000000000000000000020000000000000000000000000000000000000000000000000000000000088000000000000000000000000000000000000000000000000000000000000",
      "type": "0x2",
      "transactionHash": "0xbf65690dca4380eaa337179ddeabaa0e23792e980fa5474daf32fa0ed51a6328",
      "transactionIndex": "0x0",
      "blockHash": "0x396321542e7ee9509860ad8ae3c4aa5640fc2120747cc983aa69741de96074e3",
      "blockNumber": "0x920ada",
      "gasUsed": "0x91a2",
      "effectiveGasPrice": "0x37e11d6f9",
      "from": "0xfdaa58e9465bba04001b507074febb2c917c6eaf",
      "to": "0xc4fcc1c1612fa24311c18bb1823b81deb72b4cee",
      "contractAddress": null
    },
    {
      "status": "0x1",
      "cumulativeGasUsed": "0x91a2",
      "logs": [
        {
          "address": "0xdb3646c6642c535e60ad6bf6059a50467484f5a3",
          "topics": [
            "0xbc7cd75a20ee27fd9adebab32041f755214dbc6bffa90cc0225b39da2e5c2d3b",
            "0x000000000000000000000000e996ad9579c0ebbde916a37f2381bb2099f5467e"
          ],
          "data": "0x",
          "blockHash": "0x9e71a4b89055fb1b1d993fd8fb049b81e847ab2e77a254c3098355b36fe789d2",
          "blockNumber": "0x920adc",
          "transactionHash": "0x237ac27e83b497fc0b5cd8fa86b38e8dfac0e43d1ebc584db94aeb98db51e7ac",
          "transactionIndex": "0x0",
          "logIndex": "0x0",
          "removed": false
        }
      ],
      "logsBloom": "0x00000000000000000000000000000000400000000000000000000000000000000000000000000000000000000000000010000000000000000000000000080000000000000000000000000000000002000000000000020000000000000000000000000000000000000000000000000000000000000000000000000000000000000000000000000000000000000000000000000000000000000000000000000000000000000000000000000000000000000000000000000000000000000000000000000020000000000000002000000000000000000000800000000000000000000008000000000000000000000000000000000000000000000000000000000000",
      "type": "0x2",
      "transactionHash": "0x237ac27e83b497fc0b5cd8fa86b38e8dfac0e43d1ebc584db94aeb98db51e7ac",
      "transactionIndex": "0x0",
      "blockHash": "0x9e71a4b89055fb1b1d993fd8fb049b81e847ab2e77a254c3098355b36fe789d2",
      "blockNumber": "0x920adc",
      "gasUsed": "0x91a2",
      "effectiveGasPrice": "0x37e11d6f9",
      "from": "0x2aa76c12368bc8aef4190400ef4af19fd0b4247c",
      "to": "0xd1ca1ecf4621d0634e35b6ad6b1a41343ee8c58c",
      "contractAddress": null
    },
    {
      "status": "0x1",
      "cumulativeGasUsed": "0x91a2",
      "logs": [
        {
          "address": "0xe30c5d32febf7846ff9ed4a4f21e44dea6ee7a59",
          "topics": [
            "0xbc7cd75a20ee27fd9adebab32041f755214dbc6bffa90cc0225b39da2e5c2d3b",
            "0x000000000000000000000000e996ad9579c0ebbde916a37f2381bb2099f5467e"
          ],
          "data": "0x",
          "blockHash": "0x9836deb969bb65e54c3264e044d92bd0253b2d2e27763ef42bc5fc852910881d",
          "blockNumber": "0x920add",
          "transactionHash": "0x0641689198324d41efedf2a106499bca596b5d06db41b766ab42a60bfc224473",
          "transactionIndex": "0x0",
          "logIndex": "0x0",
          "removed": false
        }
      ],
      "logsBloom": "0x00000000000000000000000000000000400000000000000000000000000000000000000000000000000000000000100010000000000000000000000000000000000000000000000000000000000002000000000000020000000000000000000000000000000000000000000000000000000000000000000000000000000000000000000000000000000000000000000000000000000000000000000000800000000000000000000000000000000000000000000000000000000000000000000000000020000000000000000000000000000000000000000000000000000000000008000000000000000000000000000040000000000000000000000000000000",
      "type": "0x2",
      "transactionHash": "0x0641689198324d41efedf2a106499bca596b5d06db41b766ab42a60bfc224473",
      "transactionIndex": "0x0",
      "blockHash": "0x9836deb969bb65e54c3264e044d92bd0253b2d2e27763ef42bc5fc852910881d",
      "blockNumber": "0x920add",
      "gasUsed": "0x91a2",
      "effectiveGasPrice": "0x37e11d6f9",
      "from": "0x2162d8b4662d73ca296bee28bfe02f6e2527f6b4",
      "to": "0x248cbe908e49471ab2278782f7d5adaf5d470df8",
      "contractAddress": null
    },
    {
      "status": "0x1",
      "cumulativeGasUsed": "0x91a2",
      "logs": [
        {
          "address": "0xe81712057e4751c6a039ff7e4845850f7b51f8bd",
          "topics": [
            "0xbc7cd75a20ee27fd9adebab32041f755214dbc6bffa90cc0225b39da2e5c2d3b",
            "0x000000000000000000000000e996ad9579c0ebbde916a37f2381bb2099f5467e"
          ],
          "data": "0x",
          "blockHash": "0x49e36187ceaa555e7037001671cefa4140b9b65dda07e8551de8ae1e704cf0f9",
          "blockNumber": "0x920ade",
          "transactionHash": "0x26c8579e4035e00a3c34a27148ed78fb44377dc079fd4e9a325cbe1ce8905b88",
          "transactionIndex": "0x0",
          "logIndex": "0x0",
          "removed": false
        }
      ],
      "logsBloom": "0x00000000000000000040000000000000400000000000000000000000000000000000000000000000000000000000000010000000000000000000000000000000000000000000000000000000000002000000000000020000000000000000000000000000000000000000000000000000000000000000000000000000000000000000000002000000000000000000000000000001000000000000000000000000000000000000000000000000000000000000000000000000000000000000000000000020000000000000000000000000000000000000000000000000000000000008000000000000000000000000000000000000000000000000000000000000",
      "type": "0x2",
      "transactionHash": "0x26c8579e4035e00a3c34a27148ed78fb44377dc079fd4e9a325cbe1ce8905b88",
      "transactionIndex": "0x0",
      "blockHash": "0x49e36187ceaa555e7037001671cefa4140b9b65dda07e8551de8ae1e704cf0f9",
      "blockNumber": "0x920ade",
      "gasUsed": "0x91a2",
      "effectiveGasPrice": "0x37e11d6f9",
      "from": "0x2aa76c12368bc8aef4190400ef4af19fd0b4247c",
      "to": "0xbf8afe891610b62eeb9c8e1b8975f7441beb4f60",
      "contractAddress": null
    },
    {
      "status": "0x1",
      "cumulativeGasUsed": "0x91a2",
      "logs": [
        {
          "address": "0xf637e481a25620b229e7991df2e2d6a308aa8d2b",
          "topics": [
            "0xbc7cd75a20ee27fd9adebab32041f755214dbc6bffa90cc0225b39da2e5c2d3b",
            "0x000000000000000000000000e996ad9579c0ebbde916a37f2381bb2099f5467e"
          ],
          "data": "0x",
          "blockHash": "0x76a7cc96c0527ea95d8e4e0e4f2d2cd343f894cf5743a7bead6b53bb80ca627b",
          "blockNumber": "0x920ae0",
          "transactionHash": "0x9572f5e8c9537f10305bf316034ea691db26b25beacc0593181c9379bf8e8ce7",
          "transactionIndex": "0x0",
          "logIndex": "0x0",
          "removed": false
        }
      ],
      "logsBloom": "0x00000000000000000000000000000000400000000000000000000000020020000000000000000000000000000000000010000000000000000000000000000000000000000000000000000000000002000000000000020000000000000000000000000000000000000000000000000000000000000000000000000000000000000000000000000000000000000000000000000000000000000000010000000000000000000000000000000000000000000000000000000000000000000000000000000020000000000000000000000000000000000000000000000000000000000008000000000000000000000000000000000000000000000000000000000000",
      "type": "0x2",
      "transactionHash": "0x9572f5e8c9537f10305bf316034ea691db26b25beacc0593181c9379bf8e8ce7",
      "transactionIndex": "0x0",
      "blockHash": "0x76a7cc96c0527ea95d8e4e0e4f2d2cd343f894cf5743a7bead6b53bb80ca627b",
      "blockNumber": "0x920ae0",
      "gasUsed": "0x91a2",
      "effectiveGasPrice": "0x37e11d6f9",
      "from": "0xfdaa58e9465bba04001b507074febb2c917c6eaf",
      "to": "0x011b11ed060815e937fde0afc522ab84f98c1ff5",
      "contractAddress": null
    },
    {
      "status": "0x1",
      "cumulativeGasUsed": "0x91a2",
      "logs": [
        {
          "address": "0xf7cbb2ab23a118257f050835b8d1380ac2a0154e",
          "topics": [
            "0xbc7cd75a20ee27fd9adebab32041f755214dbc6bffa90cc0225b39da2e5c2d3b",
            "0x000000000000000000000000e996ad9579c0ebbde916a37f2381bb2099f5467e"
          ],
          "data": "0x",
          "blockHash": "0xc9d95d09e966ca33ee52ba59cf2397b6ec632f6ca894898236879f42f3de54e4",
          "blockNumber": "0x920ae2",
          "transactionHash": "0x8d766108db77037729e8543c9161bfc33bb09a5ee57407b651e8126cac4be037",
          "transactionIndex": "0x0",
          "logIndex": "0x0",
          "removed": false
        }
      ],
      "logsBloom": "0x00000000000000000000080000000000400000000000000000000000000000000000000000000000000000000000000010000000000000000000000000000000000000000000000000000000000002000000000000020000000000000000000000000000000000000000000000000000000000000000000000000000000000000000000000000000000000000000000000000000000000000000000000000000000000000000000000000000000000000000000000000000000000000000000000000020000000000000000000000000000000000000000000000000000000000008000000000000080000000004000000000000000000000000000000000000",
      "type": "0x2",
      "transactionHash": "0x8d766108db77037729e8543c9161bfc33bb09a5ee57407b651e8126cac4be037",
      "transactionIndex": "0x0",
      "blockHash": "0xc9d95d09e966ca33ee52ba59cf2397b6ec632f6ca894898236879f42f3de54e4",
      "blockNumber": "0x920ae2",
      "gasUsed": "0x91a2",
      "effectiveGasPrice": "0x37e11d6f9",
      "from": "0x2aa76c12368bc8aef4190400ef4af19fd0b4247c",
      "to": "0x3c95625240ef744f5c272f74540f83ea1e48f229",
      "contractAddress": null
    },
    {
      "status": "0x1",
      "cumulativeGasUsed": "0xcd54",
      "logs": [
        {
          "address": "0x0fbeb5dc06cf945aea317799520bafb939eca191",
          "topics": [
            "0xb5e5876e581890d703b910e6cc9dd85ea69410cb3f85b0cb3981162ec53876ec",
            "0x0000000000000000000000000000000000000000000000000000000000000000",
            "0x000000000000000000000000ff66ebbeb2da357b8f21e36c89340b5914dc7984"
          ],
          "data": "0x",
          "blockHash": "0x425ec1ec1762f4d65c702d8acd02267e7e31c08ddf3f52043477fa8df553e894",
          "blockNumber": "0x920ae4",
          "transactionHash": "0x9cc0c286671dde7745e0afe402975ef60bad0abd0b05330530a8fb1dfea65046",
          "transactionIndex": "0x0",
          "logIndex": "0x0",
          "removed": false
        }
      ],
      "logsBloom": "0x00000000000000000000000000000000000000000000000040000000000000000000000000000000000000010000000000000004000000004000000000000000000400000000000000000000000000000000000000000000000000000000000000000000020000000000000000000800000100000000000000000000000000000000000000000000000000000000000000000000000000000010000000000000000000000000000000000000000000000000000000000000000000000000000000000000000000000000000000000000000000000000000000000000000020000000000000000000000000000400000000000000000000000002000000000000",
      "type": "0x2",
      "transactionHash": "0x9cc0c286671dde7745e0afe402975ef60bad0abd0b05330530a8fb1dfea65046",
      "transactionIndex": "0x0",
      "blockHash": "0x425ec1ec1762f4d65c702d8acd02267e7e31c08ddf3f52043477fa8df553e894",
      "blockNumber": "0x920ae4",
      "gasUsed": "0xcd54",
      "effectiveGasPrice": "0x37e11d6f9",
      "from": "0x2162d8b4662d73ca296bee28bfe02f6e2527f6b4",
      "to": "0x0fbeb5dc06cf945aea317799520bafb939eca191",
      "contractAddress": null
    },
    {
      "status": "0x1",
      "cumulativeGasUsed": "0xcd54",
      "logs": [
        {
          "address": "0x2fa5e870d2a8f35ff04b253c4580115ca5849634",
          "topics": [
            "0xb5e5876e581890d703b910e6cc9dd85ea69410cb3f85b0cb3981162ec53876ec",
            "0x0000000000000000000000000000000000000000000000000000000000000000",
            "0x000000000000000000000000ff66ebbeb2da357b8f21e36c89340b5914dc7984"
          ],
          "data": "0x",
          "blockHash": "0x035a207ff4e7e1fd4f907f77dd0105da94565c06f50bc08927f9940dbf90d476",
          "blockNumber": "0x920ae5",
          "transactionHash": "0x1d4e461d014c80588e83de8e30adcf36af8b43fac73078184909a6fd78020e15",
          "transactionIndex": "0x0",
          "logIndex": "0x0",
          "removed": false
        }
      ],
      "logsBloom": "0x00000000000000000000000000000000000000000000000040000000000000000000000000000000000000010000000000000004000000004000000000000000000000000000000000000000000000000000000000000000000000000000000000000000020010000000001000000800000000000000000000000000000000000000000000000000000000000000000000000000000000000000000000000000000000000000000000000000000000000000000000000000000000000000000000000000002000000000000000000000000000000000000000000000000020000000000000000000000000000400000000000000000000000002000000000000",
      "type": "0x2",
      "transactionHash": "0x1d4e461d014c80588e83de8e30adcf36af8b43fac73078184909a6fd78020e15",
      "transactionIndex": "0x0",
      "blockHash": "0x035a207ff4e7e1fd4f907f77dd0105da94565c06f50bc08927f9940dbf90d476",
      "blockNumber": "0x920ae5",
      "gasUsed": "0xcd54",
      "effectiveGasPrice": "0x37e11d6f9",
      "from": "0x2162d8b4662d73ca296bee28bfe02f6e2527f6b4",
      "to": "0x2fa5e870d2a8f35ff04b253c4580115ca5849634",
      "contractAddress": null
    },
    {
      "status": "0x1",
      "cumulativeGasUsed": "0xcd54",
      "logs": [
        {
          "address": "0x322628aa283d2fea7763365dd3dcbc4f76b21918",
          "topics": [
            "0xb5e5876e581890d703b910e6cc9dd85ea69410cb3f85b0cb3981162ec53876ec",
            "0x0000000000000000000000000000000000000000000000000000000000000000",
            "0x000000000000000000000000ff66ebbeb2da357b8f21e36c89340b5914dc7984"
          ],
          "data": "0x",
          "blockHash": "0x3d90066b5da6f82dafaa5ef3d5eb6fe1696237661ac4486d7fe475d905b401b3",
          "blockNumber": "0x920ae6",
          "transactionHash": "0x55da3cd2d5f10b05974d454fa026b9bb01bfc6d70684557fec124a86cd5056c7",
          "transactionIndex": "0x0",
          "logIndex": "0x0",
          "removed": false
        }
      ],
      "logsBloom": "0x00000000000000000001000000000000000000000000000040000000000000000000000000000000000000010000000000000004000000004000000000000000000000040000000000000000000000000000000000000000000000000000000000000000020000000000000000000800000000000000000000000000000000000000000000000000000000000000000000000000000000000000000000000000000000000000000000000000000000000000000000000000000000000000000000000000000000000000000000000000000000000000000000000000000020000000000000000000000000000400000000000000000000000002000200000000",
      "type": "0x2",
      "transactionHash": "0x55da3cd2d5f10b05974d454fa026b9bb01bfc6d70684557fec124a86cd5056c7",
      "transactionIndex": "0x0",
      "blockHash": "0x3d90066b5da6f82dafaa5ef3d5eb6fe1696237661ac4486d7fe475d905b401b3",
      "blockNumber": "0x920ae6",
      "gasUsed": "0xcd54",
      "effectiveGasPrice": "0x37e11d6f9",
      "from": "0x2162d8b4662d73ca296bee28bfe02f6e2527f6b4",
      "to": "0x322628aa283d2fea7763365dd3dcbc4f76b21918",
      "contractAddress": null
    },
    {
      "status": "0x1",
      "cumulativeGasUsed": "0xcd54",
      "logs": [
        {
          "address": "0x332d717949fa0008f6c3538c48394b9d3e2cd69a",
          "topics": [
            "0xb5e5876e581890d703b910e6cc9dd85ea69410cb3f85b0cb3981162ec53876ec",
            "0x0000000000000000000000000000000000000000000000000000000000000000",
            "0x000000000000000000000000ff66ebbeb2da357b8f21e36c89340b5914dc7984"
          ],
          "data": "0x",
          "blockHash": "0xa48846955c14b7b1c20eb2d51d57ed7e2b45d5a744e40ea0e168a5bb4e69bb4d",
          "blockNumber": "0x920ae8",
          "transactionHash": "0x18e1e13f1a383375c7697677996be13449a589aa441628091069f57e3757bcfe",
          "transactionIndex": "0x0",
          "logIndex": "0x0",
          "removed": false
        }
      ],
      "logsBloom": "0x00000000000000000000000000000000000000000000000040000000000000000000000000000000000000010000000000000004000000004000000000000000000000000000000000000000000000000000000000000000000000000000000000000000020000000000000000000800000000000000000000000000000000000000000000000000000000000000000000000000000040000000000000000000000000000000000000000000000000000000000080000000000000000000000000000000000000000000000000000000000000000000000000000000000020000000000000000000000400000400000000000000000000000002000000000000",
      "type": "0x2",
      "transactionHash": "0x18e1e13f1a383375c7697677996be13449a589aa441628091069f57e3757bcfe",
      "transactionIndex": "0x0",
      "blockHash": "0xa48846955c14b7b1c20eb2d51d57ed7e2b45d5a744e40ea0e168a5bb4e69bb4d",
      "blockNumber": "0x920ae8",
      "gasUsed": "0xcd54",
      "effectiveGasPrice": "0x37e11d6f9",
      "from": "0x2162d8b4662d73ca296bee28bfe02f6e2527f6b4",
      "to": "0x332d717949fa0008f6c3538c48394b9d3e2cd69a",
      "contractAddress": null
    },
    {
      "status": "0x1",
      "cumulativeGasUsed": "0xcd54",
      "logs": [
        {
          "address": "0x36794b6c28234257d0787e8f4774822b75dcbcd9",
          "topics": [
            "0xb5e5876e581890d703b910e6cc9dd85ea69410cb3f85b0cb3981162ec53876ec",
            "0x0000000000000000000000000000000000000000000000000000000000000000",
            "0x000000000000000000000000ff66ebbeb2da357b8f21e36c89340b5914dc7984"
          ],
          "data": "0x",
          "blockHash": "0x97737bf9288d89869988437abebdea9ee1176c3f17d8ffad6a5636550718cc25",
          "blockNumber": "0x920aea",
          "transactionHash": "0xb24059fdbb5a789f57bfd2fde7db953a98ffea223702d17311e630632df29892",
          "transactionIndex": "0x0",
          "logIndex": "0x0",
          "removed": false
        }
      ],
      "logsBloom": "0x00000000000000000000000000000000000000000000000040000000000000000000000000000000000000010000000000000004000000004000000000000000000000000000000000000000000000000000000000000000000000000000000000000000020000000000000000000800000000000000000000000000000000000000000000000000000000000000000000000000000000000000000000000000000000000000000000000004000000000000000000000000000000000000000000000000000000000000000010000000000000000040000000000000000020000000000000000000000000000400000000000000000000000002000000000000",
      "type": "0x2",
      "transactionHash": "0xb24059fdbb5a789f57bfd2fde7db953a98ffea223702d17311e630632df29892",
      "transactionIndex": "0x0",
      "blockHash": "0x97737bf9288d89869988437abebdea9ee1176c3f17d8ffad6a5636550718cc25",
      "blockNumber": "0x920aea",
      "gasUsed": "0xcd54",
      "effectiveGasPrice": "0x37e11d6f9",
      "from": "0x2162d8b4662d73ca296bee28bfe02f6e2527f6b4",
      "to": "0x36794b6c28234257d0787e8f4774822b75dcbcd9",
      "contractAddress": null
    },
    {
      "status": "0x1",
      "cumulativeGasUsed": "0xcd54",
      "logs": [
        {
          "address": "0x36f38f8e14099967d97e9fe44014924a8b6b680c",
          "topics": [
            "0xb5e5876e581890d703b910e6cc9dd85ea69410cb3f85b0cb3981162ec53876ec",
            "0x0000000000000000000000000000000000000000000000000000000000000000",
            "0x000000000000000000000000ff66ebbeb2da357b8f21e36c89340b5914dc7984"
          ],
          "data": "0x",
          "blockHash": "0x163fe44a7f0c350b542ec3ca3d951fbab7da2f895b8ba8752294590a2d826e41",
          "blockNumber": "0x920aeb",
          "transactionHash": "0x99cf3967cb768f41465b0dab45175d26b7846091a1bae5ec1af1061318c44183",
          "transactionIndex": "0x0",
          "logIndex": "0x0",
          "removed": false
        }
      ],
      "logsBloom": "0x00000000000000000000000000000000000000000000000040000000000000000000000000000000000000010000000000000004000000004000000000000000000000000800000000000000000000000000000000000000000000200000000000000000020000000000000000000800000000000000000000000000000000000000000000000000000000000200000000000000000000000000000000000000000000000000000000000000000000000000000000000000000000000000000000000000000000000000000000000000000000000000000000000000000020000000000000000000000000000400000000000000000000000002000000000000",
      "type": "0x2",
      "transactionHash": "0x99cf3967cb768f41465b0dab45175d26b7846091a1bae5ec1af1061318c44183",
      "transactionIndex": "0x0",
      "blockHash": "0x163fe44a7f0c350b542ec3ca3d951fbab7da2f895b8ba8752294590a2d826e41",
      "blockNumber": "0x920aeb",
      "gasUsed": "0xcd54",
      "effectiveGasPrice": "0x37e11d6f9",
      "from": "0x2162d8b4662d73ca296bee28bfe02f6e2527f6b4",
      "to": "0x36f38f8e14099967d97e9fe44014924a8b6b680c",
      "contractAddress": null
    },
    {
      "status": "0x1",
      "cumulativeGasUsed": "0xcd54",
      "logs": [
        {
          "address": "0x378b494fc06b031b02b3c7d9211bb75d2d2c0bbe",
          "topics": [
            "0xb5e5876e581890d703b910e6cc9dd85ea69410cb3f85b0cb3981162ec53876ec",
            "0x0000000000000000000000000000000000000000000000000000000000000000",
            "0x000000000000000000000000ff66ebbeb2da357b8f21e36c89340b5914dc7984"
          ],
          "data": "0x",
          "blockHash": "0x5235a50f63ca8536e920be8690da3efb41ac5fc056e9e9991d420d57db516113",
          "blockNumber": "0x920aed",
          "transactionHash": "0x185730515ef8ff9c29f367949dea473e857ac1a5cf4aded5f9de20bc3278d091",
          "transactionIndex": "0x0",
          "logIndex": "0x0",
          "removed": false
        }
      ],
      "logsBloom": "0x00000000000000000000000000000000000000000000000040000000000000000000000000000000200000010000000000000004000000004000000000000000000000000000000000000000020000000000000000000000000000000000000000000000020000000000000000000800000000000000000000000000000000000000000000000000000000000000000000000000000000000000000000000000000000000000000000000000000000000000000000000000000000004000000000000000000000000000000000000000000000000000000000000000000020000000000000000000000000000400000000000000000000000002000000000000",
      "type": "0x2",
      "transactionHash": "0x185730515ef8ff9c29f367949dea473e857ac1a5cf4aded5f9de20bc3278d091",
      "transactionIndex": "0x0",
      "blockHash": "0x5235a50f63ca8536e920be8690da3efb41ac5fc056e9e9991d420d57db516113",
      "blockNumber": "0x920aed",
      "gasUsed": "0xcd54",
      "effectiveGasPrice": "0x37e11d6f9",
      "from": "0x2162d8b4662d73ca296bee28bfe02f6e2527f6b4",
      "to": "0x378b494fc06b031b02b3c7d9211bb75d2d2c0bbe",
      "contractAddress": null
    },
    {
      "status": "0x1",
      "cumulativeGasUsed": "0xcd54",
      "logs": [
        {
          "address": "0x37f48e36422dc7b507c4bd34ac3ea8c4474b0b7f",
          "topics": [
            "0xb5e5876e581890d703b910e6cc9dd85ea69410cb3f85b0cb3981162ec53876ec",
            "0x0000000000000000000000000000000000000000000000000000000000000000",
            "0x000000000000000000000000ff66ebbeb2da357b8f21e36c89340b5914dc7984"
          ],
          "data": "0x",
          "blockHash": "0xc337252802fc1322b64d67a85f4280ea0db791bf1c6b9fcd28bdf831e4ee5646",
          "blockNumber": "0x920aef",
          "transactionHash": "0x4bfc4373d7156b180cf0585487b181494cb54f226f1d91266dc800e2e920cf32",
          "transactionIndex": "0x0",
          "logIndex": "0x0",
          "removed": false
        }
      ],
      "logsBloom": "0x00000000000000000000000000000000000000000000000040000000000000000000000000000000000000010000000000000004000000004000000000000000000000000000000000000000000000000000000000000000000000000000000100000000020000000002000000000800000000000000000000000000000000000000000000000000000000000010000000000000000000000000000000000000000000000000000000000000000000000000000000000000000000000000000000000000000000000000000000000000000000000000000000000000000020000000000000000000000000000400000000000000000000000002000000000000",
      "type": "0x2",
      "transactionHash": "0x4bfc4373d7156b180cf0585487b181494cb54f226f1d91266dc800e2e920cf32",
      "transactionIndex": "0x0",
      "blockHash": "0xc337252802fc1322b64d67a85f4280ea0db791bf1c6b9fcd28bdf831e4ee5646",
      "blockNumber": "0x920aef",
      "gasUsed": "0xcd54",
      "effectiveGasPrice": "0x37e11d6f9",
      "from": "0x2162d8b4662d73ca296bee28bfe02f6e2527f6b4",
      "to": "0x37f48e36422dc7b507c4bd34ac3ea8c4474b0b7f",
      "contractAddress": null
    },
    {
      "status": "0x1",
      "cumulativeGasUsed": "0xcd54",
      "logs": [
        {
          "address": "0x395e20247663a32fe177adb4119d3998d0004abc",
          "topics": [
            "0xb5e5876e581890d703b910e6cc9dd85ea69410cb3f85b0cb3981162ec53876ec",
            "0x0000000000000000000000000000000000000000000000000000000000000000",
            "0x000000000000000000000000ff66ebbeb2da357b8f21e36c89340b5914dc7984"
          ],
          "data": "0x",
          "blockHash": "0xf48a452e89cffe659bb07f14fc9e247c786686b4cd27220dd30cde2365df9c91",
          "blockNumber": "0x920af1",
          "transactionHash": "0xee8af49523285dc12fd96597873df0ad9d9fd6bfc9f3b48d0b9a0af2bc2359fc",
          "transactionIndex": "0x0",
          "logIndex": "0x0",
          "removed": false
        }
      ],
      "logsBloom": "0x0100000000000000000000000000000000000000000000004000000000000000000000000000000000000001000000000000000400000000c000000000000000000000000000000000000000000000000000000000000000000000000000000000000000020200000000000000000800000000000000000000000000000000000000000000000000000000000000000000000000000000000000000000000000000000000000000000000000000000000000000000000000000000000000000000000000000000000000000000000000000000000000000000000000000020000000000000000000000000000400000000000000000000000002000000000000",
      "type": "0x2",
      "transactionHash": "0xee8af49523285dc12fd96597873df0ad9d9fd6bfc9f3b48d0b9a0af2bc2359fc",
      "transactionIndex": "0x0",
      "blockHash": "0xf48a452e89cffe659bb07f14fc9e247c786686b4cd27220dd30cde2365df9c91",
      "blockNumber": "0x920af1",
      "gasUsed": "0xcd54",
      "effectiveGasPrice": "0x37e11d6f9",
      "from": "0x2162d8b4662d73ca296bee28bfe02f6e2527f6b4",
      "to": "0x395e20247663a32fe177adb4119d3998d0004abc",
      "contractAddress": null
    },
    {
      "status": "0x1",
      "cumulativeGasUsed": "0xcd54",
      "logs": [
        {
          "address": "0x39a43052de5e15f4b7a08d0f8cda209fdf239bf1",
          "topics": [
            "0xb5e5876e581890d703b910e6cc9dd85ea69410cb3f85b0cb3981162ec53876ec",
            "0x0000000000000000000000000000000000000000000000000000000000000000",
            "0x000000000000000000000000ff66ebbeb2da357b8f21e36c89340b5914dc7984"
          ],
          "data": "0x",
          "blockHash": "0xc7f50dd9c30813f24e6fc9553fb2218c5912164d6e66cfe769f0fc91cbeec4af",
          "blockNumber": "0x920af3",
          "transactionHash": "0xfe260886397f2ee9e8de5716069c1e8b184b4f17f127b6d2fe3a76e44a429fa8",
          "transactionIndex": "0x0",
          "logIndex": "0x0",
          "removed": false
        }
      ],
      "logsBloom": "0x00000000000000000000000000000000000000000000000040000000000000000000000000000000000800010000000000000004000000004000000000000000000000000000000000000000000000000000000000000000000000000000000000000000020000000000000000000800000000000000000000020000000000000040000000000000000000000000000000000000000000000000000000000000000000000000000000000000000000000000000000000000000000000000000000000000000000000000000000000000000000000000000000000000000020000000000000000000000000000400000000000000000000000002000000000000",
      "type": "0x2",
      "transactionHash": "0xfe260886397f2ee9e8de5716069c1e8b184b4f17f127b6d2fe3a76e44a429fa8",
      "transactionIndex": "0x0",
      "blockHash": "0xc7f50dd9c30813f24e6fc9553fb2218c5912164d6e66cfe769f0fc91cbeec4af",
      "blockNumber": "0x920af3",
      "gasUsed": "0xcd54",
      "effectiveGasPrice": "0x37e11d6f9",
      "from": "0x2162d8b4662d73ca296bee28bfe02f6e2527f6b4",
      "to": "0x39a43052de5e15f4b7a08d0f8cda209fdf239bf1",
      "contractAddress": null
    },
    {
      "status": "0x1",
      "cumulativeGasUsed": "0xcd54",
      "logs": [
        {
          "address": "0x41a00d28b99508e67c15a289601bd47fb90d3b7a",
          "topics": [
            "0xb5e5876e581890d703b910e6cc9dd85ea69410cb3f85b0cb3981162ec53876ec",
            "0x0000000000000000000000000000000000000000000000000000000000000000",
            "0x000000000000000000000000ff66ebbeb2da357b8f21e36c89340b5914dc7984"
          ],
          "data": "0x",
          "blockHash": "0xb3867e7b72372cc7bff2e55d99798eddf005164363d958bd4b7095743da381b6",
          "blockNumber": "0x920af5",
          "transactionHash": "0xc1d86b2ed00f68e39507b606560bb1039fe41c88dc6167f950805e5463ca3ebe",
          "transactionIndex": "0x0",
          "logIndex": "0x0",
          "removed": false
        }
      ],
      "logsBloom": "0x00000000000000000000000000000000000000000000000040000000000000000000000000000000000000010000000000000004000000004000000000000000000000000040000000000000000000000000000000000000000000000000000000000000020000000000000000000800000000000000000000000000000000000000000000000000000000000000000000000000000000000000000000000000000000000000000000000000000000000000000000000000000000000000000000000000000000000000200000000000000000000000000000000000000020000000000000000000000000000400000000000000000000000002000000004000",
      "type": "0x2",
      "transactionHash": "0xc1d86b2ed00f68e39507b606560bb1039fe41c88dc6167f950805e5463ca3ebe",
      "transactionIndex": "0x0",
      "blockHash": "0xb3867e7b72372cc7bff2e55d99798eddf005164363d958bd4b7095743da381b6",
      "blockNumber": "0x920af5",
      "gasUsed": "0xcd54",
      "effectiveGasPrice": "0x37e11d6f9",
      "from": "0x2162d8b4662d73ca296bee28bfe02f6e2527f6b4",
      "to": "0x41a00d28b99508e67c15a289601bd47fb90d3b7a",
      "contractAddress": null
    },
    {
      "status": "0x1",
      "cumulativeGasUsed": "0xcd54",
      "logs": [
        {
          "address": "0x4c0d82fcd7dfd8ec6f89be4180d16e2fe47e8ab8",
          "topics": [
            "0xb5e5876e581890d703b910e6cc9dd85ea69410cb3f85b0cb3981162ec53876ec",
            "0x0000000000000000000000000000000000000000000000000000000000000000",
            "0x000000000000000000000000ff66ebbeb2da357b8f21e36c89340b5914dc7984"
          ],
          "data": "0x",
          "blockHash": "0x5a3f424129f28be190d90137d2c3b15751ae06e588d1e83ebbad526fd5708d3b",
          "blockNumber": "0x920af6",
          "transactionHash": "0x07e0d875e2f8f7402cdac192c81b6834029d87170ce62a641846efd1e7d032c0",
          "transactionIndex": "0x0",
          "logIndex": "0x0",
          "removed": false
        }
      ],
      "logsBloom": "0x00000000000000000000000000000000000000000000000040000000000000000000000000000000000000010000000000000004000000004000000000000000000000000000002000000000000000000000000000000000000000000000000000000000820000000000000000000800000000000000000000000000000000000000000000000000000000000000000000000000000000000000000000000000000000000000000000000000000000000000000000000000000000000000000000000001000000000000000000000000000000000000000000000000000020000000000000000000000000000400000000000000000000000002000000000000",
      "type": "0x2",
      "transactionHash": "0x07e0d875e2f8f7402cdac192c81b6834029d87170ce62a641846efd1e7d032c0",
      "transactionIndex": "0x0",
      "blockHash": "0x5a3f424129f28be190d90137d2c3b15751ae06e588d1e83ebbad526fd5708d3b",
      "blockNumber": "0x920af6",
      "gasUsed": "0xcd54",
      "effectiveGasPrice": "0x37e11d6f9",
      "from": "0x2162d8b4662d73ca296bee28bfe02f6e2527f6b4",
      "to": "0x4c0d82fcd7dfd8ec6f89be4180d16e2fe47e8ab8",
      "contractAddress": null
    },
    {
      "status": "0x1",
      "cumulativeGasUsed": "0xcd54",
      "logs": [
        {
          "address": "0x4dcda9e6a873163da348156850201123a23f0200",
          "topics": [
            "0xb5e5876e581890d703b910e6cc9dd85ea69410cb3f85b0cb3981162ec53876ec",
            "0x0000000000000000000000000000000000000000000000000000000000000000",
            "0x000000000000000000000000ff66ebbeb2da357b8f21e36c89340b5914dc7984"
          ],
          "data": "0x",
          "blockHash": "0x1f508f09c2824ba2a8f3ade9c911e1b47c782c36461cfec42ce071cc9f88ae86",
          "blockNumber": "0x920af8",
          "transactionHash": "0x0b047438d7412cb6ef66e523085aef4da1df988e224a19de4de44ee72df7f4af",
          "transactionIndex": "0x0",
          "logIndex": "0x0",
          "removed": false
        }
      ],
      "logsBloom": "0x00000000000000000000000000000000000000000000000040010000000000800000000000000000000000010000000000000004000000004000000000000000000000000000000000000000000000000000000000000000000000000000000000000000020000000000000000000800000000000000000000000000000000000000000000000000000000000000000000000000000000000000000000000000000000000000000000000000000000000000000000000000000000000000000000000000000000000000000000000000000000000000000000000000000020000000000000000008000000000400000000000000000000000002000000000000",
      "type": "0x2",
      "transactionHash": "0x0b047438d7412cb6ef66e523085aef4da1df988e224a19de4de44ee72df7f4af",
      "transactionIndex": "0x0",
      "blockHash": "0x1f508f09c2824ba2a8f3ade9c911e1b47c782c36461cfec42ce071cc9f88ae86",
      "blockNumber": "0x920af8",
      "gasUsed": "0xcd54",
      "effectiveGasPrice": "0x37e11d6f9",
      "from": "0x2162d8b4662d73ca296bee28bfe02f6e2527f6b4",
      "to": "0x4dcda9e6a873163da348156850201123a23f0200",
      "contractAddress": null
    },
    {
      "status": "0x1",
      "cumulativeGasUsed": "0xcd54",
      "logs": [
        {
          "address": "0x54ac5950e3c814dd46eda2ab79ee1d058c40b5be",
          "topics": [
            "0xb5e5876e581890d703b910e6cc9dd85ea69410cb3f85b0cb3981162ec53876ec",
            "0x0000000000000000000000000000000000000000000000000000000000000000",
            "0x000000000000000000000000ff66ebbeb2da357b8f21e36c89340b5914dc7984"
          ],
          "data": "0x",
          "blockHash": "0x59cf04b34d4e0fddad8a5d6fcc1885effbda79d153c9be6758cd3e4267f2798e",
          "blockNumber": "0x920af9",
          "transactionHash": "0xebc1e4925a7a0867db9f33d6d32a2904ae6c39cb1cb28402b3b2b86894204430",
          "transactionIndex": "0x0",
          "logIndex": "0x0",
          "removed": false
        }
      ],
      "logsBloom": "0x00000000000000000000000080000000000000000000000040000000000000000000000000000000000000010000000000000004000000004000000000000000000000000000000000000000000000000000000000000000000000000000000000000000020000000000000000000800004000000000000000000000000000000000000000000000000000000000000000000000000000000000000000000000000000000000000000000000000000000000000000000000000000000000000000000000000000000000000000000000000000000040000000000000000020000000000000000000000000000400000000000000000000000002000000000000",
      "type": "0x2",
      "transactionHash": "0xebc1e4925a7a0867db9f33d6d32a2904ae6c39cb1cb28402b3b2b86894204430",
      "transactionIndex": "0x0",
      "blockHash": "0x59cf04b34d4e0fddad8a5d6fcc1885effbda79d153c9be6758cd3e4267f2798e",
      "blockNumber": "0x920af9",
      "gasUsed": "0xcd54",
      "effectiveGasPrice": "0x37e11d6f9",
      "from": "0x2162d8b4662d73ca296bee28bfe02f6e2527f6b4",
      "to": "0x54ac5950e3c814dd46eda2ab79ee1d058c40b5be",
      "contractAddress": null
    },
    {
      "status": "0x1",
      "cumulativeGasUsed": "0xcd54",
      "logs": [
        {
          "address": "0x5e13237887f04f48d1b0ea2b6c88abb1dda1bc55",
          "topics": [
            "0xb5e5876e581890d703b910e6cc9dd85ea69410cb3f85b0cb3981162ec53876ec",
            "0x0000000000000000000000000000000000000000000000000000000000000000",
            "0x000000000000000000000000ff66ebbeb2da357b8f21e36c89340b5914dc7984"
          ],
          "data": "0x",
          "blockHash": "0x946008e9d3f6c85cfce4941d723e89300d0ff162987b2956c114bae34ed87197",
          "blockNumber": "0x920afa",
          "transactionHash": "0xc32ba75815331eb1b9281bd8c04f50f54a574a0c7438c5435160ce28963ef199",
          "transactionIndex": "0x0",
          "logIndex": "0x0",
          "removed": false
        }
      ],
      "logsBloom": "0x00000000000000000000000000000000000000000000000040000000000000000000000000000000020000010000000002000004000000104000000000000000000000000000000000000000000000000000000000000000000000000000000000000000020000000000000000000800000000000000000000000000000000000000000000000000000000000000000000000000000000000000000000000000000000000000000000000000000000000000000000000000000000000000000000000000000000000000000000000000000000000000000000000000000020000000000000000000000000000400000000000000000000000002000000000000",
      "type": "0x2",
      "transactionHash": "0xc32ba75815331eb1b9281bd8c04f50f54a574a0c7438c5435160ce28963ef199",
      "transactionIndex": "0x0",
      "blockHash": "0x946008e9d3f6c85cfce4941d723e89300d0ff162987b2956c114bae34ed87197",
      "blockNumber": "0x920afa",
      "gasUsed": "0xcd54",
      "effectiveGasPrice": "0x37e11d6f9",
      "from": "0x2162d8b4662d73ca296bee28bfe02f6e2527f6b4",
      "to": "0x5e13237887f04f48d1b0ea2b6c88abb1dda1bc55",
      "contractAddress": null
    },
    {
      "status": "0x1",
      "cumulativeGasUsed": "0xcd54",
      "logs": [
        {
          "address": "0x7355939d127b3000a25d51147906401621c5b896",
          "topics": [
            "0xb5e5876e581890d703b910e6cc9dd85ea69410cb3f85b0cb3981162ec53876ec",
            "0x0000000000000000000000000000000000000000000000000000000000000000",
            "0x000000000000000000000000ff66ebbeb2da357b8f21e36c89340b5914dc7984"
          ],
          "data": "0x",
          "blockHash": "0x414e0a357aca093bb43d6cd8f1d75f6d0636271865a44ff5865183d5247cc141",
          "blockNumber": "0x920afb",
          "transactionHash": "0xb4ee53becbdf524dd965af6f9037d7ee39f63ff367613787b54c92cef3aeaee4",
          "transactionIndex": "0x0",
          "logIndex": "0x0",
          "removed": false
        }
      ],
      "logsBloom": "0x00000000000000000000000000000000000000000000000040000000000000000000000000000000000000010000000000000004000000004000000000000000000000000000100000000000000000000000000000000000000000000000000000000000020000000000000000000800000000000000000000000000000000000000000000000000000000000000000000000000000000000000000000000000000000000000000000000000000000000000000000000000000000000000000000000000000000000000000000000000000000000000000000000000000020000000000000000000000000000400000000000000000000000002000000200000",
      "type": "0x2",
      "transactionHash": "0xb4ee53becbdf524dd965af6f9037d7ee39f63ff367613787b54c92cef3aeaee4",
      "transactionIndex": "0x0",
      "blockHash": "0x414e0a357aca093bb43d6cd8f1d75f6d0636271865a44ff5865183d5247cc141",
      "blockNumber": "0x920afb",
      "gasUsed": "0xcd54",
      "effectiveGasPrice": "0x37e11d6f9",
      "from": "0x2162d8b4662d73ca296bee28bfe02f6e2527f6b4",
      "to": "0x7355939d127b3000a25d51147906401621c5b896",
      "contractAddress": null
    },
    {
      "status": "0x1",
      "cumulativeGasUsed": "0xcd54",
      "logs": [
        {
          "address": "0x833505612a179a9d3bdaba7e32ea81d1018e5696",
          "topics": [
            "0xb5e5876e581890d703b910e6cc9dd85ea69410cb3f85b0cb3981162ec53876ec",
            "0x0000000000000000000000000000000000000000000000000000000000000000",
            "0x000000000000000000000000ff66ebbeb2da357b8f21e36c89340b5914dc7984"
          ],
          "data": "0x",
          "blockHash": "0xf811356e187903aaf05b82f4d6f353e673f4709f76e4a96a7ab7dd2b3383e1f5",
          "blockNumber": "0x920afd",
          "transactionHash": "0xf9fe37dabde91dc3a0f96193cdf9f079c6b0362aadb44b26cf05e472f28d13cf",
          "transactionIndex": "0x0",
          "logIndex": "0x0",
          "removed": false
        }
      ],
      "logsBloom": "0x00000001000000000000000000000000000000000000000040000000000000000000000000000000000000010000000000000004000000004000000000000000000000000004000000000000000000000000000000000000000000000000000000000000020000000000000000000800000000000000000000000000000000000000000000000000000000000000000000000000000000000000000000000000000000000040000000000000000000000000000000000000000000000000000000000000000000000000000000000000000000000000000000000000000020000000000000000000000000000400000000000000000000000002000000000000",
      "type": "0x2",
      "transactionHash": "0xf9fe37dabde91dc3a0f96193cdf9f079c6b0362aadb44b26cf05e472f28d13cf",
      "transactionIndex": "0x0",
      "blockHash": "0xf811356e187903aaf05b82f4d6f353e673f4709f76e4a96a7ab7dd2b3383e1f5",
      "blockNumber": "0x920afd",
      "gasUsed": "0xcd54",
      "effectiveGasPrice": "0x37e11d6f9",
      "from": "0x2162d8b4662d73ca296bee28bfe02f6e2527f6b4",
      "to": "0x833505612a179a9d3bdaba7e32ea81d1018e5696",
      "contractAddress": null
    },
    {
      "status": "0x1",
      "cumulativeGasUsed": "0xcd54",
      "logs": [
        {
          "address": "0x84cc168d0c682085951451c9e5b8da987c4a23ba",
          "topics": [
            "0xb5e5876e581890d703b910e6cc9dd85ea69410cb3f85b0cb3981162ec53876ec",
            "0x0000000000000000000000000000000000000000000000000000000000000000",
            "0x000000000000000000000000ff66ebbeb2da357b8f21e36c89340b5914dc7984"
          ],
          "data": "0x",
          "blockHash": "0xd620a2785a819a3c49b167d56ea2a9387e34eae08a9d9d7a09c575e82cbabd9c",
          "blockNumber": "0x920afe",
          "transactionHash": "0xe54f6d7a604b6209dc7666c85a739d95361968e04811391804921395cf4c5e93",
          "transactionIndex": "0x0",
          "logIndex": "0x0",
          "removed": false
        }
      ],
      "logsBloom": "0x00000000000000000000000000000000000000000000000040000000000000000000000400000000000000050000000000000004000000004000000000000000000000000000000000000000000000000000000000000000000000000000000000000000020000000000000000000800000000000000000000000000000000000000000000000000000000000000000000000000000000000400000000000000000000000000000000000000000000000000000000000000000000000000000000000000000000000000000000000000000000000000000000000000000020000000000000000000000000000400000000000000000000000002000000000000",
      "type": "0x2",
      "transactionHash": "0xe54f6d7a604b6209dc7666c85a739d95361968e04811391804921395cf4c5e93",
      "transactionIndex": "0x0",
      "blockHash": "0xd620a2785a819a3c49b167d56ea2a9387e34eae08a9d9d7a09c575e82cbabd9c",
      "blockNumber": "0x920afe",
      "gasUsed": "0xcd54",
      "effectiveGasPrice": "0x37e11d6f9",
      "from": "0x2162d8b4662d73ca296bee28bfe02f6e2527f6b4",
      "to": "0x84cc168d0c682085951451c9e5b8da987c4a23ba",
      "contractAddress": null
    },
    {
      "status": "0x1",
      "cumulativeGasUsed": "0xcd54",
      "logs": [
        {
          "address": "0x907cd078bdf8434de15f57ee5cc703142367d8f5",
          "topics": [
            "0xb5e5876e581890d703b910e6cc9dd85ea69410cb3f85b0cb3981162ec53876ec",
            "0x0000000000000000000000000000000000000000000000000000000000000000",
            "0x000000000000000000000000ff66ebbeb2da357b8f21e36c89340b5914dc7984"
          ],
          "data": "0x",
          "blockHash": "0xf57a9e9865cd6dbe686455d7cfad1cbb0e30fb5b26dee91e6c8839e901dd12df",
          "blockNumber": "0x920b00",
          "transactionHash": "0xd666d92b6822a5dfad79c5a6e955bc317dd877742a67343e676060ba4f99c1f2",
          "transactionIndex": "0x0",
          "logIndex": "0x0",
          "removed": false
        }
      ],
      "logsBloom": "0x00000000000000000000000000000000000000000000000040000000000000000000000000000000000000010000000000000004000000004000000000000000000000000000000000004000000000000000000000000000000000000000000000000000020000000000000000000800000000000000000000000000000000000000000000000000000000400000000000000000000000000000000000000000000000000000000000000000000000000000000000000000000000000000000000000000000000000000000000000000000000000000000000000000000020000000000000000000000000000400000000000000000010000002000000000000",
      "type": "0x2",
      "transactionHash": "0xd666d92b6822a5dfad79c5a6e955bc317dd877742a67343e676060ba4f99c1f2",
      "transactionIndex": "0x0",
      "blockHash": "0xf57a9e9865cd6dbe686455d7cfad1cbb0e30fb5b26dee91e6c8839e901dd12df",
      "blockNumber": "0x920b00",
      "gasUsed": "0xcd54",
      "effectiveGasPrice": "0x37e11d6f9",
      "from": "0x2162d8b4662d73ca296bee28bfe02f6e2527f6b4",
      "to": "0x907cd078bdf8434de15f57ee5cc703142367d8f5",
      "contractAddress": null
    },
    {
      "status": "0x1",
      "cumulativeGasUsed": "0xcd54",
      "logs": [
        {
          "address": "0x9a055c017836361351dcbd6a1f40cfc361e8497a",
          "topics": [
            "0xb5e5876e581890d703b910e6cc9dd85ea69410cb3f85b0cb3981162ec53876ec",
            "0x0000000000000000000000000000000000000000000000000000000000000000",
            "0x000000000000000000000000ff66ebbeb2da357b8f21e36c89340b5914dc7984"
          ],
          "data": "0x",
          "blockHash": "0x8f2bf4053c739fefbe9353eace95365f9bd821593d8178fcdd578faa408de836",
          "blockNumber": "0x920b01",
          "transactionHash": "0xfd226fbbdb1da7581cbc486b3384010d60f03a0431d1386681ec1f6065b685f7",
          "transactionIndex": "0x0",
          "logIndex": "0x0",
          "removed": false
        }
      ],
      "logsBloom": "0x00000000000000000000000000000400000000000000000040000000000000000000000000000000000000010000000000000004000000004000000000000000000000000000000000000000000000000000000000000000000000000000000000000000020000000000000000000800000000000000000000000000000000000000000000000000000000000000000000000000000000000000000000000000000000200000000000000000000000040000000000000000000000000000000000000000000000000000000000000000000000000000000000000000000020000000000000000000000000000400000000000000000000000002000000000000",
      "type": "0x2",
      "transactionHash": "0xfd226fbbdb1da7581cbc486b3384010d60f03a0431d1386681ec1f6065b685f7",
      "transactionIndex": "0x0",
      "blockHash": "0x8f2bf4053c739fefbe9353eace95365f9bd821593d8178fcdd578faa408de836",
      "blockNumber": "0x920b01",
      "gasUsed": "0xcd54",
      "effectiveGasPrice": "0x37e11d6f9",
      "from": "0x2162d8b4662d73ca296bee28bfe02f6e2527f6b4",
      "to": "0x9a055c017836361351dcbd6a1f40cfc361e8497a",
      "contractAddress": null
    },
    {
      "status": "0x1",
      "cumulativeGasUsed": "0xcd54",
      "logs": [
        {
          "address": "0x9c17373c6990281e707ea82dec26093129747d33",
          "topics": [
            "0xb5e5876e581890d703b910e6cc9dd85ea69410cb3f85b0cb3981162ec53876ec",
            "0x0000000000000000000000000000000000000000000000000000000000000000",
            "0x000000000000000000000000ff66ebbeb2da357b8f21e36c89340b5914dc7984"
          ],
          "data": "0x",
          "blockHash": "0xccca0d2f593f89a130f3317196818b312d2361366a01300c8d9345a1c6e370b5",
          "blockNumber": "0x920b03",
          "transactionHash": "0x50336f8497d8e974501b457fecbf38a0785e59aebaa0bce8daebbed509f8f82a",
          "transactionIndex": "0x0",
          "logIndex": "0x0",
          "removed": false
        }
      ],
      "logsBloom": "0x00000000000000000000000000000000000000000000000040000000000000000000000000000000000000010000000000000004000000004000000000000000000000000000000080000000000000000000000000000000000000000000000000000000020000000000000000000800000000000000000000000000000000000000000000000000000000000000000000000000000000000200000000000000000000000000000000000000000000000000000000000000000000000000000000000000000000000000000000000000000000000000000000000000000020000000000000000000000080000400000000000000000000000002000000000000",
      "type": "0x2",
      "transactionHash": "0x50336f8497d8e974501b457fecbf38a0785e59aebaa0bce8daebbed509f8f82a",
      "transactionIndex": "0x0",
      "blockHash": "0xccca0d2f593f89a130f3317196818b312d2361366a01300c8d9345a1c6e370b5",
      "blockNumber": "0x920b03",
      "gasUsed": "0xcd54",
      "effectiveGasPrice": "0x37e11d6f9",
      "from": "0x2162d8b4662d73ca296bee28bfe02f6e2527f6b4",
      "to": "0x9c17373c6990281e707ea82dec26093129747d33",
      "contractAddress": null
    },
    {
      "status": "0x1",
      "cumulativeGasUsed": "0xcd54",
      "logs": [
        {
          "address": "0xaaa1bab87801cb6f0a12a85b39ba2a9f32ca93de",
          "topics": [
            "0xb5e5876e581890d703b910e6cc9dd85ea69410cb3f85b0cb3981162ec53876ec",
            "0x0000000000000000000000000000000000000000000000000000000000000000",
            "0x000000000000000000000000ff66ebbeb2da357b8f21e36c89340b5914dc7984"
          ],
          "data": "0x",
          "blockHash": "0xe97ff9c1ad7fe85bb8f5babb24d737ab9199cba4f74f67589d787f1fd69f63eb",
          "blockNumber": "0x920b04",
          "transactionHash": "0x8cf84cf8492106f800ce69d1d06b8ae01b721fccdfd79968f098219fc8d59566",
          "transactionIndex": "0x0",
          "logIndex": "0x0",
          "removed": false
        }
      ],
      "logsBloom": "0x00000000000000000000000000000000000000000000000040000000000000000000000000000000000040010000000000000004000000004000000000000000000000000000000000000000000000000000000000000000000000000000000000000000020000000000000000000800000000000000000000000000000000000000000000000000000000000000000000000000000000000000000000000000000000000000000000000000000000000000000000000000000000000000000000000000000000000000000000000000000000000000000000000080000020000000004000000000000000000400000000000000000000000002000000000000",
      "type": "0x2",
      "transactionHash": "0x8cf84cf8492106f800ce69d1d06b8ae01b721fccdfd79968f098219fc8d59566",
      "transactionIndex": "0x0",
      "blockHash": "0xe97ff9c1ad7fe85bb8f5babb24d737ab9199cba4f74f67589d787f1fd69f63eb",
      "blockNumber": "0x920b04",
      "gasUsed": "0xcd54",
      "effectiveGasPrice": "0x37e11d6f9",
      "from": "0x2162d8b4662d73ca296bee28bfe02f6e2527f6b4",
      "to": "0xaaa1bab87801cb6f0a12a85b39ba2a9f32ca93de",
      "contractAddress": null
    },
    {
      "status": "0x1",
      "cumulativeGasUsed": "0xcd54",
      "logs": [
        {
          "address": "0xb13781b90cda335c9e074ab5176feb84228bed03",
          "topics": [
            "0xb5e5876e581890d703b910e6cc9dd85ea69410cb3f85b0cb3981162ec53876ec",
            "0x0000000000000000000000000000000000000000000000000000000000000000",
            "0x000000000000000000000000ff66ebbeb2da357b8f21e36c89340b5914dc7984"
          ],
          "data": "0x",
          "blockHash": "0x53f8a0c1bfcea16529c2a5f3185aa530a6cbeba14b8744ceeb3d7d8a0d2853e2",
          "blockNumber": "0x920b05",
          "transactionHash": "0xe5ce10e46d9bc19ccd121440dd24c1fdd338f09b0c5f723269af7df9ce35509f",
          "transactionIndex": "0x0",
          "logIndex": "0x0",
          "removed": false
        }
      ],
      "logsBloom": "0x00000000000000000000000000000000000000000000000040000000000000000000000000000000000000010000000000000004000000004000000000000000000000000000000000000000000000000000000000000000000000000000000000000000020001000000000000000800000000000000000000000000000000000000000000000000000000000000000000000000000000000000000000000000000000000000000000000000000000000000000000000000000000000000000000000000000000000000000000000000000000000000000000000000000020000000000100000000000000000400000000000000000000000002002000000000",
      "type": "0x2",
      "transactionHash": "0xe5ce10e46d9bc19ccd121440dd24c1fdd338f09b0c5f723269af7df9ce35509f",
      "transactionIndex": "0x0",
      "blockHash": "0x53f8a0c1bfcea16529c2a5f3185aa530a6cbeba14b8744ceeb3d7d8a0d2853e2",
      "blockNumber": "0x920b05",
      "gasUsed": "0xcd54",
      "effectiveGasPrice": "0x37e11d6f9",
      "from": "0x2162d8b4662d73ca296bee28bfe02f6e2527f6b4",
      "to": "0xb13781b90cda335c9e074ab5176feb84228bed03",
      "contractAddress": null
    },
    {
      "status": "0x1",
      "cumulativeGasUsed": "0xcd54",
      "logs": [
        {
          "address": "0xba6ee3916acb840edf91c9f4240fcbc828335aa6",
          "topics": [
            "0xb5e5876e581890d703b910e6cc9dd85ea69410cb3f85b0cb3981162ec53876ec",
            "0x0000000000000000000000000000000000000000000000000000000000000000",
            "0x000000000000000000000000ff66ebbeb2da357b8f21e36c89340b5914dc7984"
          ],
          "data": "0x",
          "blockHash": "0x80aea69ad22a8e14ad81d5e84857d56d1052f557a2f967894c15dc1dc1ce4295",
          "blockNumber": "0x920b06",
          "transactionHash": "0xf41c3fd2cbdad707427ef9ed55e828cb3da9dff5a283b9fd96934b285cb8d2b1",
          "transactionIndex": "0x0",
          "logIndex": "0x0",
          "removed": false
        }
      ],
      "logsBloom": "0x00000000000000000000000002000000000000000000000040000000000000000000000000000000000000010000000000000004000000004000000000000000000000000000000000000000000000000000000000000000000000000000000000000000020000000000000000000800000000000000000000000000000000000000000000000000000000000000000000000000000000000000000000000000000001000000000000000000000000000000000000000000000000000000000000000000000000000000000000000000000000000000000000000000000020000000000000000000000000000400000000000002000000000002000000000000",
      "type": "0x2",
      "transactionHash": "0xf41c3fd2cbdad707427ef9ed55e828cb3da9dff5a283b9fd96934b285cb8d2b1",
      "transactionIndex": "0x0",
      "blockHash": "0x80aea69ad22a8e14ad81d5e84857d56d1052f557a2f967894c15dc1dc1ce4295",
      "blockNumber": "0x920b06",
      "gasUsed": "0xcd54",
      "effectiveGasPrice": "0x37e11d6f9",
      "from": "0x2162d8b4662d73ca296bee28bfe02f6e2527f6b4",
      "to": "0xba6ee3916acb840edf91c9f4240fcbc828335aa6",
      "contractAddress": null
    },
    {
      "status": "0x1",
      "cumulativeGasUsed": "0xcd54",
      "logs": [
        {
          "address": "0xbb06e3a4816bdf1d63b9437d6d7e929e7042a119",
          "topics": [
            "0xb5e5876e581890d703b910e6cc9dd85ea69410cb3f85b0cb3981162ec53876ec",
            "0x0000000000000000000000000000000000000000000000000000000000000000",
            "0x000000000000000000000000ff66ebbeb2da357b8f21e36c89340b5914dc7984"
          ],
          "data": "0x",
          "blockHash": "0xd38c9c70f601eb2135e5822278a57943e9e531205d86fad64a4d0ac6fb67a63e",
          "blockNumber": "0x920b07",
          "transactionHash": "0x3ba7f2067f9b07a75434e3d5703a34f3c58536388fb86000d87b480172b4c058",
          "transactionIndex": "0x0",
          "logIndex": "0x0",
          "removed": false
        }
      ],
      "logsBloom": "0x00010000000000080000000000000000000000000000000040000000000000000000000000000000000000010000000000000004000000004000000000000000000000000000000000000000000000000000000000000000000000000000000000000000020000000000000000000800000000000000000000000000000000000000000000000000000000000000000000000000000000000000000000000000000000000000000000000000000000000000000000000000000000000000000000000000000000000000000000000000004000000000000000000000000020000000000000000000000000000400000000000000000000000002000000000000",
      "type": "0x2",
      "transactionHash": "0x3ba7f2067f9b07a75434e3d5703a34f3c58536388fb86000d87b480172b4c058",
      "transactionIndex": "0x0",
      "blockHash": "0xd38c9c70f601eb2135e5822278a57943e9e531205d86fad64a4d0ac6fb67a63e",
      "blockNumber": "0x920b07",
      "gasUsed": "0xcd54",
      "effectiveGasPrice": "0x37e11d6f9",
      "from": "0x2162d8b4662d73ca296bee28bfe02f6e2527f6b4",
      "to": "0xbb06e3a4816bdf1d63b9437d6d7e929e7042a119",
      "contractAddress": null
    },
    {
      "status": "0x1",
      "cumulativeGasUsed": "0xcd54",
      "logs": [
        {
          "address": "0xc71c1337efc2f495327f21f093aad49dcf81a2ec",
          "topics": [
            "0xb5e5876e581890d703b910e6cc9dd85ea69410cb3f85b0cb3981162ec53876ec",
            "0x0000000000000000000000000000000000000000000000000000000000000000",
            "0x000000000000000000000000ff66ebbeb2da357b8f21e36c89340b5914dc7984"
          ],
          "data": "0x",
          "blockHash": "0xafbcf7117d2206c622f9db5c6ba2ecd6a31cba38767c48e3369580bbc7706e22",
          "blockNumber": "0x920b08",
          "transactionHash": "0x6fef0fafbd4738c0653e13e2f4cd809f8423ad0bdc6e854658417abaa199b498",
          "transactionIndex": "0x0",
          "logIndex": "0x0",
          "removed": false
        }
      ],
      "logsBloom": "0x00000000000000000000000000000000000000000000000040000000000000000000000000000000000000010000000000000004000000004000000000000000000000000000000000000000000000000004000000000000000000000000000000000000020000000000000000400800000000000000000000000000000000000000000000000000000000000000000000000000000000000000000000000000000000000000000000000000000000000000000000000000000000000000000000000000000000000000000000000000000000000000000000000000000020000080000000000000000000000400000000000000000000000002000000000000",
      "type": "0x2",
      "transactionHash": "0x6fef0fafbd4738c0653e13e2f4cd809f8423ad0bdc6e854658417abaa199b498",
      "transactionIndex": "0x0",
      "blockHash": "0xafbcf7117d2206c622f9db5c6ba2ecd6a31cba38767c48e3369580bbc7706e22",
      "blockNumber": "0x920b08",
      "gasUsed": "0xcd54",
      "effectiveGasPrice": "0x37e11d6f9",
      "from": "0x2162d8b4662d73ca296bee28bfe02f6e2527f6b4",
      "to": "0xc71c1337efc2f495327f21f093aad49dcf81a2ec",
      "contractAddress": null
    },
    {
      "status": "0x1",
      "cumulativeGasUsed": "0xcd54",
      "logs": [
        {
          "address": "0xdb3646c6642c535e60ad6bf6059a50467484f5a3",
          "topics": [
            "0xb5e5876e581890d703b910e6cc9dd85ea69410cb3f85b0cb3981162ec53876ec",
            "0x0000000000000000000000000000000000000000000000000000000000000000",
            "0x000000000000000000000000ff66ebbeb2da357b8f21e36c89340b5914dc7984"
          ],
          "data": "0x",
          "blockHash": "0x429d97b83aa6ea389a750be241c3ea2d32f9ab9d518cef1985a5898eca29a5bd",
          "blockNumber": "0x920b0a",
          "transactionHash": "0x65c7f539647b43df37e47184c7bac990b21f005991a23fdf361c9152a2fc0401",
          "transactionIndex": "0x0",
          "logIndex": "0x0",
          "removed": false
        }
      ],
      "logsBloom": "0x00000000000000000000000000000000000000000000000040000000000000000000000000000000000000010000000000000004000000004000000000080000000000000000000000000000000000000000000000000000000000000000000000000000020000000000000000000800000000000000000000000000000000000000000000000000000000000000000000000000000000000000000000000000000000000000000000000000000000000000000000000000000000000000000000000000000000000000002000000000000000000000800000000000000020000000000000000000000000000400000000000000000000000002000000000000",
      "type": "0x2",
      "transactionHash": "0x65c7f539647b43df37e47184c7bac990b21f005991a23fdf361c9152a2fc0401",
      "transactionIndex": "0x0",
      "blockHash": "0x429d97b83aa6ea389a750be241c3ea2d32f9ab9d518cef1985a5898eca29a5bd",
      "blockNumber": "0x920b0a",
      "gasUsed": "0xcd54",
      "effectiveGasPrice": "0x37e11d6f9",
      "from": "0x2162d8b4662d73ca296bee28bfe02f6e2527f6b4",
      "to": "0xdb3646c6642c535e60ad6bf6059a50467484f5a3",
      "contractAddress": null
    },
    {
      "status": "0x1",
      "cumulativeGasUsed": "0xcd54",
      "logs": [
        {
          "address": "0xe30c5d32febf7846ff9ed4a4f21e44dea6ee7a59",
          "topics": [
            "0xb5e5876e581890d703b910e6cc9dd85ea69410cb3f85b0cb3981162ec53876ec",
            "0x0000000000000000000000000000000000000000000000000000000000000000",
            "0x000000000000000000000000ff66ebbeb2da357b8f21e36c89340b5914dc7984"
          ],
          "data": "0x",
          "blockHash": "0xfd0e984e4a2f206e044f12fe00e2ebfe84cd18051d998e5fcfc71c884562a807",
          "blockNumber": "0x920b0c",
          "transactionHash": "0x047feb281ceb65ad5e95a4493c9efda3d4a99ab0fccad9bf3a282ed58a8bc1c5",
          "transactionIndex": "0x0",
          "logIndex": "0x0",
          "removed": false
        }
      ],
      "logsBloom": "0x00000000000000000000000000000000000000000000000040000000000000000000000000000000000000010000100000000004000000004000000000000000000000000000000000000000000000000000000000000000000000000000000000000000020000000000000000000800000000000000000000000000000000000000000000000000000000000000000000000000000000000000000000800000000000000000000000000000000000000000000000000000000000000000000000000000000000000000000000000000000000000000000000000000000020000000000000000000000000000400000040000000000000000002000000000000",
      "type": "0x2",
      "transactionHash": "0x047feb281ceb65ad5e95a4493c9efda3d4a99ab0fccad9bf3a282ed58a8bc1c5",
      "transactionIndex": "0x0",
      "blockHash": "0xfd0e984e4a2f206e044f12fe00e2ebfe84cd18051d998e5fcfc71c884562a807",
      "blockNumber": "0x920b0c",
      "gasUsed": "0xcd54",
      "effectiveGasPrice": "0x37e11d6f9",
      "from": "0x2162d8b4662d73ca296bee28bfe02f6e2527f6b4",
      "to": "0xe30c5d32febf7846ff9ed4a4f21e44dea6ee7a59",
      "contractAddress": null
    },
    {
      "status": "0x1",
      "cumulativeGasUsed": "0xcd54",
      "logs": [
        {
          "address": "0xe81712057e4751c6a039ff7e4845850f7b51f8bd",
          "topics": [
            "0xb5e5876e581890d703b910e6cc9dd85ea69410cb3f85b0cb3981162ec53876ec",
            "0x0000000000000000000000000000000000000000000000000000000000000000",
            "0x000000000000000000000000ff66ebbeb2da357b8f21e36c89340b5914dc7984"
          ],
          "data": "0x",
          "blockHash": "0xcda71742c9d77ae96cce798997bcb06f47e190446bd0193da8b769143da3136b",
          "blockNumber": "0x920b0d",
          "transactionHash": "0x005073c50a2ef04339a0458aea97cde0730ebe99558dc58463cfd7d50f8be932",
          "transactionIndex": "0x0",
          "logIndex": "0x0",
          "removed": false
        }
      ],
      "logsBloom": "0x00000000000000000040000000000000000000000000000040000000000000000000000000000000000000010000000000000004000000004000000000000000000000000000000000000000000000000000000000000000000000000000000000000000020000000000000000000800000000000000000000000000000000000000000002000000000000000000000000000001000000000000000000000000000000000000000000000000000000000000000000000000000000000000000000000000000000000000000000000000000000000000000000000000000020000000000000000000000000000400000000000000000000000002000000000000",
      "type": "0x2",
      "transactionHash": "0x005073c50a2ef04339a0458aea97cde0730ebe99558dc58463cfd7d50f8be932",
      "transactionIndex": "0x0",
      "blockHash": "0xcda71742c9d77ae96cce798997bcb06f47e190446bd0193da8b769143da3136b",
      "blockNumber": "0x920b0d",
      "gasUsed": "0xcd54",
      "effectiveGasPrice": "0x37e11d6f9",
      "from": "0x2162d8b4662d73ca296bee28bfe02f6e2527f6b4",
      "to": "0xe81712057e4751c6a039ff7e4845850f7b51f8bd",
      "contractAddress": null
    },
    {
      "status": "0x1",
      "cumulativeGasUsed": "0xcd54",
      "logs": [
        {
          "address": "0xf637e481a25620b229e7991df2e2d6a308aa8d2b",
          "topics": [
            "0xb5e5876e581890d703b910e6cc9dd85ea69410cb3f85b0cb3981162ec53876ec",
            "0x0000000000000000000000000000000000000000000000000000000000000000",
            "0x000000000000000000000000ff66ebbeb2da357b8f21e36c89340b5914dc7984"
          ],
          "data": "0x",
          "blockHash": "0xfc33c422fcb4f558234bf1f124a55ba40c319069a21623901f32a86d1ff616ab",
          "blockNumber": "0x920b0f",
          "transactionHash": "0x52161a0cd86965d8503930fa33bbc3ed0e2701d036bec91a3eff6eea3c1562ae",
          "transactionIndex": "0x0",
          "logIndex": "0x0",
          "removed": false
        }
      ],
      "logsBloom": "0x00000000000000000000000000000000000000000000000040000000020020000000000000000000000000010000000000000004000000004000000000000000000000000000000000000000000000000000000000000000000000000000000000000000020000000000000000000800000000000000000000000000000000000000000000000000000000000000000000000000000000000000010000000000000000000000000000000000000000000000000000000000000000000000000000000000000000000000000000000000000000000000000000000000000020000000000000000000000000000400000000000000000000000002000000000000",
      "type": "0x2",
      "transactionHash": "0x52161a0cd86965d8503930fa33bbc3ed0e2701d036bec91a3eff6eea3c1562ae",
      "transactionIndex": "0x0",
      "blockHash": "0xfc33c422fcb4f558234bf1f124a55ba40c319069a21623901f32a86d1ff616ab",
      "blockNumber": "0x920b0f",
      "gasUsed": "0xcd54",
      "effectiveGasPrice": "0x37e11d6f9",
      "from": "0x2162d8b4662d73ca296bee28bfe02f6e2527f6b4",
      "to": "0xf637e481a25620b229e7991df2e2d6a308aa8d2b",
      "contractAddress": null
    },
    {
      "status": "0x1",
      "cumulativeGasUsed": "0xcd54",
      "logs": [
        {
          "address": "0xf7cbb2ab23a118257f050835b8d1380ac2a0154e",
          "topics": [
            "0xb5e5876e581890d703b910e6cc9dd85ea69410cb3f85b0cb3981162ec53876ec",
            "0x0000000000000000000000000000000000000000000000000000000000000000",
            "0x000000000000000000000000ff66ebbeb2da357b8f21e36c89340b5914dc7984"
          ],
          "data": "0x",
          "blockHash": "0x818d029191fc5cfaae25f049be7d047ee860d72a2968c43a9f7bda5e6442b3e5",
          "blockNumber": "0x920b11",
          "transactionHash": "0xbca9a9f28e2bad4433cb4120fd1bd37d90b295cb87d347177051791efc3e3bc9",
          "transactionIndex": "0x0",
          "logIndex": "0x0",
          "removed": false
        }
      ],
      "logsBloom": "0x00000000000000000000080000000000000000000000000040000000000000000000000000000000000000010000000000000004000000004000000000000000000000000000000000000000000000000000000000000000000000000000000000000000020000000000000000000800000000000000000000000000000000000000000000000000000000000000000000000000000000000000000000000000000000000000000000000000000000000000000000000000000000000000000000000000000000000000000000000000000000000000000000000000000020000000000000000000080000000404000000000000000000000002000000000000",
      "type": "0x2",
      "transactionHash": "0xbca9a9f28e2bad4433cb4120fd1bd37d90b295cb87d347177051791efc3e3bc9",
      "transactionIndex": "0x0",
      "blockHash": "0x818d029191fc5cfaae25f049be7d047ee860d72a2968c43a9f7bda5e6442b3e5",
      "blockNumber": "0x920b11",
      "gasUsed": "0xcd54",
      "effectiveGasPrice": "0x37e11d6f9",
      "from": "0x2162d8b4662d73ca296bee28bfe02f6e2527f6b4",
      "to": "0xf7cbb2ab23a118257f050835b8d1380ac2a0154e",
      "contractAddress": null
    }
  ],
  "libraries": [],
  "pending": [],
  "returns": {},
  "timestamp": 1782892847730,
  "chain": 1520,
  "commit": "497220f"
}