{
  "transactions": [
    {
      "hash": "0x55901564c903aa72a095eb56f16c7f97e16598dd2d017e5b1ac0499e39f14c7e",
      "transactionType": "CALL",
      "contractName": null,
      "contractAddress": "0x248cbe908e49471ab2278782f7d5adaf5d470df8",
      "function": "upgradeAndCall(address,address,bytes)",
      "arguments": [
        "0xe30C5d32feBf7846Ff9ed4A4f21E44dEA6Ee7A59",
        "0x916498207231F5171f7BeBB312a3e81D6a7aDfE0",
        "0x"
      ],
      "transaction": {
        "from": "0x2aa76c12368bc8aef4190400ef4af19fd0b4247c",
        "to": "0x248cbe908e49471ab2278782f7d5adaf5d470df8",
        "gas": "0xd4fc",
        "value": "0x0",
        "input": "0x9623609d000000000000000000000000e30c5d32febf7846ff9ed4a4f21e44dea6ee7a59000000000000000000000000916498207231f5171f7bebb312a3e81d6a7adfe000000000000000000000000000000000000000000000000000000000000000600000000000000000000000000000000000000000000000000000000000000000",
        "nonce": "0x317",
        "chainId": "0x5f0"
      },
      "additionalContracts": [],
      "isFixedGasLimit": false
    },
    {
      "hash": "0x31d44bf59125d26a1629edefc9b9a8046c80773586d4c1aee273d9c4ffc58027",
      "transactionType": "CALL",
      "contractName": null,
      "contractAddress": "0x96ad692deb46f380ed3bca517e0655d1d9bf31e1",
      "function": "upgradeAndCall(address,address,bytes)",
      "arguments": [
        "0x5e13237887F04F48d1b0EA2b6c88aBb1ddA1bc55",
        "0x916498207231F5171f7BeBB312a3e81D6a7aDfE0",
        "0x"
      ],
      "transaction": {
        "from": "0x2aa76c12368bc8aef4190400ef4af19fd0b4247c",
        "to": "0x96ad692deb46f380ed3bca517e0655d1d9bf31e1",
        "gas": "0xd4fc",
        "value": "0x0",
        "input": "0x9623609d0000000000000000000000005e13237887f04f48d1b0ea2b6c88abb1dda1bc55000000000000000000000000916498207231f5171f7bebb312a3e81d6a7adfe000000000000000000000000000000000000000000000000000000000000000600000000000000000000000000000000000000000000000000000000000000000",
        "nonce": "0x318",
        "chainId": "0x5f0"
      },
      "additionalContracts": [],
      "isFixedGasLimit": false
    },
    {
      "hash": "0xce09f664b4ab39c172ebf16987e7a3f7c7cfe15f8cd460ab5d6c3339b26b086c",
      "transactionType": "CALL",
      "contractName": null,
      "contractAddress": "0x7376888549fccd252a6b1183f2e3a39d3e5f7959",
      "function": "upgradeAndCall(address,address,bytes)",
      "arguments": [
        "0x378b494FC06B031B02b3c7D9211BB75d2d2c0bBe",
        "0x916498207231F5171f7BeBB312a3e81D6a7aDfE0",
        "0x"
      ],
      "transaction": {
        "from": "0x2aa76c12368bc8aef4190400ef4af19fd0b4247c",
        "to": "0x7376888549fccd252a6b1183f2e3a39d3e5f7959",
        "gas": "0xd4fc",
        "value": "0x0",
        "input": "0x9623609d000000000000000000000000378b494fc06b031b02b3c7d9211bb75d2d2c0bbe000000000000000000000000916498207231f5171f7bebb312a3e81d6a7adfe000000000000000000000000000000000000000000000000000000000000000600000000000000000000000000000000000000000000000000000000000000000",
        "nonce": "0x319",
        "chainId": "0x5f0"
      },
      "additionalContracts": [],
      "isFixedGasLimit": false
    },
    {
      "hash": "0xe55cec1cdc58657c895ad00685a6fcac2dfec0fd5648fed6c1fb9b2aa1d699e8",
      "transactionType": "CALL",
      "contractName": null,
      "contractAddress": "0x233b3708d53494772ca8d8cdae9e08d67c0c21bf",
      "function": "upgradeAndCall(address,address,bytes)",
      "arguments": [
        "0x84cC168d0C682085951451c9E5b8dA987c4A23ba",
        "0x916498207231F5171f7BeBB312a3e81D6a7aDfE0",
        "0x"
      ],
      "transaction": {
        "from": "0x2aa76c12368bc8aef4190400ef4af19fd0b4247c",
        "to": "0x233b3708d53494772ca8d8cdae9e08d67c0c21bf",
        "gas": "0xd4fc",
        "value": "0x0",
        "input": "0x9623609d00000000000000000000000084cc168d0c682085951451c9e5b8da987c4a23ba000000000000000000000000916498207231f5171f7bebb312a3e81d6a7adfe000000000000000000000000000000000000000000000000000000000000000600000000000000000000000000000000000000000000000000000000000000000",
        "nonce": "0x31a",
        "chainId": "0x5f0"
      },
      "additionalContracts": [],
      "isFixedGasLimit": false
    },
    {
      "hash": "0xbcdb3d4e8430ae4b501b30afa0f686ba4941f12b854ece45a2ace91f3d3e23a2",
      "transactionType": "CALL",
      "contractName": null,
      "contractAddress": "0xf6b623505e5ae2e38eb476ca9261aa6e25b5a077",
      "function": "upgradeAndCall(address,address,bytes)",
      "arguments": [
        "0x322628AA283D2fEA7763365dD3DcBc4F76B21918",
        "0x916498207231F5171f7BeBB312a3e81D6a7aDfE0",
        "0x"
      ],
      "transaction": {
        "from": "0x2aa76c12368bc8aef4190400ef4af19fd0b4247c",
        "to": "0xf6b623505e5ae2e38eb476ca9261aa6e25b5a077",
        "gas": "0xd4fc",
        "value": "0x0",
        "input": "0x9623609d000000000000000000000000322628aa283d2fea7763365dd3dcbc4f76b21918000000000000000000000000916498207231f5171f7bebb312a3e81d6a7adfe000000000000000000000000000000000000000000000000000000000000000600000000000000000000000000000000000000000000000000000000000000000",
        "nonce": "0x31b",
        "chainId": "0x5f0"
      },
      "additionalContracts": [],
      "isFixedGasLimit": false
    },
    {
      "hash": "0xc45fa82f1ee441f69fd3fd79ff0e212b6753989659ed98224d31ee16408af2c5",
      "transactionType": "CALL",
      "contractName": null,
      "contractAddress": "0x1425d717fd2d890b642ab44c75ecf795bdc5a3b9",
      "function": "upgradeAndCall(address,address,bytes)",
      "arguments": [
        "0x54AC5950e3C814dd46EdA2AB79Ee1d058C40B5bE",
        "0x916498207231F5171f7BeBB312a3e81D6a7aDfE0",
        "0x"
      ],
      "transaction": {
        "from": "0x2aa76c12368bc8aef4190400ef4af19fd0b4247c",
        "to": "0x1425d717fd2d890b642ab44c75ecf795bdc5a3b9",
        "gas": "0xd4fc",
        "value": "0x0",
        "input": "0x9623609d00000000000000000000000054ac5950e3c814dd46eda2ab79ee1d058c40b5be000000000000000000000000916498207231f5171f7bebb312a3e81d6a7adfe000000000000000000000000000000000000000000000000000000000000000600000000000000000000000000000000000000000000000000000000000000000",
        "nonce": "0x31c",
        "chainId": "0x5f0"
      },
      "additionalContracts": [],
      "isFixedGasLimit": false
    },
    {
      "hash": "0x171aae4294a55714e3fa28fcfd3d1ec6b1e8911042d9194468bce0b6fb154360",
      "transactionType": "CALL",
      "contractName": null,
      "contractAddress": "0x2ea726070ed3677fe9e85d907887757cb5bea2e6",
      "function": "upgradeAndCall(address,address,bytes)",
      "arguments": [
        "0x332D717949FA0008F6c3538C48394B9d3E2cD69a",
        "0x916498207231F5171f7BeBB312a3e81D6a7aDfE0",
        "0x"
      ],
      "transaction": {
        "from": "0x2aa76c12368bc8aef4190400ef4af19fd0b4247c",
        "to": "0x2ea726070ed3677fe9e85d907887757cb5bea2e6",
        "gas": "0xc916",
        "value": "0x0",
        "input": "0x9623609d000000000000000000000000332d717949fa0008f6c3538c48394b9d3e2cd69a000000000000000000000000916498207231f5171f7bebb312a3e81d6a7adfe000000000000000000000000000000000000000000000000000000000000000600000000000000000000000000000000000000000000000000000000000000000",
        "nonce": "0x31d",
        "chainId": "0x5f0"
      },
      "additionalContracts": [],
      "isFixedGasLimit": false
    }
  ],
  "receipts": [
    {
      "status": "0x1",
      "cumulativeGasUsed": "0x91a2",
      "logs": [
        {
          "address": "0xe30c5d32febf7846ff9ed4a4f21e44dea6ee7a59",
          "topics": [
            "0xbc7cd75a20ee27fd9adebab32041f755214dbc6bffa90cc0225b39da2e5c2d3b",
            "0x000000000000000000000000916498207231f5171f7bebb312a3e81d6a7adfe0"
          ],
          "data": "0x",
          "blockHash": "0xe5b0def484413570794cf5cae39ea8098ab645ed0677f89c67fb2dfe70e368bf",
          "blockNumber": "0x629b71",
          "transactionHash": "0x55901564c903aa72a095eb56f16c7f97e16598dd2d017e5b1ac0499e39f14c7e",
          "transactionIndex": "0x0",
          "logIndex": "0x0",
          "removed": false
        }
      ],
      "logsBloom": "0x00000000000000000000000000000000400000000000000000000000000000000000000000000000000000000000100000000000000000000000000000000000000000000000000000000000000002000000000000000800000000000000000000000000000000000000000000000002000000000000000000000000000000000000000000000000000000000000000000000000000000000000000000800000000000000800000000000000000000000000000000000000000000000000000000000020000000000000000000000000000000000000000000000000000000000000000000000000000000000000000040000000000000000000000000000000",
      "type": "0x2",
      "transactionHash": "0x55901564c903aa72a095eb56f16c7f97e16598dd2d017e5b1ac0499e39f14c7e",
      "transactionIndex": "0x0",
      "blockHash": "0xe5b0def484413570794cf5cae39ea8098ab645ed0677f89c67fb2dfe70e368bf",
      "blockNumber": "0x629b71",
      "gasUsed": "0x91a2",
      "effectiveGasPrice": "0x37e11d6f9",
      "from": "0x2aa76c12368bc8aef4190400ef4af19fd0b4247c",
      "to": "0x248cbe908e49471ab2278782f7d5adaf5d470df8",
      "contractAddress": null
    },
    {
      "status": "0x1",
      "cumulativeGasUsed": "0x91a2",
      "logs": [
        {
          "address": "0x5e13237887f04f48d1b0ea2b6c88abb1dda1bc55",
          "topics": [
            "0xbc7cd75a20ee27fd9adebab32041f755214dbc6bffa90cc0225b39da2e5c2d3b",
            "0x000000000000000000000000916498207231f5171f7bebb312a3e81d6a7adfe0"
          ],
          "data": "0x",
          "blockHash": "0xbb654ae565ebcfd0dca29da0588f749853356de0b50dfc9ac7565b577209115b",
          "blockNumber": "0x629b73",
          "transactionHash": "0x31d44bf59125d26a1629edefc9b9a8046c80773586d4c1aee273d9c4ffc58027",
          "transactionIndex": "0x0",
          "logIndex": "0x0",
          "removed": false
        }
      ],
      "logsBloom": "0x00000000000000000000000000000000400000000000000000000000000000000000000000000000020000000000000002000000000000100000000000000000000000000000000000000000000002000000000000000800000000000000000000000000000000000000000000000002000000000000000000000000000000000000000000000000000000000000000000000000000000000000000000000000000000000800000000000000000000000000000000000000000000000000000000000020000000000000000000000000000000000000000000000000000000000000000000000000000000000000000000000000000000000000000000000000",
      "type": "0x2",
      "transactionHash": "0x31d44bf59125d26a1629edefc9b9a8046c80773586d4c1aee273d9c4ffc58027",
      "transactionIndex": "0x0",
      "blockHash": "0xbb654ae565ebcfd0dca29da0588f749853356de0b50dfc9ac7565b577209115b",
      "blockNumber": "0x629b73",
      "gasUsed": "0x91a2",
      "effectiveGasPrice": "0x37e11d6f9",
      "from": "0x2aa76c12368bc8aef4190400ef4af19fd0b4247c",
      "to": "0x96ad692deb46f380ed3bca517e0655d1d9bf31e1",
      "contractAddress": null
    },
    {
      "status": "0x1",
      "cumulativeGasUsed": "0x91a2",
      "logs": [
        {
          "address": "0x378b494fc06b031b02b3c7d9211bb75d2d2c0bbe",
          "topics": [
            "0xbc7cd75a20ee27fd9adebab32041f755214dbc6bffa90cc0225b39da2e5c2d3b",
            "0x000000000000000000000000916498207231f5171f7bebb312a3e81d6a7adfe0"
          ],
          "data": "0x",
          "blockHash": "0xcf79eb4ff87c6e096e4cf190c4b0f9f387e43520611f06ad87a689e67e7c0294",
          "blockNumber": "0x629b75",
          "transactionHash": "0xce09f664b4ab39c172ebf16987e7a3f7c7cfe15f8cd460ab5d6c3339b26b086c",
          "transactionIndex": "0x0",
          "logIndex": "0x0",
          "removed": false
        }
      ],
      "logsBloom": "0x00000000000000000000000000000000400000000000000000000000000000000000000000000000200000000000000000000000000000000000000000000000000000000000000000000000020002000000000000000800000000000000000000000000000000000000000000000002000000000000000000000000000000000000000000000000000000000000000000000000000000000000000000000000000000000800000000000000000000000000000000000000000000004000000000000020000000000000000000000000000000000000000000000000000000000000000000000000000000000000000000000000000000000000000000000000",
      "type": "0x2",
      "transactionHash": "0xce09f664b4ab39c172ebf16987e7a3f7c7cfe15f8cd460ab5d6c3339b26b086c",
      "transactionIndex": "0x0",
      "blockHash": "0xcf79eb4ff87c6e096e4cf190c4b0f9f387e43520611f06ad87a689e67e7c0294",
      "blockNumber": "0x629b75",
      "gasUsed": "0x91a2",
      "effectiveGasPrice": "0x37e11d6f9",
      "from": "0x2aa76c12368bc8aef4190400ef4af19fd0b4247c",
      "to": "0x7376888549fccd252a6b1183f2e3a39d3e5f7959",
      "contractAddress": null
    },
    {
      "status": "0x1",
      "cumulativeGasUsed": "0x91a2",
      "logs": [
        {
          "address": "0x84cc168d0c682085951451c9e5b8da987c4a23ba",
          "topics": [
            "0xbc7cd75a20ee27fd9adebab32041f755214dbc6bffa90cc0225b39da2e5c2d3b",
            "0x000000000000000000000000916498207231f5171f7bebb312a3e81d6a7adfe0"
          ],
          "data": "0x",
          "blockHash": "0x1cd7312b74912457453c772f779d2c7150d8adf6087c6e825fbff402f2c3cf1e",
          "blockNumber": "0x629b76",
          "transactionHash": "0xe55cec1cdc58657c895ad00685a6fcac2dfec0fd5648fed6c1fb9b2aa1d699e8",
          "transactionIndex": "0x0",
          "logIndex": "0x0",
          "removed": false
        }
      ],
      "logsBloom": "0x00000000000000000000000000000000400000000000000000000000000000000000000400000000000000040000000000000000000000000000000000000000000000000000000000000000000002000000000000000800000000000000000000000000000000000000000000000002000000000000000000000000000000000000000000000000000000000000000000000000000000000400000000000000000000000800000000000000000000000000000000000000000000000000000000000020000000000000000000000000000000000000000000000000000000000000000000000000000000000000000000000000000000000000000000000000",
      "type": "0x2",
      "transactionHash": "0xe55cec1cdc58657c895ad00685a6fcac2dfec0fd5648fed6c1fb9b2aa1d699e8",
      "transactionIndex": "0x0",
      "blockHash": "0x1cd7312b74912457453c772f779d2c7150d8adf6087c6e825fbff402f2c3cf1e",
      "blockNumber": "0x629b76",
      "gasUsed": "0x91a2",
      "effectiveGasPrice": "0x37e11d6f9",
      "from": "0x2aa76c12368bc8aef4190400ef4af19fd0b4247c",
      "to": "0x233b3708d53494772ca8d8cdae9e08d67c0c21bf",
      "contractAddress": null
    },
    {
      "status": "0x1",
      "cumulativeGasUsed": "0x91a2",
      "logs": [
        {
          "address": "0x322628aa283d2fea7763365dd3dcbc4f76b21918",
          "topics": [
            "0xbc7cd75a20ee27fd9adebab32041f755214dbc6bffa90cc0225b39da2e5c2d3b",
            "0x000000000000000000000000916498207231f5171f7bebb312a3e81d6a7adfe0"
          ],
          "data": "0x",
          "blockHash": "0xd7142cccd960e3b5391d962fdfa08ba4793df7bd930b0975145c063bb6035907",
          "blockNumber": "0x629b77",
          "transactionHash": "0xbcdb3d4e8430ae4b501b30afa0f686ba4941f12b854ece45a2ace91f3d3e23a2",
          "transactionIndex": "0x0",
          "logIndex": "0x0",
          "removed": false
        }
      ],
      "logsBloom": "0x00000000000000000001000000000000400000000000000000000000000000000000000000000000000000000000000000000000000000000000000000000000000000040000000000000000000002000000000000000800000000000000000000000000000000000000000000000002000000000000000000000000000000000000000000000000000000000000000000000000000000000000000000000000000000000800000000000000000000000000000000000000000000000000000000000020000000000000000000000000000000000000000000000000000000000000000000000000000000000000000000000000000000000000000200000000",
      "type": "0x2",
      "transactionHash": "0xbcdb3d4e8430ae4b501b30afa0f686ba4941f12b854ece45a2ace91f3d3e23a2",
      "transactionIndex": "0x0",
      "blockHash": "0xd7142cccd960e3b5391d962fdfa08ba4793df7bd930b0975145c063bb6035907",
      "blockNumber": "0x629b77",
      "gasUsed": "0x91a2",
      "effectiveGasPrice": "0x37e11d6f9",
      "from": "0x2aa76c12368bc8aef4190400ef4af19fd0b4247c",
      "to": "0xf6b623505e5ae2e38eb476ca9261aa6e25b5a077",
      "contractAddress": null
    },
    {
      "status": "0x1",
      "cumulativeGasUsed": "0x91a2",
      "logs": [
        {
          "address": "0x54ac5950e3c814dd46eda2ab79ee1d058c40b5be",
          "topics": [
            "0xbc7cd75a20ee27fd9adebab32041f755214dbc6bffa90cc0225b39da2e5c2d3b",
            "0x000000000000000000000000916498207231f5171f7bebb312a3e81d6a7adfe0"
          ],
          "data": "0x",
          "blockHash": "0x32b99e08a0acac0406babd19163cf1cbd9bebe4c9083a38602fc601d81bcdbb4",
          "blockNumber": "0x629b78",
          "transactionHash": "0xc45fa82f1ee441f69fd3fd79ff0e212b6753989659ed98224d31ee16408af2c5",
          "transactionIndex": "0x0",
          "logIndex": "0x0",
          "removed": false
        }
      ],
      "logsBloom": "0x00000000000000000000000080000000400000000000000000000000000000000000000000000000000000000000000000000000000000000000000000000000000000000000000000000000000002000000000000000800000000000000000000000000000000000000000000000002004000000000000000000000000000000000000000000000000000000000000000000000000000000000000000000000000000000800000000000000000000000000000000000000000000000000000000000020000000000000000000000000000000000040000000000000000000000000000000000000000000000000000000000000000000000000000000000000",
      "type": "0x2",
      "transactionHash": "0xc45fa82f1ee441f69fd3fd79ff0e212b6753989659ed98224d31ee16408af2c5",
      "transactionIndex": "0x0",
      "blockHash": "0x32b99e08a0acac0406babd19163cf1cbd9bebe4c9083a38602fc601d81bcdbb4",
      "blockNumber": "0x629b78",
      "gasUsed": "0x91a2",
      "effectiveGasPrice": "0x37e11d6f9",
      "from": "0x2aa76c12368bc8aef4190400ef4af19fd0b4247c",
      "to": "0x1425d717fd2d890b642ab44c75ecf795bdc5a3b9",
      "contractAddress": null
    },
    {
      "status": "0x1",
      "cumulativeGasUsed": "0x9196",
      "logs": [
        {
          "address": "0x332d717949fa0008f6c3538c48394b9d3e2cd69a",
          "topics": [
            "0xbc7cd75a20ee27fd9adebab32041f755214dbc6bffa90cc0225b39da2e5c2d3b",
            "0x000000000000000000000000916498207231f5171f7bebb312a3e81d6a7adfe0"
          ],
          "data": "0x",
          "blockHash": "0x73f6f1358472731ec89bb6a8ee0433d21bd6f548f29a0dbea4ebb2231ea3fd01",
          "blockNumber": "0x629b79",
          "transactionHash": "0x171aae4294a55714e3fa28fcfd3d1ec6b1e8911042d9194468bce0b6fb154360",
          "transactionIndex": "0x0",
          "logIndex": "0x0",
          "removed": false
        }
      ],
      "logsBloom": "0x00000000000000000000000000000000400000000000000000000000000000000000000000000000000000000000000000000000000000000000000000000000000000000000000000000000000002000000000000000800000000000000000000000000000000000000000000000002000000000000000000000000000000000000000000000000000000000000000000000000000040000000000000000000000000000800000000000000000000000000000080000000000000000000000000000020000000000000000000000000000000000000000000000000000000000000000000000000000400000000000000000000000000000000000000000000",
      "type": "0x2",
      "transactionHash": "0x171aae4294a55714e3fa28fcfd3d1ec6b1e8911042d9194468bce0b6fb154360",
      "transactionIndex": "0x0",
      "blockHash": "0x73f6f1358472731ec89bb6a8ee0433d21bd6f548f29a0dbea4ebb2231ea3fd01",
      "blockNumber": "0x629b79",
      "gasUsed": "0x9196",
      "effectiveGasPrice": "0x37e11d6f9",
      "from": "0x2aa76c12368bc8aef4190400ef4af19fd0b4247c",
      "to": "0x2ea726070ed3677fe9e85d907887757cb5bea2e6",
      "contractAddress": null
    }
  ],
  "libraries": [],
  "pending": [],
  "returns": {},
  "timestamp": 1776621731664,
  "chain": 1520,
  "commit": "a0dd248"
}