{
  "transactions": [
    {
      "hash": "0x4c01275f9bb5b3abbbfb85d58f0827174c0c1bf9489849b5f3b689330c47fb50",
      "transactionType": "CALL",
      "contractName": null,
      "contractAddress": "0x248cbe908e49471ab2278782f7d5adaf5d470df8",
      "function": "upgradeAndCall(address,address,bytes)",
      "arguments": [
        "0xe30C5d32feBf7846Ff9ed4A4f21E44dEA6Ee7A59",
        "0x916498207231F5171f7BeBB312a3e81D6a7aDfE0",
        "0x"
      ],
      "transaction": {
        "from": "0x2aa76c12368bc8aef4190400ef4af19fd0b4247c",
        "to": "0x248cbe908e49471ab2278782f7d5adaf5d470df8",
        "gas": "0xc4fd",
        "value": "0x0",
        "input": "0x9623609d000000000000000000000000e30c5d32febf7846ff9ed4a4f21e44dea6ee7a59000000000000000000000000916498207231f5171f7bebb312a3e81d6a7adfe000000000000000000000000000000000000000000000000000000000000000600000000000000000000000000000000000000000000000000000000000000000",
        "nonce": "0x31e",
        "chainId": "0x5f0"
      },
      "additionalContracts": [],
      "isFixedGasLimit": false
    },
    {
      "hash": "0x893f7d7501a2fd3485d0f17db27896a77bf5b14bd1f68a40df1e76c1c1c5e38f",
      "transactionType": "CALL",
      "contractName": null,
      "contractAddress": "0x96ad692deb46f380ed3bca517e0655d1d9bf31e1",
      "function": "upgradeAndCall(address,address,bytes)",
      "arguments": [
        "0x5e13237887F04F48d1b0EA2b6c88aBb1ddA1bc55",
        "0x916498207231F5171f7BeBB312a3e81D6a7aDfE0",
        "0x"
      ],
      "transaction": {
        "from": "0x2aa76c12368bc8aef4190400ef4af19fd0b4247c",
        "to": "0x96ad692deb46f380ed3bca517e0655d1d9bf31e1",
        "gas": "0xc4fd",
        "value": "0x0",
        "input": "0x9623609d0000000000000000000000005e13237887f04f48d1b0ea2b6c88abb1dda1bc55000000000000000000000000916498207231f5171f7bebb312a3e81d6a7adfe000000000000000000000000000000000000000000000000000000000000000600000000000000000000000000000000000000000000000000000000000000000",
        "nonce": "0x31f",
        "chainId": "0x5f0"
      },
      "additionalContracts": [],
      "isFixedGasLimit": false
    },
    {
      "hash": "0x45127003908bec576ac6a782048c186f28d4d2d0c6a5f27cf1156f8271c56d96",
      "transactionType": "CALL",
      "contractName": null,
      "contractAddress": "0x7376888549fccd252a6b1183f2e3a39d3e5f7959",
      "function": "upgradeAndCall(address,address,bytes)",
      "arguments": [
        "0x378b494FC06B031B02b3c7D9211BB75d2d2c0bBe",
        "0x916498207231F5171f7BeBB312a3e81D6a7aDfE0",
        "0x"
      ],
      "transaction": {
        "from": "0x2aa76c12368bc8aef4190400ef4af19fd0b4247c",
        "to": "0x7376888549fccd252a6b1183f2e3a39d3e5f7959",
        "gas": "0xc4fd",
        "value": "0x0",
        "input": "0x9623609d000000000000000000000000378b494fc06b031b02b3c7d9211bb75d2d2c0bbe000000000000000000000000916498207231f5171f7bebb312a3e81d6a7adfe000000000000000000000000000000000000000000000000000000000000000600000000000000000000000000000000000000000000000000000000000000000",
        "nonce": "0x320",
        "chainId": "0x5f0"
      },
      "additionalContracts": [],
      "isFixedGasLimit": false
    },
    {
      "hash": "0x7597a18d6d07f451c985122144d26acd8864e7df0d5e066f2fa3357a17decb1f",
      "transactionType": "CALL",
      "contractName": null,
      "contractAddress": "0x233b3708d53494772ca8d8cdae9e08d67c0c21bf",
      "function": "upgradeAndCall(address,address,bytes)",
      "arguments": [
        "0x84cC168d0C682085951451c9E5b8dA987c4A23ba",
        "0x916498207231F5171f7BeBB312a3e81D6a7aDfE0",
        "0x"
      ],
      "transaction": {
        "from": "0x2aa76c12368bc8aef4190400ef4af19fd0b4247c",
        "to": "0x233b3708d53494772ca8d8cdae9e08d67c0c21bf",
        "gas": "0xc4fd",
        "value": "0x0",
        "input": "0x9623609d00000000000000000000000084cc168d0c682085951451c9e5b8da987c4a23ba000000000000000000000000916498207231f5171f7bebb312a3e81d6a7adfe000000000000000000000000000000000000000000000000000000000000000600000000000000000000000000000000000000000000000000000000000000000",
        "nonce": "0x321",
        "chainId": "0x5f0"
      },
      "additionalContracts": [],
      "isFixedGasLimit": false
    },
    {
      "hash": "0x0f5e49420e4152d6d11101f020a7dfdf7b25b354925a833aeebea29738cfc8c7",
      "transactionType": "CALL",
      "contractName": null,
      "contractAddress": "0xf6b623505e5ae2e38eb476ca9261aa6e25b5a077",
      "function": "upgradeAndCall(address,address,bytes)",
      "arguments": [
        "0x322628AA283D2fEA7763365dD3DcBc4F76B21918",
        "0x916498207231F5171f7BeBB312a3e81D6a7aDfE0",
        "0x"
      ],
      "transaction": {
        "from": "0x2aa76c12368bc8aef4190400ef4af19fd0b4247c",
        "to": "0xf6b623505e5ae2e38eb476ca9261aa6e25b5a077",
        "gas": "0xc4fd",
        "value": "0x0",
        "input": "0x9623609d000000000000000000000000322628aa283d2fea7763365dd3dcbc4f76b21918000000000000000000000000916498207231f5171f7bebb312a3e81d6a7adfe000000000000000000000000000000000000000000000000000000000000000600000000000000000000000000000000000000000000000000000000000000000",
        "nonce": "0x322",
        "chainId": "0x5f0"
      },
      "additionalContracts": [],
      "isFixedGasLimit": false
    },
    {
      "hash": "0x2026deda6fcaab3685f2596c25134e83e2c5d66b6cefc0d2e6477def6e30d7ce",
      "transactionType": "CALL",
      "contractName": null,
      "contractAddress": "0x1425d717fd2d890b642ab44c75ecf795bdc5a3b9",
      "function": "upgradeAndCall(address,address,bytes)",
      "arguments": [
        "0x54AC5950e3C814dd46EdA2AB79Ee1d058C40B5bE",
        "0x916498207231F5171f7BeBB312a3e81D6a7aDfE0",
        "0x"
      ],
      "transaction": {
        "from": "0x2aa76c12368bc8aef4190400ef4af19fd0b4247c",
        "to": "0x1425d717fd2d890b642ab44c75ecf795bdc5a3b9",
        "gas": "0xc4fd",
        "value": "0x0",
        "input": "0x9623609d00000000000000000000000054ac5950e3c814dd46eda2ab79ee1d058c40b5be000000000000000000000000916498207231f5171f7bebb312a3e81d6a7adfe000000000000000000000000000000000000000000000000000000000000000600000000000000000000000000000000000000000000000000000000000000000",
        "nonce": "0x323",
        "chainId": "0x5f0"
      },
      "additionalContracts": [],
      "isFixedGasLimit": false
    },
    {
      "hash": "0xf58674314a720be1f9f4d6bafdc7d7c564e031deabb7a0b1cff65d03d7254ba3",
      "transactionType": "CALL",
      "contractName": null,
      "contractAddress": "0x2ea726070ed3677fe9e85d907887757cb5bea2e6",
      "function": "upgradeAndCall(address,address,bytes)",
      "arguments": [
        "0x332D717949FA0008F6c3538C48394B9d3E2cD69a",
        "0x916498207231F5171f7BeBB312a3e81D6a7aDfE0",
        "0x"
      ],
      "transaction": {
        "from": "0x2aa76c12368bc8aef4190400ef4af19fd0b4247c",
        "to": "0x2ea726070ed3677fe9e85d907887757cb5bea2e6",
        "gas": "0xb9fb",
        "value": "0x0",
        "input": "0x9623609d000000000000000000000000332d717949fa0008f6c3538c48394b9d3e2cd69a000000000000000000000000916498207231f5171f7bebb312a3e81d6a7adfe000000000000000000000000000000000000000000000000000000000000000600000000000000000000000000000000000000000000000000000000000000000",
        "nonce": "0x324",
        "chainId": "0x5f0"
      },
      "additionalContracts": [],
      "isFixedGasLimit": false
    }
  ],
  "receipts": [
    {
      "status": "0x1",
      "cumulativeGasUsed": "0x86b2",
      "logs": [
        {
          "address": "0xe30c5d32febf7846ff9ed4a4f21e44dea6ee7a59",
          "topics": [
            "0xbc7cd75a20ee27fd9adebab32041f755214dbc6bffa90cc0225b39da2e5c2d3b",
            "0x000000000000000000000000916498207231f5171f7bebb312a3e81d6a7adfe0"
          ],
          "data": "0x",
          "blockHash": "0x8c177fe17d2c2b246b8e15f459cf0b46bfaf34e6a8226aca1942fe3f7831b7cc",
          "blockNumber": "0x629bab",
          "transactionHash": "0x4c01275f9bb5b3abbbfb85d58f0827174c0c1bf9489849b5f3b689330c47fb50",
          "transactionIndex": "0x0",
          "logIndex": "0x0",
          "removed": false
        }
      ],
      "logsBloom": "0x00000000000000000000000000000000400000000000000000000000000000000000000000000000000000000000100000000000000000000000000000000000000000000000000000000000000002000000000000000800000000000000000000000000000000000000000000000002000000000000000000000000000000000000000000000000000000000000000000000000000000000000000000800000000000000800000000000000000000000000000000000000000000000000000000000020000000000000000000000000000000000000000000000000000000000000000000000000000000000000000040000000000000000000000000000000",
      "type": "0x2",
      "transactionHash": "0x4c01275f9bb5b3abbbfb85d58f0827174c0c1bf9489849b5f3b689330c47fb50",
      "transactionIndex": "0x0",
      "blockHash": "0x8c177fe17d2c2b246b8e15f459cf0b46bfaf34e6a8226aca1942fe3f7831b7cc",
      "blockNumber": "0x629bab",
      "gasUsed": "0x86b2",
      "effectiveGasPrice": "0x37e11d6f9",
      "from": "0x2aa76c12368bc8aef4190400ef4af19fd0b4247c",
      "to": "0x248cbe908e49471ab2278782f7d5adaf5d470df8",
      "contractAddress": null
    },
    {
      "status": "0x1",
      "cumulativeGasUsed": "0x86b2",
      "logs": [
        {
          "address": "0x5e13237887f04f48d1b0ea2b6c88abb1dda1bc55",
          "topics": [
            "0xbc7cd75a20ee27fd9adebab32041f755214dbc6bffa90cc0225b39da2e5c2d3b",
            "0x000000000000000000000000916498207231f5171f7bebb312a3e81d6a7adfe0"
          ],
          "data": "0x",
          "blockHash": "0xfc4a818a19be039999d33c2335a1bef98c0b4b3f4dede798d9421fc15f7b2c61",
          "blockNumber": "0x629bad",
          "transactionHash": "0x893f7d7501a2fd3485d0f17db27896a77bf5b14bd1f68a40df1e76c1c1c5e38f",
          "transactionIndex": "0x0",
          "logIndex": "0x0",
          "removed": false
        }
      ],
      "logsBloom": "0x00000000000000000000000000000000400000000000000000000000000000000000000000000000020000000000000002000000000000100000000000000000000000000000000000000000000002000000000000000800000000000000000000000000000000000000000000000002000000000000000000000000000000000000000000000000000000000000000000000000000000000000000000000000000000000800000000000000000000000000000000000000000000000000000000000020000000000000000000000000000000000000000000000000000000000000000000000000000000000000000000000000000000000000000000000000",
      "type": "0x2",
      "transactionHash": "0x893f7d7501a2fd3485d0f17db27896a77bf5b14bd1f68a40df1e76c1c1c5e38f",
      "transactionIndex": "0x0",
      "blockHash": "0xfc4a818a19be039999d33c2335a1bef98c0b4b3f4dede798d9421fc15f7b2c61",
      "blockNumber": "0x629bad",
      "gasUsed": "0x86b2",
      "effectiveGasPrice": "0x37e11d6f9",
      "from": "0x2aa76c12368bc8aef4190400ef4af19fd0b4247c",
      "to": "0x96ad692deb46f380ed3bca517e0655d1d9bf31e1",
      "contractAddress": null
    },
    {
      "status": "0x1",
      "cumulativeGasUsed": "0x86b2",
      "logs": [
        {
          "address": "0x378b494fc06b031b02b3c7d9211bb75d2d2c0bbe",
          "topics": [
            "0xbc7cd75a20ee27fd9adebab32041f755214dbc6bffa90cc0225b39da2e5c2d3b",
            "0x000000000000000000000000916498207231f5171f7bebb312a3e81d6a7adfe0"
          ],
          "data": "0x",
          "blockHash": "0x5a6d6cf1e3332ec03c86cf7e4ee991c1aadef32f019b055b1fd6ba704ca0291b",
          "blockNumber": "0x629baf",
          "transactionHash": "0x45127003908bec576ac6a782048c186f28d4d2d0c6a5f27cf1156f8271c56d96",
          "transactionIndex": "0x0",
          "logIndex": "0x0",
          "removed": false
        }
      ],
      "logsBloom": "0x00000000000000000000000000000000400000000000000000000000000000000000000000000000200000000000000000000000000000000000000000000000000000000000000000000000020002000000000000000800000000000000000000000000000000000000000000000002000000000000000000000000000000000000000000000000000000000000000000000000000000000000000000000000000000000800000000000000000000000000000000000000000000004000000000000020000000000000000000000000000000000000000000000000000000000000000000000000000000000000000000000000000000000000000000000000",
      "type": "0x2",
      "transactionHash": "0x45127003908bec576ac6a782048c186f28d4d2d0c6a5f27cf1156f8271c56d96",
      "transactionIndex": "0x0",
      "blockHash": "0x5a6d6cf1e3332ec03c86cf7e4ee991c1aadef32f019b055b1fd6ba704ca0291b",
      "blockNumber": "0x629baf",
      "gasUsed": "0x86b2",
      "effectiveGasPrice": "0x37e11d6f9",
      "from": "0x2aa76c12368bc8aef4190400ef4af19fd0b4247c",
      "to": "0x7376888549fccd252a6b1183f2e3a39d3e5f7959",
      "contractAddress": null
    },
    {
      "status": "0x1",
      "cumulativeGasUsed": "0x86b2",
      "logs": [
        {
          "address": "0x84cc168d0c682085951451c9e5b8da987c4a23ba",
          "topics": [
            "0xbc7cd75a20ee27fd9adebab32041f755214dbc6bffa90cc0225b39da2e5c2d3b",
            "0x000000000000000000000000916498207231f5171f7bebb312a3e81d6a7adfe0"
          ],
          "data": "0x",
          "blockHash": "0x57bcdb8b8a6baec764d4c2c950ec38bbf2488e5deb68444ba34f999241bd825e",
          "blockNumber": "0x629bb0",
          "transactionHash": "0x7597a18d6d07f451c985122144d26acd8864e7df0d5e066f2fa3357a17decb1f",
          "transactionIndex": "0x0",
          "logIndex": "0x0",
          "removed": false
        }
      ],
      "logsBloom": "0x00000000000000000000000000000000400000000000000000000000000000000000000400000000000000040000000000000000000000000000000000000000000000000000000000000000000002000000000000000800000000000000000000000000000000000000000000000002000000000000000000000000000000000000000000000000000000000000000000000000000000000400000000000000000000000800000000000000000000000000000000000000000000000000000000000020000000000000000000000000000000000000000000000000000000000000000000000000000000000000000000000000000000000000000000000000",
      "type": "0x2",
      "transactionHash": "0x7597a18d6d07f451c985122144d26acd8864e7df0d5e066f2fa3357a17decb1f",
      "transactionIndex": "0x0",
      "blockHash": "0x57bcdb8b8a6baec764d4c2c950ec38bbf2488e5deb68444ba34f999241bd825e",
      "blockNumber": "0x629bb0",
      "gasUsed": "0x86b2",
      "effectiveGasPrice": "0x37e11d6f9",
      "from": "0x2aa76c12368bc8aef4190400ef4af19fd0b4247c",
      "to": "0x233b3708d53494772ca8d8cdae9e08d67c0c21bf",
      "contractAddress": null
    },
    {
      "status": "0x1",
      "cumulativeGasUsed": "0x86b2",
      "logs": [
        {
          "address": "0x322628aa283d2fea7763365dd3dcbc4f76b21918",
          "topics": [
            "0xbc7cd75a20ee27fd9adebab32041f755214dbc6bffa90cc0225b39da2e5c2d3b",
            "0x000000000000000000000000916498207231f5171f7bebb312a3e81d6a7adfe0"
          ],
          "data": "0x",
          "blockHash": "0xd71c6677d8fd9f46cbbeb12379be1a2d8ca92b475eb0b0d4e56f4a938d6a9302",
          "blockNumber": "0x629bb1",
          "transactionHash": "0x0f5e49420e4152d6d11101f020a7dfdf7b25b354925a833aeebea29738cfc8c7",
          "transactionIndex": "0x0",
          "logIndex": "0x0",
          "removed": false
        }
      ],
      "logsBloom": "0x00000000000000000001000000000000400000000000000000000000000000000000000000000000000000000000000000000000000000000000000000000000000000040000000000000000000002000000000000000800000000000000000000000000000000000000000000000002000000000000000000000000000000000000000000000000000000000000000000000000000000000000000000000000000000000800000000000000000000000000000000000000000000000000000000000020000000000000000000000000000000000000000000000000000000000000000000000000000000000000000000000000000000000000000200000000",
      "type": "0x2",
      "transactionHash": "0x0f5e49420e4152d6d11101f020a7dfdf7b25b354925a833aeebea29738cfc8c7",
      "transactionIndex": "0x0",
      "blockHash": "0xd71c6677d8fd9f46cbbeb12379be1a2d8ca92b475eb0b0d4e56f4a938d6a9302",
      "blockNumber": "0x629bb1",
      "gasUsed": "0x86b2",
      "effectiveGasPrice": "0x37e11d6f9",
      "from": "0x2aa76c12368bc8aef4190400ef4af19fd0b4247c",
      "to": "0xf6b623505e5ae2e38eb476ca9261aa6e25b5a077",
      "contractAddress": null
    },
    {
      "status": "0x1",
      "cumulativeGasUsed": "0x86b2",
      "logs": [
        {
          "address": "0x54ac5950e3c814dd46eda2ab79ee1d058c40b5be",
          "topics": [
            "0xbc7cd75a20ee27fd9adebab32041f755214dbc6bffa90cc0225b39da2e5c2d3b",
            "0x000000000000000000000000916498207231f5171f7bebb312a3e81d6a7adfe0"
          ],
          "data": "0x",
          "blockHash": "0x6254b43e38a4dee95177f933ad2cd09680962152b2720dab20733b41bd329f94",
          "blockNumber": "0x629bb2",
          "transactionHash": "0x2026deda6fcaab3685f2596c25134e83e2c5d66b6cefc0d2e6477def6e30d7ce",
          "transactionIndex": "0x0",
          "logIndex": "0x0",
          "removed": false
        }
      ],
      "logsBloom": "0x00000000000000000000000080000000400000000000000000000000000000000000000000000000000000000000000000000000000000000000000000000000000000000000000000000000000002000000000000000800000000000000000000000000000000000000000000000002004000000000000000000000000000000000000000000000000000000000000000000000000000000000000000000000000000000800000000000000000000000000000000000000000000000000000000000020000000000000000000000000000000000040000000000000000000000000000000000000000000000000000000000000000000000000000000000000",
      "type": "0x2",
      "transactionHash": "0x2026deda6fcaab3685f2596c25134e83e2c5d66b6cefc0d2e6477def6e30d7ce",
      "transactionIndex": "0x0",
      "blockHash": "0x6254b43e38a4dee95177f933ad2cd09680962152b2720dab20733b41bd329f94",
      "blockNumber": "0x629bb2",
      "gasUsed": "0x86b2",
      "effectiveGasPrice": "0x37e11d6f9",
      "from": "0x2aa76c12368bc8aef4190400ef4af19fd0b4247c",
      "to": "0x1425d717fd2d890b642ab44c75ecf795bdc5a3b9",
      "contractAddress": null
    },
    {
      "status": "0x1",
      "cumulativeGasUsed": "0x86a6",
      "logs": [
        {
          "address": "0x332d717949fa0008f6c3538c48394b9d3e2cd69a",
          "topics": [
            "0xbc7cd75a20ee27fd9adebab32041f755214dbc6bffa90cc0225b39da2e5c2d3b",
            "0x000000000000000000000000916498207231f5171f7bebb312a3e81d6a7adfe0"
          ],
          "data": "0x",
          "blockHash": "0xb6c3b69bf045e770cacde140505000562298dfe0463fea4936ab32524b2b46d4",
          "blockNumber": "0x629bb3",
          "transactionHash": "0xf58674314a720be1f9f4d6bafdc7d7c564e031deabb7a0b1cff65d03d7254ba3",
          "transactionIndex": "0x0",
          "logIndex": "0x0",
          "removed": false
        }
      ],
      "logsBloom": "0x00000000000000000000000000000000400000000000000000000000000000000000000000000000000000000000000000000000000000000000000000000000000000000000000000000000000002000000000000000800000000000000000000000000000000000000000000000002000000000000000000000000000000000000000000000000000000000000000000000000000040000000000000000000000000000800000000000000000000000000000080000000000000000000000000000020000000000000000000000000000000000000000000000000000000000000000000000000000400000000000000000000000000000000000000000000",
      "type": "0x2",
      "transactionHash": "0xf58674314a720be1f9f4d6bafdc7d7c564e031deabb7a0b1cff65d03d7254ba3",
      "transactionIndex": "0x0",
      "blockHash": "0xb6c3b69bf045e770cacde140505000562298dfe0463fea4936ab32524b2b46d4",
      "blockNumber": "0x629bb3",
      "gasUsed": "0x86a6",
      "effectiveGasPrice": "0x37e11d6f9",
      "from": "0x2aa76c12368bc8aef4190400ef4af19fd0b4247c",
      "to": "0x2ea726070ed3677fe9e85d907887757cb5bea2e6",
      "contractAddress": null
    }
  ],
  "libraries": [],
  "pending": [],
  "returns": {},
  "timestamp": 1776621849473,
  "chain": 1520,
  "commit": "a0dd248"
}